:10000000A9C10000CEC10000CCC10000CAC10000DF
:10001000C8C10000C6C10000C4C10000C2C10000C8
:10002000C0C100000C94B314BCC10000BAC10000F0
:10003000B8C100000C94290EB4C10000B2C1000088
:10004000B0C10000AEC100000C943A140C947214BC
:10005000A8C10000A6C10000A4C10000A2C1000008
:10006000A0C100009EC100008C0B920B950B980B59
:100070009B0B9E0BA10BA40BA70BAA0BAD0BB00BFC
:1000800020506F6C6F6C750033F720526F626F7485
:100090000044656D6F0050726F6772616D0055733B
:1000A00065204220746F0073656C6563742E005088
:1000B000726573732042002D747279206974210077
:1000C000205468616E6B20002020796F752100201C
:1000D000204D61696E0020204D656E75004261748F
:1000E00074657279004C454473004C434400536579
:1000F0006E736F7273004D6F746F7273004D757312
:100100006963005472696D706F740054696D657233
:10011000007F4120A54220437E000642003E673317
:10012000323E3E633332003E3E6333323E6733320B
:1001300000216333320021653332002167333200FE
:100140002176383E3E63333200000000000000009C
:100150001F1F1F1F1F1F1F04060505041C1C000076
:10016000020105091E08042120543132304F354C5C
:10017000313661676166616561206461632B61642A
:100180006165612066613C61613C6261632361205D
:1001900064616323616461656120664F36646364F2
:1001A0003C622D643C61643C6720643C662B643C8B
:1001B00067643C61643C622D20643C64643C65641B
:1001C0003C662B643C6720643C662B643C67643C63
:1001D00061644C384D533C622D643C622D64204D6B
:1001E0004C652D3C67652D3C67204D53633C616336
:1001F0003C61204D4C643C66643C66204F354D5359
:10020000622D67622D674D4C3E6323653E63236517
:10021000204D532061666166204D4C206763236743
:100220006323204D532066646664204D4C20653C5A
:10023000622D653C622D4F364C31367261676166C6
:100240006165612064616323616461656120666149
:100250003C61613C6261632361206461632361648A
:100260006165612066616561646163613C622D6105
:10027000636164673C622D67206567646763673C00
:10028000622D67203C61673C622D6763663C616656
:1002900020646663663C622D663C61663C67663C32
:1002A00061663C622D653C6765206323653C622D79
:1002B000653C61653C6765203C66653C67653C6103
:1002C000643C66644F35653E65653E65663E6466C2
:1002D0003E6420622D3E6323622D3E6323613E64B3
:1002E000663E6420653E65653E65663E64663E64C6
:1002F000653E643E63233E64623E643E6323622047
:100300003E63236167616567666520664F36646397
:100310002364666463233C6220632334002020202E
:10032000202020200720467567756520696E2044CF
:10033000204D696E6F72202D206279204A2E532E37
:100340002042616368200720202020202020000018
:100350004B154C1511241FBECFEFD8E0DEBFCDBF2B
:1003600011E0A0E0B1E0E8EDF9E302C005900D92E4
:10037000AC38B107D9F713E0ACE8B1E001C01D9289
:10038000A430B107E1F713E0C2E5D3E004C022973F
:10039000FE010E94D71BC035D107C9F7F2D40C94D7
:1003A000E01C2ECEEF92FF920F931F938C017B01E6
:1003B0000E94D80FC8010E94771080E061E00E947F
:1003C000AA0FC7010E9477100E9431157B018C0192
:1003D00001C0CED70E9431156E197F09800B910B99
:1003E000685E734080409040A0F31F910F91FF9092
:1003F000EF9008951F93CF93DF938FEC90E066ED1D
:1004000070E0D0DFC6E0D0E00E94D80F80E061E06D
:100410000E94AA0F81E191E00E94771080E060E0E5
:100420000E94AA0FE0919001F0919101EE0FFF1F41
:10043000EE5CFE4F808191810E94771081E00E94E6
:100440008A0F96D782E30E940113182F8823C9F3DD
:1004500081FF0AC081E391E00E941A0E8091900111
:1004600090919101019752C084FF45C00E94820F74
:100470000E94D80F86E391E00E941A0E812F0E94FD
:10048000341318C080E061E00E94AA0F8AE191E075
:100490000E94771080E060E00E94AA0FE091900136
:1004A000F0919101EE0FFF1FEC5DFE4F0190F08186
:1004B000E02D099580E10E947711882319F380E0EF
:1004C00090E060E070E00E9475110E947E0A109238
:1004D0008D0110928C0110928F0110928E0159980B
:1004E000519A5F98579A86E391E00E941A0EDF9125
:1004F000CF911F91089585FF0DC08BE391E00E947D
:100500001A0E809190019091910101969093910122
:1005100080939001809190019091910197FF04C088
:10052000D0939101C093900180919001909191019D
:1005300007970CF469CF109291011092900164CF4B
:100540001F9382E30E940113182F12D71123C9F3BE
:1005500011FF03C081E391E009C014FF03C086E3EB
:1005600091E004C015FF06C08BE391E00E941A0ED3
:1005700001C0FED6812F0E9448128823D1F3812F1B
:100580001F910895EF92FF920F931F930E943115D0
:100590007B018C018091950190919601A09197012A
:1005A000B09198010097A105B10501F180919D01DD
:1005B00090919E01A0919F01B091A001209199017D
:1005C00030919A0140919B0150919C01821B930BA9
:1005D000A40BB50B8E0D9F1DA01FB11F80939D0115
:1005E00090939E01A0939F01B093A001E092990186
:1005F000F0929A0100939B0110939C0182E00E946B
:1006000077118823F1F0809194018823D1F481E05F
:100610008093940110929501109296011092970187
:100620001092980110929D0110929E0110929F01CC
:100630001092A00155D7882321F481E391E00E9414
:100640001A0E82E00E947711882311F4109294010F
:1006500080E20E947711882339F1809193018823E9
:1006600019F581E08093930120E030E040E050E014
:100670008091950190919601A0919701B091980178
:100680000097A105B10521F421E030E040E050E001
:1006900020939501309396014093970150939801D0
:1006A0008BE391E00E941A0E80E20E94771188236A
:1006B00011F41092930160919D0170919E018091BF
:1006C0009F019091A00120EC37E249E050E00E94A8
:1006D000831BCA01B9012AE030E040E050E00E94EB
:1006E000831B0E94681060919D0170919E01809112
:1006F0009F019091A00120E63AEE40E050E00E9478
:10070000831BCA01B9012AE030E040E050E00E94BA
:10071000831B0E9468108AE30E94871060919D01EC
:1007200070919E0180919F019091A00128EE33E08D
:1007300040E050E00E94831BCA01B9012CE330E085
:1007400040E050E00E94831B2AE030E040E050E0AF
:100750000E94831BCA01B9010E94681060919D012B
:1007600070919E0180919F019091A00128EE33E04D
:1007700040E050E00E94831BCA01B9012CE330E045
:1007800040E050E00E94831B2AE030E040E050E06F
:100790000E94831B162F772767FD7095872F972F51
:1007A0000E9468108EE20E94871060919D017091F6
:1007B0009E0180919F019091A00124E630E040E0ED
:1007C00050E00E94831BCA01B9012AE030E040E0FA
:1007D00050E00E94831B0E94681060919D017091FF
:1007E0009E0180919F019091A0012AE030E040E0BD
:1007F00050E00E94831BCA01B9012AE030E040E0CA
:1008000050E00E94831B0E9468108091920118178B
:1008100099F080919D0190919E01A0919F01B091CE
:10082000A0010097A105B10539F05AD6882321F41B
:1008300080E491E00E941A0E109392011F910F9193
:10084000FF90EF900895FF920F93DF93CF9300D026
:10085000CDB7DEB70E943115F62E80917C008F7DDA
:1008600080937C00E6D5A0E0B0E0BC01CD010E9401
:10087000681080E091E00E94851018C0DAD59A8354
:10088000898368EC70E04FE017D72AE00202C001CC
:100890001124E981FA81E817F90724F45998519A4B
:1008A0005F9A03C0599A519A5F98579A0E943115DE
:1008B000062F0F19043614F30F900F90CF91DF918C
:1008C0000F91FF900895CF93DF930E9431152091EF
:1008D000A1013091A2014091A3015091A401621B9A
:1008E000730B840B950B6B3F71058105910550F1DE
:1008F000C0E0D0E0E091A501FF27E7FDF095EC0F07
:10090000FD1FE35EFC4FE4918E2F0E94871021961D
:10091000C830D10579F70E9431156093A101709319
:10092000A2018093A3019093A4018091A5018F5F00
:100930008093A501992787FD90950896C29710F09E
:100940001092A501CDD5882321F487E691E00E947D
:100950001A0E84E690E00E94ED14DF91CF91089585
:100960000F931F9382E00E94771120918C013091A8
:100970008D018823E9F0232B89F488EC90E00E9414
:10098000ED1482E00E947711882341F490E0809179
:10099000A701882309F491E09093A70180918C012D
:1009A00090918D010A9690938D0180938C0106C0E1
:1009B0002451304030938D0120938C0180E20E94BD
:1009C000771120918E0130918F018823E9F0232B3C
:1009D00089F488EC90E00E94ED1480E20E94771187
:1009E000882341F490E08091A601882309F491E0E6
:1009F0009093A60180918E0190918F010A96909319
:100A00008F0180938E0106C02451304030938F01B6
:100A100020938E0180918C0190918D0197FF04C0ED
:100A200010928D0110928C0180918C0190918D011A
:100A30008F3F910539F034F08FEF90E090938D0166
:100A400080938C0180918E0190918F0197FF04C05B
:100A500010928F0110928E0180918E0190918F01E2
:100A60008F3F910539F034F08FEF90E090938F0134
:100A700080938E0180918C0190918D016AE170E0EC
:100A80000E944E1BFB01EF5BFE4F108180918E0197
:100A900090918F016AE170E00E944E1BFB01EF5BB9
:100AA000FE4F0081812F0E9487108091A70188232B
:100AB00011F481E401C081E60E948710812F0E9419
:100AC000871085E060E00E94AA0F802F0E948710A7
:100AD0008091A601882311F483E401C083E60E947B
:100AE0008710802F0E948710E0918C01F0918D017A
:100AF0008091A701882319F441E050E002C04FEF34
:100B00005FEF20918E0130918F018091A6018823A3
:100B100019F481E090E002C08FEF9FEF829FB00157
:100B2000839F700D929F700D11244E9FC0014F9FA7
:100B3000900D5E9F900D11240E94751182E390E04C
:100B40000E94ED141F910F910895CF93DF93C0E0A1
:100B5000D0E08AE090E00E94ED1480E10E947711DD
:100B6000882311F081E005C02196C931D10589F7AC
:100B700080E0DF91CF910895AAE0B0E0E2ECF5E0EB
:100B80000C94AA1B80E20E9477119E012F5F3F4FB9
:100B9000882319F0C90160E002C0C90161E00E9428
:100BA00063158E010F5F1F4F2BE0E22EF12CEC0E30
:100BB000FD1EF801819191918F0169EC70E00E9416
:100BC0003A1BFB01EF5BFE4F80810E9487100E15E0
:100BD0001F0579F780E20E947711882319F084E0DD
:100BE00091E002C088E091E00E94851084E690E0E8
:100BF0000E94ED142A96E6E00C94C61B8CE091E06E
:100C00000E94270E80E191E00E948510599A519A26
:100C10009CDF8823C9F45998519A97DF8823A1F45F
:100C200086E191E00E94270E80E060E00E94AA0F1A
:100C30008BE191E00E9485105F9A579A86DF8823A6
:100C400019F45F98579A81CF08950F931F9301EC81
:100C500010E0F8018081877F8083D0DFF8018081F8
:100C6000886080831F910F91089538D4AA2797FD3B
:100C7000A095BA2FBC01CD010E94681081E291E0DD
:100C80000E94851084E690E00C94ED140F931F935E
:100C900009E411E0C80160E00E94AD10C8010196AE
:100CA00061E00E94AD10C801029662E00E94AD10A2
:100CB000C801049663E00E94AD10C801059664E087
:100CC0000E94AD10C801069665E00E94AD108FE548
:100CD00091E066E00E94AD1087E591E067E00E9438
:100CE000AD100E94D80F1F910F910895EF92FF92BF
:100CF0000F931F9380ED97E00E949815C7DF58D09F
:100D00000E9431157B018C0101C032D30E94311544
:100D10006E197F09800B910B645F71408040904099
:100D2000A0F38DE191E086D780E890E068E870E07C
:100D300039DB81E990E066E970E034DB8EE990E030
:100D400067EA70E02FDB0E94D80F8FEA90E00E94E4
:100D5000771080E061E00E94AA0F87EB90E00E948C
:100D60007710EEDB84FFFDCF87E291E063D780EC64
:100D700090E068EC70E016DB1F910F91FF90EF9010
:100D80000895B4DF37DBFECF8091B00181508093AE
:100D9000B0018F3F19F483E68093B0010895881F56
:100DA0008827881F08958095881F8827881F0895A1
:100DB0005098589A60E072EC81E090E00E949F1396
:100DC0008EE292E064E60C9436130C94D80F1F93D5
:100DD000182F87FD02C080E01BC08BE491E037D75D
:100DE0000E94D80F8FE491E00E94851080E061E0BE
:100DF0000E94AA0F812F0E94ED0F8091B0018150B7
:100E00008093B0018F3F19F483E68093B00181E0B5
:100E10001F91089580E090E060E070E00E947511FD
:100E20001092A9011092A80108950E9449158CE31F
:100E300090E064EC7FEF0E94751103C081E00E9496
:100E40005F150E9431156A3F710581059105B0F368
:100E500084EC9FEF6CE370E00E94751103C081E0A9
:100E60000E945F150E9431156E5E72408040904076
:100E7000B0F38CE390E064EC7FEF0E94751103C047
:100E800081E00E945F150E943115685E73408040CA
:100E90009040B0F380E090E060E070E00E94751157
:100EA00088E591E061E00C9438148AE591E066E011
:100EB0000E94381480E090E060E070E00E947511BC
:100EC0001092A9011092A8010895A2E0B0E0EBE60B
:100ED000F7E00C94AE1B02D39A838983CE0101966E
:100EE00062E00E9438142296E2E00C94CA1BA2E051
:100EF000B0E0EDE7F7E00C94AE1B9BD29A838983B8
:100F0000CE01019662E00E9438142296E2E00C9431
:100F1000CA1BACE0B0E0EFE8F7E00C94AE1B8091A8
:100F2000A8019091A901892B39F08091AE0190918F
:100F3000AF018053984F05C0CE01039661E00E9437
:100F40004F159A838983CE01019662E00E9438147E
:100F50002C96E2E00C94CA1B8091A8019091A90103
:100F6000892B09F463C08091AB01882321F0809123
:100F7000AD01882329F480E090E060E070E04DC08E
:100F800086EF92E061E00E944F159C01205D3740A2
:100F90008091AE019091AF01A901481B590B30938C
:100FA000AF012093AE018091AC0190E06091AD0162
:100FB000FC014E9FC0014F9F900D5E9F900D11242C
:100FC00070E00E944E1BFB018091AA0190E06091AD
:100FD000AB01AC01249FC001259F900D349F900D63
:100FE000112470E00E944E1B80917201282F30E086
:100FF000E60FF71F2E173F070CF4F90188279927F2
:10100000821B930BBF01E817F9070CF4BC0177FFB3
:1010100006C0CB01820F931FB9010C947511C90151
:10102000861B970BBC01C9010C9475110895882388
:1010300061F08091A8019091A901892B59F486EF64
:1010400092E061E00E94561505C086EF92E061E0F3
:101050000E94631586EF92E06AE00C94381481E0F8
:10106000E6CF80E0E4CF08C05FD60E945013909195
:10107000B001891709F470DF0E9450139091B001FC
:10108000891791F3E92FF0E0E25DFD4FE081892FB0
:101090008F5F8093B001843610F01092B0018E2FD4
:1010A0000895CF92DF92FF920F931F93DF93CF9318
:1010B00000D000D00F92CDB7DEB78E010F5F1F4F6B
:1010C00086E0C82ED12CCC0EDD1ECDDFF82E7FDEC3
:1010D000882301F5F801F1928F01EC15FD05A9F7C0
:1010E00089818F3711F48FEF01C0880F80937201CF
:1010F0008A818093AA018B818093AB018C8180933C
:10110000AC018D818093AD0181E090E09093A901C5
:101110008093A8010F900F900F900F900F90CF9198
:10112000DF911F910F91FF90DF90CF9008950F9363
:101130001F9399DF082F4BDE882341F494DF182F8B
:1011400046DE882319F4802F612F04D71F910F9159
:101150000895FF920F931F9386DFF82E38DE8823C1
:1011600061F410E008C07FDF082F31DE882329F406
:10117000802FCDD71F5F1F15B0F31F910F91FF90E8
:1011800008950F931F93CF93DF936DDF082F1FDE1A
:101190008823B1F4C2E9D2E010E008C0153681F02E
:1011A00062DF899314DE882359F41F5F1017B0F3B0
:1011B000E12FF0E0EE56FD4F108282E992E047D534
:1011C000DF91CF911F910F9108951F934CDF182F3E
:1011D000FEDD882359F41F3719F481E09FEF04C026
:1011E0008EEF1802C00111240E946A111F91089508
:1011F0001F9339DF182FEBDD882359F41F3719F4BB
:1012000081E09FEF04C08EEF1802C00111240E94FC
:1012100047111F9108951F9326DF182FD8DD8823CB
:1012200069F41F3719F48FEF90E006C0812F9927DA
:1012300087FD9095880F991F0E946A111F9108954C
:101240001F9311DF182FC3DD882369F41F3719F4AA
:101250008FEF90E006C0812F992787FD9095880F2A
:10126000991F0E9447111F9108951F9381E05AD53D
:10127000FADE182F873B09F45AC0883B14F5813BEE
:1012800009F445C0823B7CF48638E9F1873824F4C0
:10129000813809F060C035C0873809F43FC0803B11
:1012A00009F059C032C0843BB1F1853B24F4833B43
:1012B00009F051C02EC0853BA9F1863B09F04BC017
:1012C00034C08C3B09F43DC08D3B54F4893B99F10B
:1012D000893B7CF18A3B89F18B3B09F03CC02FC0F4
:1012E000853C09F434C0863C34F4813C61F1823C95
:1012F00009F031C02AC0863C61F1882309F4B8CFD7
:101300002AC0D3DDB5CFADDEB3CFF1DDB1CFDDDDAA
:10131000AFCF37DFADCF81E00E945F1581E090E075
:101320009EDEA6CF0E945C15A3CFF3DDA1CF40D6F1
:101330009FCF0FDF9DCFFBDE9BCF77DD99CFB1DE57
:1013400097CF68DD95CF7CDF93CF52DF91CF63DFFE
:101350008FCF3BDF8DCF2CD681E691E0D6D680E0D3
:1013600061E0F8D5812F39D689E691E070D480CF3D
:101370000E945013882309F078CF0895EF92FF92CE
:101380000F931F93982F803278F487E880937A0028
:1013900080917C0080648076892B80937C00809192
:1013A0007A00806480937A0080917A0086FDFCCF79
:1013B000FB01EE24FF24870180917A0080648093F2
:1013C0007A0080917A0086FDFCCF80917C0085FFB9
:1013D00004C08091790090E004C0809178009091E1
:1013E0007900A0E0B0E0E80EF91E0A1F1B1F31973C
:1013F00019F7CB01969587956034710538F48E0DF9
:101400009F1D70E00E943A1B9B010DC0A0E0B0E060
:10141000E80EF91E0A1F1B1F9B0140E050E0C801A7
:10142000B7010E94611BC9011F910F91FF90EF90BE
:10143000089587E064E170E0A1CFA0E0B0E02091E2
:1014400073013091740140E050E0BC01CD010E9475
:101450000F1B9B01AC0180917C0085FF0BC0B90183
:10146000CA0161587F4F8F4F9F4F2FEF30E040E010
:1014700050E00AC0B901CA0161507E4F8F4F9F4FA3
:101480002FEF33E040E050E00E94611BC901089556
:1014900075DFD3CF1F9310917C0080917C008F7DEE
:1014A00080937C0086E06AE070E0F2DFAC0115FD1D
:1014B00004C080917C008F7D03C080917C0080629D
:1014C00080937C009A01220F331F240F351F2F5F5A
:1014D0003F4F36952795C9011F910895DBCF089599
:1014E00080917501882339F020E08091B2019091BC
:1014F000B301892B09F021E0822F089510926F002B
:10150000E1E8F0E08081887F8160808380E197E27C
:10151000909389008093880010928B0010928A002B
:1015200081E0809375011092B3011092B201089589
:10153000A0E0B0E0EEE9FAE00C94A61BFC015B0130
:10154000C42E8091B1018823C9F481E08093B10158
:1015500010926F0083E28093800081E1809381008C
:101560001092820080E197E2909389008093880036
:1015700010928B0010928A00229A78941092750132
:10158000F7FD03C0DD24D39403C0FF772AE0D22EF9
:1015900080918100082F10E0087F107088ECD89EA1
:1015A000C00111248E179F07C0F4EF0187E2E131DB
:1015B000F80710F0C0E1D7E2BE017695679580E0AC
:1015C00090E06058794687469F4F9E0140E050E08A
:1015D0000E94611B7901016024C088E2D89E802DA1
:1015E0001124C82FD0E0CE17DF0708F4EF01BE01A9
:1015F000769567959E0140E050E08AE0D81639F470
:1016000080E090E0605E734481449F4F06C080E0BC
:1016100090E060537D4E8C4E9F4F0E94611B79017C
:1016200002608AE0D81639F4CE0105966AE070E0CF
:101630000E943A1BEB0183E0C83ED80711F4B501C4
:101640000FC0BE0180E090E0950140E050E00E94B4
:101650000F1B28EE33E040E050E00E94831BB901ED
:1016600010926F0000938100F0928900E092880050
:10167000E0918800F0918900AC2DA03108F0AFE036
:1016800080E190E08A1B910902C0F695E7958A9562
:10169000E2F7F0938B00E0938A007093B9016093B6
:1016A000B80186B38FEF86BB81E080936F00CDB722
:1016B000DEB7EAE00C94C21B3BCF0895CF93DF93D3
:1016C000EB018F3F11F0442329F488EE93E0BE0133
:1016D00040E067C0813110F420E005C0282F205180
:1016E000203608F02FE5822F6CE00E942E1B382F49
:1016F000682F70E084EF9FEF689FF001699FF00D05
:10170000789FF00D1124E20FF11DEC30F10538F453
:10171000EC5CFF4F0C94D51B8CE991E023C080E07A
:1017200090E020C085EB91E01DC08FEC91E01AC0E5
:101730008AEE91E017C087E092E014C086E292E062
:1017400011C087E492E00EC089E692E00BC08EE8FB
:1017500092E008C085EB92E005C08EED92E002C0F9
:101760008AE093E0373071F002C0880F991F6A95C4
:10177000E2F7323020F005966AE070E00BC080504E
:1017800090480BC036E0880F991F3A95E1F7029612
:1017900065E070E00E943A1BCB01403108F04FE059
:1017A000BE01C6DEDF91CF9108953091B601E09180
:1017B000B201F091B301332311F0249101C02081D3
:1017C000822F81548A3108F4205E203259F48091AE
:1017D000B2019091B30101969093B3018093B2014D
:1017E000019729F7822F0895CF93DF93DEDF282F0B
:1017F000C0E0D0E01CC0CE0153E0880F991F5A957D
:10180000E1F7CC0FDD1FC80FD91F822F992787FD65
:101810009095C80FD91FE0978091B2019091B301C4
:1018200001969093B3018093B201BFDF282F822FDE
:1018300080538A3000F3CE01DF91CF910895A0E06C
:10184000B0E0E5E2FCE00C94A41B80907601B0903F
:10185000B401BB2021F06091B501662399F4A090FA
:10186000B50100917B0110917C01E0907701F0902F
:101870007801C0917901D0917A01C0907D01D0901A
:101880007E0103C18FEF70E040E018DF1092B501D8
:10189000C0C194E0892EBB2404EF11E084E0E82E5F
:1018A000F12CC0EDD7E0B4E09B2EAFE0CA2ED12CD6
:1018B0007CDF282F8091B2019091B3010196909323
:1018C000B3018093B201263609F498C02736CCF4D0
:1018D0002236A1F1233674F42E3361F12F3334F420
:1018E0002132B9F22C3309F006C126C0213609F0A5
:1018F00002C11CC1243609F451C025360CF066C063
:1019000035C02F3609F4BFC0203754F42C3609F403
:10191000A5C02D3609F4A5C0273609F0ECC086C055
:10192000243709F4CEC0263709F4E2C0223709F083
:10193000E2C0ADC08394BCCF8A94BACFA092B50167
:10194000B092B40110937C0100937B01F092780176
:10195000E0927701D0937A01C09379019092760159
:10196000D0927E01C0927D012BE0F7C0A092B5011C
:10197000B092B40110937C0100937B01F092780146
:10198000E0927701D0937A01C09379019092760129
:10199000D0927E01C0927D0120E0DFC0A092B5010F
:1019A000B092B40110937C0100937B01F092780116
:1019B000E0927701D0937A01C093790190927601F9
:1019C000D0927E01C0927D0122E0C7C0A092B501F5
:1019D000B092B40110937C0100937B01F0927801E6
:1019E000E0927701D0937A01C093790190927601C9
:1019F000D0927E01C0927D0124E0AFC0A092B501DB
:101A0000B092B40110937C0100937B01F0927801B5
:101A1000E0927701D0937A01C09379019092760198
:101A2000D0927E01C0927D0125E097C0A092B501C1
:101A3000B092B40110937C0100937B01F092780185
:101A4000E0927701D0937A01C09379019092760168
:101A5000D0927E01C0927D0127E07FC0C5DE7C016F
:101A600041C0A3DE8C3611F4BB2403C0AA24BB24DE
:101A7000B3948091B2019091B30101969093B30118
:101A80008093B20115CFB0DE882E982C11CFA09292
:101A9000B501B092B40110937C0100937B01F092E8
:101AA0007801E0927701D0937A01C0937901909206
:101AB0007601D0927E01C0927D0120E0FF24F39454
:101AC0004DC092DEBC0180EC9DE50E943A1BCB012B
:101AD000EB01F3E0CC0FDD1FFA95E1F7880F991FBA
:101AE000C80FD91FCE01B7010E943A1B8B01E0CE6F
:101AF0007BDE6C01DDCEA092B501B092B4011093F3
:101B00007C0100937B01F0927801E0927701D09301
:101B10007A01C093790190927601D0927E01C092B1
:101B20007D011092B3011092B20173C0A092B50171
:101B3000B092B40110937C0100937B01F092780184
:101B4000E0927701D0937A01C09379019092760167
:101B5000D0927E01C0927D0129E0FF248CE0889E16
:101B6000C0011124E22EE80E0AC08091B2019091CA
:101B7000B30101969093B3018093B201E39415DE13
:101B80008B3299F3833289F30BC08091B20190912B
:101B9000B30101969093B3018093B201EA9405DEFC
:101BA0008D3299F3C0917B01D0917C0181538830B3
:101BB00050F40091790110917A0116DEBC01C80140
:101BC0000E943A1BEB018E010BC08091B2019091F3
:101BD000B30101969093B3018093B201C00FD11F5E
:101BE00016950795E2DD8E3281F38091B40188234A
:101BF00039F0CE01969587958093B501C81BD10920
:101C0000FF2011F0EE24EA948E2DBE0140917D015B
:101C100055DDCDB7DEB7ECE00C94C01B10926F0021
:101C20009093B3018093B20181E08093B60110924A
:101C3000B50105CEF3CF089510926F009093B301D4
:101C40008093B2011092B6011092B501F8CDF4CF95
:101C500008951F920F920FB60F9211242F933F9366
:101C60004F935F936F937F938F939F93AF93BF93A4
:101C7000EF93FF938091B8019091B90101979093F0
:101C8000B9018093B801019609F510926F0078941C
:101C900080918100887F81608093810080E197E25C
:101CA000909389008093880010928B0010928A0094
:101CB00081E0809375018091B2019091B301892BED
:101CC00029F08091B701882309F4B9DDFF91EF91E4
:101CD000BF91AF919F918F917F916F915F914F9144
:101CE0003F912F910F900FBE0F901F9018958091EC
:101CF0007501882339F08091B2019091B301892B4D
:101D000009F09DDD20E08091B2019091B301892B13
:101D100009F021E0822F08958093B701882309F408
:101D2000E6CF0895F9CF0895E2CF0895EF92FF929C
:101D30000F931F936AB157985A98289AE090BE0162
:101D4000F090BF010091C0011091C10120E030E08E
:101D500041E050E0CA016F9364E06A95F1F76F913A
:101D60000197C9F75C9ACA016F9364E06A95F1F72D
:101D70006F910197C9F789B15C98FA016F9364E09C
:101D80006A95F1F76F913197C9F75C9AFA016F93F1
:101D900064E06A95F1F76F913197C9F75C9887FF16
:101DA0000BC02C5F3F4FC901A0E0B0E08E159F052E
:101DB000A007B10708F4CECF6AB91F910F91FF9029
:101DC000EF90089565B190E0AC0141705070440F00
:101DD000551F9C012670307053E0220F331F5A9517
:101DE000E1F7422B6D7C462B45B92BB18870907082
:101DF00034E0880F991F3A95E1F72F77282B2BB9FC
:101E00005C9A81E090E0FC016F9364E06A95F1F7E1
:101E10006F913197C9F75C986F9364E06A95F1F719
:101E20006F910197C9F7089580E197E2A0E0B0E0D3
:101E30008093BE019093BF01A093C001B093C101F4
:101E4000529A209A549A8EE190E0C7D583E087D1C8
:101E500086E090E0C2D583E082D182E090E0BDD5FB
:101E600083E07DD182E090E0B8D582E078D182E055
:101E700090E0B3D588E241D088E03FD081E03DD00A
:101E800086E03BD08CE039C08091C201882321F4E8
:101E900081E08093C201C8CF0895BF92CF92DF92B4
:101EA000EF92FF920F931F93082F162FF42EECDF63
:101EB0003DDFB4B0C5B0DAB0EBB02898112311F013
:101EC0005A9A01C05A9884B1826384B9579A81E0C2
:101ED000F81621F0802F82958F7074DF802F8F701D
:101EE00071DFDAB8EBB8B4B8C5B81F910F91FF90A5
:101EF000EF90DF90CF90BF90089560E042E0CDCFAB
:101F00008CE0FBCFFDCF0895813011F48FE001C04C
:101F10008EE0F3CFF9CF0895A4E0B0E0E2E9FFE06E
:101F20000C94AC1B182F062F80E8898380EC8A83E1
:101F300084E98B8384ED8C83FE01E60FF11D8181A2
:101F4000810FDBDF1093BD010093BC012496E4E018
:101F50000C94C81BE1CF089581E0CFDF8091BA01D6
:101F60009091BB01892B19F160E070E208C0E0910B
:101F7000BA01F091BB01E40FF51F70836F5F462F2C
:101F800050E080917F0190E001972091800130E046
:101F9000FC01E29FC001E39F900DF29F900D112480
:101FA0004817590724F31092BD011092BC010895FF
:101FB000D3CF089561E042E070CF8A3010F4805DA5
:101FC00001C0895CF7CF1F93182F82958F70F5DFC2
:101FD000812F8F70F2DF1F910895F5CF08956F92D2
:101FE0007F928F929F92AF92BF92CF92DF92FF9299
:101FF0000F93DF93CF93CDB7DEB72A970FB6F89440
:10200000DEBF0FBECDBF5B016C010AE03E0108944C
:10201000611C711CFA2CC601B5012AE030E040E0D9
:1020200050E00E94611BC901DA015C016D010150A1
:102030004301800E911C80E3F80EC601B5012AE031
:1020400030E040E050E00E940F1BF61AF401F082ED
:10205000A114B104C104D104E9F607C0F601E00FF0
:10206000F11D8081A7DF0F5F04C06E010894C11CC1
:10207000D11C0A3098F32A960FB6F894DEBF0FBE33
:10208000CDBFCF91DF910F91FF90DF90CF90BF90A8
:10209000AF909F908F907F906F900895EF92FF92F6
:1020A0000F931F937B018C0197FF0AC01095009539
:1020B000F094E094E11CF11C011D111D8DE27ADF0A
:1020C000C801B7018CDF1F910F91FF90EF90089529
:1020D000E5CF0895CF93DF93EC0102C06BDF21962B
:1020E000FE0184918823D1F7DF91CF910895F2CF3B
:1020F0000895CF93DF93EC0102C021965BDF8881C6
:102100008823D9F7DF91CF910895F3CF089552CF67
:102110000895EF92FF920F931F93CF93DF937C016B
:10212000062F10E0F3E0000F111FFA95E1F7C0E071
:10213000D0E09E01200F822F8064DFDEF701EC0FDC
:10214000FD1FE4918E2F36DF2196C830D10589F727
:10215000CDB7DEB7E6E00C94C61BDBCF089560E098
:1021600041E09BCE282F883068F481E090E002C0E7
:10217000880F991F2A95E2F7282FAAE2B0E0EBE238
:10218000F0E029C08E3080F430E02850304081E00B
:1021900090E002C0880F991F2A95E2F7282FA4E249
:1021A000B0E0E5E2F0E017C0853130F020E0A0E0DB
:1021B000B0E0E0E0F0E00FC030E02E50304081E0D1
:1021C00090E002C0880F991F2A95E2F7282FA7E216
:1021D000B0E0E8E2F0E06F3F19F48081822709C0A7
:1021E000662319F08081822B04C09081822F809514
:1021F000892380838C91822B8C930895E0EBF0E00F
:1022000083EF8083808184BDE1EBF0E082E0808316
:10221000808185BDE4EBF0E010828081E3EBF0E0AB
:102220008083808188BD88B587BD86E060E09ADFC5
:1022300085E060E097DF8BE060E094DF83E060E0C2
:1022400091CF8091C301882321F481E08093C30161
:10225000D5CF0895CF93DF93EC01F3DFD7FD02C014
:1022600020E004C0D095C195DF4F21E0CE01CF3FE3
:10227000D10519F014F08FEF90E0222319F018BC6B
:1022800087BD02C088BD17BCDF91CF910895E2CF12
:102290000895CF93DF93EC01D4DFD7FD02C020E097
:1022A00004C0D095C195DF4F21E0CE01CF3FD105CD
:1022B00019F014F08FEF90E0222329F01092B4006F
:1022C0008093B30004C08093B4001092B300DF91F8
:1022D000CF910895DECF08950F931F938B01BADF3E
:1022E000C801D7DF1F910F910895F6CF0895282FC9
:1022F0008091C401882391F481E08093C40184B16A
:102300008D7C84B985B1826385B985E090E06F9357
:1023100064E06A95F1F76F910197C9F783B18095F1
:10232000822308950F931F93082F13B19AD3AB0103
:10233000BC018091C401882391F481E08093C401A1
:1023400084B18D7C84B985B1826385B985E090E0E4
:102350006F9364E06A95F1F76F910197C9F78091E7
:10236000CA01813011F1813038F0823009F443C064
:10237000833009F089C065C0202F30E0812F90E0C4
:102380008095909528233923232B09F47DC010953F
:1023900010231093C5014093C6015093C701609369
:1023A000C8017093C90181E06DC08091C601909110
:1023B000C701A091C801B091C901481B590B6A0B14
:1023C0007B0B4F3051056105710508F45DC04091EC
:1023D000C501812F90E080959095242F30E08223D5
:1023E0009323892B59F182E08093CA01109514231D
:1023F0001093C50149C0E091C501AE2FB0E0212F77
:1024000030E0CD0182239323892B79F083E0809300
:10241000CA01E123E093C5014093C6015093C7016F
:102420006093C8017093C9012FC0802F90E0209560
:10243000309582239323A817B90731F11092CA016E
:1024400023C08091C6019091C701A091C801B091AD
:10245000C901481B590B6A0B7B0B4F3051056105B5
:10246000710590F04091C501842F90E0212F30E05C
:1024700082239323892B29F01092CA01842F812370
:1024800004C082E08093CA0180E01F910F910895FB
:1024900049CF08950F931F93082F13B11095E1D2E0
:1024A000AB01BC018091C401882391F481E0809349
:1024B000C40184B18D7C84B985B1826385B985E01E
:1024C00090E06F9364E06A95F1F76F910197C9F717
:1024D0008091D001813011F1813038F0823009F4DF
:1024E00043C0833009F089C065C0202F30E0812FC0
:1024F00090E08095909528233923232B09F47DC003
:10250000109510231093CB014093CC015093CD0133
:102510006093CE017093CF0181E06DC08091CC01BA
:102520009091CD01A091CE01B091CF01481B590BE4
:102530006A0B7B0B4F3051056105710508F45DC0D6
:102540004091CB01812F90E080959095242F30E031
:1025500082239323892B59F182E08093D001109537
:1025600014231093CB0149C0A091CB01212F30E05F
:10257000EA2FF0E0C9018E239F23892B79F083E0B5
:102580008093D0011A231093CB014093CC01509338
:10259000CD016093CE017093CF012FC0802F90E0CA
:1025A0002095309582239323E817F90731F1109293
:1025B000D00123C08091CC019091CD01A091CE019A
:1025C000B091CF01481B590B6A0B7B0B4F30510563
:1025D0006105710590F04091CB01812F90E0242F8F
:1025E00030E082239323892B29F01092D001812F90
:1025F000842304C082E08093D00180E01F910F917A
:10260000089548CF08951F93CF93DF93182F80919B
:10261000C401882391F481E08093C40184B18D7C4E
:1026200084B985B1826385B985E090E06F9364E0F9
:102630006A95F1F76F910197C9F7C12FD0E083B187
:1026400090E08C239D23892BD1F38AE090E0C5D1C3
:1026500083B190E08C239D23892B89F383B181235F
:10266000DF91CF911F910895CECF08952091C100A1
:102670002F772093C1009093DA018093D9011092B3
:10268000D3016093D50181E08093D6018091D1017F
:10269000882329F48091C10080688093C100089547
:1026A0008091D30108952091D101222311F488E96A
:1026B00001C088E18093C1008091D7019091D80139
:1026C000892B79F09091D2018091D401981748F428
:1026D000222339F48091C10080628093C1007894F4
:1026E00008958091C1008F7DF8CFEF92FF920F93F4
:1026F0001F937B018C0180E0D6DF60EA75E286E201
:1027000090E06E197F09800B910B33E0660F771F05
:10271000881F991F3A95D1F724E0EE0CFF1C001F8B
:10272000111F2A95D1F7A8019701CBD73093C50087
:102730002093C4001F910F91FF90EF900895D5CF83
:1027400008958091C1008F7D8093C100E091D701F1
:10275000F091D801309709F45DC08091D201909139
:10276000D401891708F05AC08091C00085FF56C077
:102770008091D201E80FF11D80818093C600809185
:10278000D2018F5F8093D20149C08091D10188230B
:1027900009F040C08091C10080628093C1008091A7
:1027A000C1008F778093C100E091D901F091DA01E7
:1027B000309731F18091D3019091D501891700F5BF
:1027C0008091C00087FF1CC02091C6008091D3017A
:1027D000891750F48091D301E80FF11D2083809177
:1027E000D3018F5F8093D3019091D3018091D50164
:1027F000981731F48091D601882311F01092D301FB
:102800008091D101882379F48091C1008068809300
:10281000C10008958091C1008F7DBFCF8091D2010A
:102820008917C0F7B2CF08959093D8018093D7014C
:102830001092D2016093D401892BA1F08091D20132
:10284000861780F48091D101882361F48091C100C2
:1028500080620BC076DF9091D2018091D4019817ED
:10286000C9F708958091C1008F7D8093C100F3CF97
:10287000DBCF08951F920F920FB60F9211242F9362
:102880008F939F93EF93FF932091C600E091D9011E
:10289000F091DA01309781F09091D3018091D501C8
:1028A000981750F48091D301E80FF11D2083809197
:1028B000D3018F5F8093D3019091D3018091D50193
:1028C000981731F48091D601882311F01092D3012A
:1028D000FF91EF919F918F912F910F900FBE0F90CD
:1028E0001F9018951F920F920FB60F9211248F937D
:1028F0009F93EF93FF93E091D701F091D801309728
:10290000F9F08091D2019091D401891738F5809126
:10291000C00085FF23C08091D201E80FF11D8081A6
:102920008093C6008091D2018F5F8093D20116C040
:102930008091D101882321F48091C100806203C07D
:102940008091C1008F7D8093C100FF91EF919F9195
:102950008F910F900FBE0F901F9018958091D2010C
:10296000891770F7E5CF2F928F939F932FB68091A1
:10297000DC019091DD0101968093DC019093DD01F3
:1029800090E08091DE01891F8093DE019091E40147
:102990009C5F9093E4018091E30180519742C0F0E5
:1029A0009093E4018093E3018091DF019091E00135
:1029B00001968093DF019093E00190E08091E10126
:1029C000891F8093E1018091E201891F8093E201D8
:1029D0002FBE9F918F912F90189528EE33E009C05C
:1029E000F9016F9364E06A95F1F76F913197C9F738
:1029F00001970097A9F70895A0E7B0E08C918E7F2A
:102A00008C93E0EBF0E0808183608083E1EBF0E089
:102A10008081807F8083808182608083B89A8C915E
:102A200081608C93789408958091E501882321F446
:102A300081E08093E501E0CF0895F6DFE0E7F0E084
:102A400080818E7F80832091DF013091E001409171
:102A5000E1015091E201808181608083B901CA0166
:102A60000895EBCF0895E0DFE0E7F0E080818E7F0E
:102A700080831092DF011092E0011092E101109228
:102A8000E2011092E4011092E30180818160808371
:102A90000895E9CF0895089586EE91E089C49C01D8
:102AA000462F86EE91E0B90120E0FAC39C01462F43
:102AB00086EE91E0B9013CC386EE91E0A0C0682F9C
:102AC00086EE91E08CC59C01462F86EE91E0B9011F
:102AD00096C20F93DF93CF9300D000D00F92CDB763
:102AE000DEB79C01962FDE011196E1E8F1E085E06A
:102AF00001900D928150E1F7BE016F5F7F4F9923E6
:102B000029F086EE91E045E00FEF04C086EE91E0FB
:102B100045E003E1BED086EE91E059D0A4DF0F90EE
:102B20000F900F900F900F90CF91DF910F9108951C
:102B300060E0CFCFFC0111821082138212821582D5
:102B4000148217821682613118F080E1808701C0FB
:102B50006087208B483060F481E090E002C0880FED
:102B6000991F4A95E2F74AE250E02BE230E029C093
:102B70004E3080F4242F30E02850304081E090E047
:102B800002C0880F991F2A95E2F744E250E025E23F
:102B900030E017C0453130F080E040E050E020E008
:102BA00030E00FC0242F30E02E50304081E090E024
:102BB00002C0880F991F2A95E2F747E250E028E209
:102BC00030E0818733872287558744870895DC0169
:102BD0001C96ED91FC911D97309781F0808119969C
:102BE0009C911997892B80831A96ED91FC911B97E4
:102BF000908119968C918095892380830895DC01BA
:102C000020E040C0ED91FC911197309761F0822F48
:102C100090E0880F991FE80FF91F1E968D919C91E7
:102C20001F97918380831496ED91FC9115973097AF
:102C300061F0822F90E0880F991FE80FF91F1E9610
:102C40008D919C911F97918380831296ED91FC91B9
:102C50001397309741F0822F90E0880F991FE80F6B
:102C6000F91F118210821696ED91FC9117973097FB
:102C700041F0822F90E0880F991FE80FF91F118211
:102C800010822F5F18968C911897281708F4BACFE6
:102C90000895A0E0B0E0EEE4F6E158C5EC015B0178
:102CA000642F7901402F20E045DFCE018F5B9F4FDD
:102CB000FC011082DE01AE5BBF4F1C92FE01ED5B9A
:102CC000FF4F1082FF86EE8640E061E070E06F010A
:102CD0007D018C014EC0F501E40FF11D808188302B
:102CE00050F49B0102C0220F331F8A95E2F7922F06
:102CF00029E230E01FC08E3060F490E00897FB01BD
:102D000002C0EE0FFF1F8A95E2F79E2F23E230E00C
:102D100011C0853120F090E020E030E00BC090E061
:102D20000E979B0102C0220F331F8A95E2F7922F64
:102D300026E230E0E42FF0E0DE01AE0FBF1F519637
:102D40009C93EE0FFF1FEC0FFD1F32A321A3233234
:102D5000310511F4F80109C02632310511F4F701EB
:102D600004C02932310521F4F6018081982B90832B
:102D70004F5F8885481708F4AECFCDB7DEB7EAE0DD
:102D800001C5A0E0B0E0E6ECF6E1DEC4EC015B01D9
:102D9000CF5BDF4F4991A9918880C354D04090E028
:102DA00009C0E92FF0E0EE0FFF1FEA0DFB1D1182B5
:102DB00010829F5F88859817A0F384B1CF5BDF4FA7
:102DC0003991832B84B987B12991822B87B98AB134
:102DD0009881C354D040892B8AB985B1832B85B99A
:102DE00088B1822B88B98BB1892B8BB9EAE0F0E0EE
:102DF0006F9364E06A95F1F76F913197C9F784B1E9
:102E00003095832384B987B12095822387B98AB10D
:102E1000909589238AB985B1382335B988B128239B
:102E200028B98BB198239BB99090B000C090B100A5
:102E30008091B00083608093B00082E08093B10005
:102E4000D090B20060E070E03AC05091B2005D19DD
:102E5000650F711DE3B0E41609F04FC0F6B0FA1625
:102E600009F04BC089B1881509F047C025C0A42FCF
:102E7000B0E09D01220F331F8501020F131FF801DF
:102E800080819181892BA1F42C0F3D1FF90181A133
:102E900092A1FC01208130E0AC0FBD1F51968C91B6
:102EA00090E028233923232B19F4F80171836083E0
:102EB0004F5F88854817D8F2D50E4E2DAF2D8E85E1
:102EC0009F856817790708F29092B000C092B10010
:102ED00020E00FC0E22FF0E0EE0FFF1FEA0DFB1D18
:102EE00080819181892B21F48E859F8591838083B8
:102EF0002F5F8885281770F305C0E3B0F6B089B05E
:102F000040E0D7CFCDB7DEB7ECE03AC4A0E0B0E008
:102F1000EBE8F7E11DC4EC018B01D0907C00E09060
:102F20007A00C7B0F8B080917A0086FDFCCF90E0BF
:102F300009C0E92FF0E0EE0FFF1FE00FF11F118233
:102F400010829F5F88859817A0F397B18AA180951A
:102F5000982397B998B1892388B987E880937A0034
:102F600050E025C0FE01E40FF11D8189806480934B
:102F70007C0080917A00806480937A0080917A004E
:102F800086FDFCCFE42FF0E0EE0FFF1FE00FF11FF6
:102F9000209178003091790080819181820F931F78
:102FA000918380834F5F88854817E0F25F5F89A136
:102FB000581710F040E016C040E0F5CFE42FF0E0E5
:102FC000EE0FFF1FE00FF11F69A1862F90E095958E
:102FD000879520813181820F931F70E04BD37183DD
:102FE00060834F5F8885481748F3D0927C00E09259
:102FF0007A00F8B8C7B8CDB7DEB7E8E0C5C3A0E23D
:10300000B0E0E4E0F8E1A3C38C017B01D42E842F6F
:1030100081508230B0F4D8011C96ED91FC911D973F
:10302000309779F0808119969C911997892B80832C
:103030001A96ED91FC911B97808119969C91892B92
:103040008083F8018089882339F5C02EB12EC8010C
:10305000B70197DED8011C96ED91FC911D97309732
:1030600081F0808119969C911997892B80831A96FB
:10307000ED91FC911B97908119968C9180958923F5
:103080008083B2E0DB1609F050C08C2D9B2DBE0171
:103090006F5F7F4F76DE25C0C02EB12EC801B7010D
:1030A00035DFD8011C96ED91FC911D97309781F08A
:1030B000808119969C911997892B80831A96ED919E
:1030C000FC911B97908119968C9180958923808320
:1030D000B2E0DB1651F58C2D9B2DBE016F5F7F4F4B
:1030E00015DF40E0BE016F5F7F4F1AC0E42FF0E0B4
:1030F000EE0FFF1F6701CE0EDF1EE60FF71FD80190
:103100001E962D913C911F9780819181281B390B30
:10311000F60180819181820F931F918380834F5F9D
:10312000D80118968C91481708F3A096E9E02BC3B4
:10313000A0E0B0E0EDE9F8E108C3EC01162F072F9D
:10314000942E22E0421711F0442351F48C819D818A
:10315000892B09F4A1C08E819F81892B09F49CC021
:10316000892D8150823050F488819981892B09F40E
:1031700093C08A819B81892B09F48EC0CE01612F77
:10318000702F492D3CDF812F902F9C015901CC24B9
:10319000DD2400E010E07AC081E0981669F4EA814D
:1031A000FB81E00FF11F20813181E881F981E00F7F
:1031B000F11F408151813DC0AC81BD81992059F4FE
:1031C000EE81FF81E00FF11F20813181A00FB11F3F
:1031D0004D915C912EC0A00FB11F8D919C91E88103
:1031E000F981E00FF11F20813181EE85FF85821783
:1031F000930710F4AF0105C0A9014E0F5F1F481BD4
:10320000590BEE81FF81E00FF11F60817181EA812E
:10321000FB81E00FF11F80819181EE85FF856817AA
:10322000790710F49F0105C09C012E0F3F1F261B3C
:10323000370B7901E41AF50AF1F0F501608171812B
:1032400080E090E09A0140E050E0621B730B840B39
:10325000950B28EE33E040E050E0E1D1970140E0EB
:1032600050E051D2C901F3E0293E3F0714F088EE47
:1032700093E097FF02C080E090E0F5018193919385
:103280005F010894C11CD11C0E5F1F4F888590E020
:10329000C816D9060CF480CFCDB7DEB7EBE071C20B
:1032A000A4E0B0E0E5E5F9E149C28C01F62EE72E95
:1032B0002A833EDFD8011896BC91B9832F2D3E2D6D
:1032C000C9018C01552444246624772443011C82BF
:1032D0001B82AA24BB246501B8EE2B2EB3E03B2E43
:1032E00031C0F801E080F180FA81FF2321F0C101B3
:1032F0008E199F097C0199ECE916F10414F044241D
:103300004394A3E3EA16F10494F0B701882777FD0C
:103310008095982FA601950182D1660E771E881E92
:10332000991EEB81FC81EE0DFF1DFC83EB83539412
:1033300088EE93E0A0E0B0E0A80EB91ECA1EDB1E26
:103340000E5F1F4F9981591660F2442009F5492FED
:1033500050E04150504084EF91E0489F9001499FD8
:10336000300D589F300D112480912A0290912B022C
:10337000821793071CF420E030E016C088EE93E03B
:10338000489F9001499F300D589F300D11240CC06B
:10339000AB81BC819D0140E050E0C401B30191D1FB
:1033A00020932A0230932B02C9012496E2E1E2C164
:1033B000CF93DF93EC018A819B81009709F0A8D21B
:1033C0008E819F81009709F0A3D28881998100970F
:1033D00009F09ED28C819D81009709F099D2DF91EE
:1033E000CF910895A3E6B0E0E7EFF9E1A7C17C0132
:1033F0005B016A01A2962FAFA297DA018D919C9191
:10340000892B09F5F701808590E0880F991FD3D1AA
:10341000D6018D939C93009709F4DDC020E030E045
:103420000CC0C901880F991FD601ED91FC91E80FDE
:10343000F91F118210822F5F3F4FF701808590E0C6
:103440002817390774F3D5018D919C91892B89F048
:1034500000E010E03E010894611C711C41E4242E40
:10346000312C2C0E3D1E31E2432E512C4C0E5D1E94
:1034700027C0F701808590E0880F991F9CD1D50166
:103480008D939C93009709F4A6C020E030E011C012
:10349000C901880F991FD501ED91FC91E80FF91F23
:1034A000D7011E968D919C911F97918380832F5FEA
:1034B0003F4FF701808590E0281739074CF3C8CFBC
:1034C000C701B301A2964FADA29799DDD701189617
:1034D0008C91882E9924A101F301A4965FAE4EAE83
:1034E000A49760E070E034C00115110559F0A4966E
:1034F000AEADBFADA4972D913C91808191812817ED
:10350000390758F480819181A496AEADBFADA497E0
:103510008D939C930115110541F0DA012D913C9199
:10352000808191818217930728F480819181DA014B
:103530008D939C936F5F7F4F4E5F5F4F3296A49643
:103540008EAD9FADA4970296A4969FAF8EAFA49721
:10355000681579054CF20F5F1F4F0A30110509F00D
:10356000AFCF40E050E020E030E08E010F5B1F4F16
:10357000BE016F5D7F4F28C0F801E20FF31F80800E
:103580009180F601A081B181A20FB31F8D919C9112
:1035900011978815990510F48D929C92FB01E20F0A
:1035A000F31F80809180F501A081B181A20FB31F2C
:1035B0008D919C9111978816990610F48D929C928A
:1035C0004F5F5F4F2E5F3F4FD70118968C9190E071
:1035D000481759078CF2CD59DF4FE2E1CBC01F935A
:1035E000CF93DF93EC01162F862F8150823038F471
:1035F000AE014E5F5F4FCE01BE0121E0F3DE12301F
:1036000011F0112341F4AE014A5F5F4FCE012496C1
:10361000BE0120E0E7DEDF91CF911F910895629F08
:10362000D001739FF001829FE00DF11D649FE00DBA
:10363000F11D929FF00D839FF00D749FF00D659F1B
:10364000F00D9927729FB00DE11DF91F639FB00D1A
:10365000E11DF91FBD01CF0111240895991B79E0E7
:1036600004C0991F961708F0961B881F7A95C9F712
:1036700080950895AA1BBB1B51E107C0AA1FBB1F61
:10368000A617B70710F0A61BB70B881F991F5A95EE
:10369000A9F780959095BC01CD01089597FB092E5F
:1036A00007260AD077FD04D0E5DF06D000201AF403
:1036B000709561957F4F0895F6F7909581959F4F8E
:1036C0000895A1E21A2EAA1BBB1BFD010DC0AA1F63
:1036D000BB1FEE1FFF1FA217B307E407F50720F07B
:1036E000A21BB30BE40BF50B661F771F881F991FF6
:1036F0001A9469F760957095809590959B01AC013F
:10370000BD01CF01089597FB092E05260ED057FD68
:1037100004D0D7DF0AD0001C38F45095409530957E
:1037200021953F4F4F4F5F4F0895F6F79095809545
:10373000709561957F4F8F4F9F4F08952F923F92C5
:103740004F925F926F927F928F929F92AF92BF92B1
:10375000CF92DF92EF92FF920F931F93CF93DF935D
:10376000CDB7DEB7CA1BDB0B0FB6F894DEBF0FBEBA
:10377000CDBF09942A88398848885F846E847D8407
:103780008C849B84AA84B984C884DF80EE80FD8009
:103790000C811B81AA81B981CE0FD11D0FB6F8947F
:1037A000DEBF0FBECDBFED010895EE0FFF1F0590E8
:1037B000F491E02D0994CF93DF93BC018230910501
:1037C00010F462E070E0A0910203B0910303ED01F8
:1037D000E0E0F0E040E050E021C088819981861768
:1037E000970769F48A819B81309719F093838283CC
:1037F00004C09093030380930203FE0134C0681752
:10380000790738F44115510519F08417950708F424
:10381000AC01FE018A819B819C01E9012097E9F6B8
:1038200041155105A9F1CA01861B970B049708F4AD
:10383000BA01E0E0F0E02AC08D919C9111978417C5
:103840009507F9F46417750781F412968D919C9190
:103850001397309719F09383828304C090930303E6
:1038600080930203FD0132964FC0CA01861B970B5D
:10387000FD01E80FF91F6193719302978D939C935B
:1038800043C0FD01828193819C01D9011097A1F66B
:103890008091000390910103892B41F4809188016C
:1038A00090918901909301038093000340918A01D4
:1038B00050918B014115510541F44DB75EB7809190
:1038C000860190918701481B590B2091000330918C
:1038D000010324173507B0F4CA01821B930B861726
:1038E000970780F0AB014E5F5F4F8417950750F04C
:1038F000420F531F5093010340930003F90161935A
:10390000719302C0E0E0F0E0CF01DF91CF91089524
:10391000CF93DF93009709F450C0EC0122971B82EC
:103920001A82A0910203B0910303109709F140E0BD
:1039300050E0AC17BD0708F1BB83AA83FE012191BB
:103940003191E20FF31FAE17BF0779F48D919C916F
:103950001197280F391F2E5F3F4F39832883129606
:103960008D919C9113979B838A834115510571F426
:10397000D0930303C093020320C012968D919C91B3
:103980001397AD01009711F0DC01D3CFFA01D38377
:10399000C28321913191E20FF31FCE17DF0769F443
:1039A00088819981280F391F2E5F3F4FFA0131839B
:1039B00020838A819B8193838283DF91CF910895B5
:1039C00013E0C2E5D3E003C0FE01F1DE2296C43568
:0839D000D107D1F7F894FFCFF5
:1039D8002020200049522D0020204300633332006C
:1039E8005265642020003E63333200477265656E7D
:1039F800006D5600350625062304BC05B004630493
:103A0800C202DD00E5000301EE00F600FD000B0137
:103A180007200000010203030405FF6F336300421F
:103A280061642064617461006300337069312E3110
:103A38000042616420636D64006F376C31366372D5
:103A48006300FF881301040400D007F4010F00028B
:0C3A5800080E0F101112200004030000E3
:00000001FF
