:1000000062C0000087C0000085C0000083C00000FF
:1000100081C000007FC000007DC000007BC00000E8
:1000200079C000000C940B0B75C0000073C0000079
:1000300071C0000098C700006DC000006BC00000D8
:1000400069C0000067C0000065C0000063C0000018
:1000500061C000005FC000005DC000005BC0000028
:1000600059C0000057C0000016051C051F052205D9
:10007000250528052B052E053105340537053A05DC
:1000800020506F6C6F6C750033F720526F626F7485
:10009000004D617A6500736F6C766572003E673360
:1000A000323E3E633332004C313620636465677202
:1000B00065673400000000000000001F1F1F1F1FA5
:1000C0001F1FA10BA20B11241FBECFEFD8E0DEBF74
:1000D000CDBF11E0A0E0B1E0E2EDF5E202C0059095
:1000E0000D92AC3AB107D9F712E0ACEAB1E001C029
:1000F0001D92A432B107E1F710E0C4ECD0E004C0D7
:100100002297FE010E94D411C23CD107C9F7AFD09B
:100110000C94DD1275CFAAE0B0E0E1E9F0E00C94B8
:10012000A51180ED97E00E94DF0BD1D080E890E030
:100130000E94C20980E061E00E94090988E890E01D
:100140000E94C2098DE990E0FFD688EE93E00E94FC
:10015000450B0E94370981E990E00E94C20980E0C6
:1001600061E00E94090986E990E00E94C20988EED8
:1001700093E01AC059D37C010E9437090027F7FC8D
:100180000095102FC801B7010E94B30980E091E0EB
:100190000E94D00980E061E00E94090983E091E0BB
:1001A0000E94D00984E690E00E94450B80E10E9405
:1001B000BD0A8823F9F280E10E94090B88EE93E0E2
:1001C0000E94450B0CEE1FEF0832110528F088E263
:1001D00090E068ED7FEF04C088ED9FEF68E270E08B
:1001E0000E94BB0A81E00E94AC0B84E190E00E9477
:1001F000450B0F5F1F4F0C33110531F780E090E086
:1002000060E070E00E94BB0A6E010894C11CD11C22
:1002100016C0C60161E00E94A50B7C010E9437094F
:1002200000E010E0C801B7010E94B30980E061E07E
:10023000F0D7C6011FD084E690E00E94450B80E114
:100240000E94BD0A882329F380E10E94090B0E94C5
:1002500037098BE091E00E94D00987EA90E074D6DC
:10026000E5D28823E9F72A96E8E00C94C11153DF20
:10027000D1D0FFCFAAE0B0E0E0E4F1E00C94A5110A
:100280007C0100E010E06E010894C11CD11CD60175
:10029000EFE0F1E08AE001900D928150E1F7F70183
:1002A000E00FF11F8081918165E670E00E943711B7
:1002B000FB01EC0DFD1D80810E94D2090E5F1F4FD6
:1002C0000A30110521F72A96E8E00C94C1110F932A
:1002D0001F9304EB10E0C80160E00E94F709C80119
:1002E000019661E00E94F709C801029662E00E944F
:1002F000F709C801039663E00E94F709C801049654
:1003000064E00E94F709C801059665E00E94F709BC
:10031000C801069666E00E94F709A9D71F910F91C0
:100320000895882311F08CE40895662311F083E585
:100330000895442311F482E4089582E50895CF934B
:10034000DF933091AC01333008F44CC0C32FD0E0C0
:10035000FE01E35DFE4F8081823409F043C0FE015F
:10036000E25DFE4F80E090E0AE01455D5E4F208192
:100370002C3441F0223519F0223449F406C0865A53
:100380009F4F05C0825F9E4F02C08C549F4F319794
:10039000E417F50761F768E671E00E944B118A35B2
:1003A000910589F08B3591051CF4892B41F017C01C
:1003B000843B910561F08E50914089F40CC0C45D7E
:1003C000DE4F83E50BC0C45DDE4F82E507C0C45D30
:1003D000DE4F82E403C0C45DDE4F8CE4888332507C
:1003E0003093AC01DF91CF910895E091AC01F0E042
:1003F000E15DFE4F10823BD78FE291E0D1D7809133
:10040000AC01893030F080E061E003D787E391E010
:10041000C7C70895AAE0B0E0E0E1F2E00C94A511AE
:100420006E010894C11CD11CB9D082E390E062E354
:1004300070E00E94BB0A82E390E00E94450BC60177
:1004400061E00E94A50B09811A81E984FA8488E29F
:1004500090E068E270E00E94BB0A88EC90E00E94A5
:10046000450BC60161E00E94A50B4B815C81493CB4
:10047000510558F48D819E81893C910530F420E02E
:100480008F819885893C910508F021E049555240BB
:1004900050F08D819E818955924028F08F819885FA
:1004A00089559240F8F40536110510F01CE40BC094
:1004B000222311F013E507C085E6E816F10410F4D5
:1004C00012E401C012E5812FE6D08091AC01E82F43
:1004D000F0E0E15DFE4F10838F5F8093AC012FDF72
:1004E00084DFA2CF80E090E060E070E00E94BB0A71
:1004F00089E191E036D51DC00E94890B20ED37E0DF
:1005000040E050E00E945E11685E73408040904081
:1005100058F4ADD68FE191E043D780E061E079D621
:1005200087E291E03DD701C060DF8EE190E00E945C
:10053000450B80E10E94BD0A8823F1F280E10E9410
:10054000BD0A8823D9F788EE93E00E94450B00E0AE
:1005500010E01CC023D082E390E062E370E00E94D0
:10056000BB0A82E390E00E94450B88E290E068E2DB
:1005700070E00E94BB0A88EC90E00E94450BF801F5
:10058000E15DFE4F808187D00F5F1F4F8091AC01EE
:1005900090E008171907F4F201D0A4CFAAE0B0E068
:1005A000E4EDF2E00C949B1166247724AA24BB248A
:1005B00065011E010894211C311C6CE3462E512C50
:1005C000C10161E00E94A50B50E3852E58EF952EE6
:1005D000880E991EC401AA2797FDA095BA2FA80ED0
:1005E000B91ECA1EDB1EC601B50120E137E240E09C
:1005F00050E00E94801179018A019401261937097F
:10060000C901880F991F820F931F62E070E00E945A
:100610004B119B012E0D3F1DC40164E170E00E944F
:100620004B11260F371F2D33310574F48FEF243C07
:1006300038071CF424EC3FEF02C037FF07C0C901A4
:10064000CC966CE370E007C02CE330E0B201621B93
:10065000730B8CE390E08FD78B819C81843691055E
:1006600050F48D819E818436910528F48F81988580
:100670008436910560F089819A81893C910538F42E
:10068000340189859A85893C910508F499CF2A9689
:10069000E2E10C94B7118C3429F0823541F08234B8
:1006A000B1F40DC080EB9FEF60E570E004C080E521
:1006B00090E060EB7FEF5FD788EC90E0E6C780E5E5
:1006C00090E060EB7FEF57D780E991E0DEC70895B7
:1006D000EF92FF920F931F93982F803278F487E860
:1006E00080937A0080917C0080648076892B80934F
:1006F0007C0080917A00806480937A0080917A00F7
:1007000086FDFCCFFB01EE24FF24870180917A0057
:10071000806480937A0080917A0086FDFCCF80917E
:100720007C0085FF04C08091790090E004C0809136
:10073000780090917900A0E0B0E0E80EF91E0A1F61
:100740001B1F319719F7CB0196958795603471057A
:1007500038F48E0D9F1D70E00E9437119B010DC073
:10076000A0E0B0E0E80EF91E0A1F1B1F9B0140E04D
:1007700050E0C801B7010E945E11C9011F910F919D
:10078000FF90EF900895A0E0B0E0209193013091A8
:10079000940140E050E0BC01CD010E940C119B018E
:1007A000AC0180917C0085FF0BC0B901CA01615882
:1007B0007F4F8F4F9F4F2FEF30E040E050E00AC057
:1007C000B901CA0161507E4F8F4F9F4F2FEF33E029
:1007D00040E050E00E945E11C901089579DFD3CF57
:1007E0001F9310917C0080917C008F7D80937C0012
:1007F00086E06AE070E0F2DFAC0115FD04C0809194
:100800007C008F7D03C080917C00806280937C009F
:100810009A01220F331F240F351F2F5F3F4F36954C
:100820002795C9011F910895DBCF08958091950107
:10083000882339F020E08091AE019091AF01892B9F
:1008400009F021E0822F0895A0E0B0E0EAE2F4E0B0
:100850000C94A311FC015B01C42E8091AD0188238F
:10086000C9F481E08093AD0110926F0083E2809320
:10087000800081E1809381001092820080E197E204
:10088000909389008093880010928B0010928A00C8
:10089000229A789410929501F7FD03C0DD24D39439
:1008A00003C0FF772AE0D22E80918100082F10E04C
:1008B000087F107088ECD89EC00111248E179F0706
:1008C000C0F4EF0187E2E131F80710F0C0E1D7E2B0
:1008D000BE017695679580E090E06058794687463E
:1008E0009F4F9E0140E050E00E945E11790101603F
:1008F00024C088E2D89E802D1124C82FD0E0CE17C6
:10090000DF0708F4EF01BE01769567959E0140E090
:1009100050E08AE0D81639F480E090E0605E7344DD
:1009200081449F4F06C080E090E060537D4E8C4E26
:100930009F4F0E945E11790102608AE0D81639F457
:10094000CE0105966AE070E00E943711EB0183E06A
:10095000C83ED80711F4B5010FC0BE0180E090E099
:10096000950140E050E00E940C1128EE33E040E099
:1009700050E00E948011B90110926F000093810035
:10098000F0928900E0928800E0918800F09189005F
:10099000AC2DA03108F0AFE080E190E08A1B910916
:1009A00002C0F695E7958A95E2F7F0938B00E09305
:1009B0008A007093B5016093B40186B38FEF86BB54
:1009C00081E080936F00CDB7DEB7EAE00C94BF11F1
:1009D000CF93DF93EB018F3F11F0442329F488EE8E
:1009E00093E0BE0140E067C0813110F420E005C013
:1009F000282F2051203608F02FE5822F6CE00E942E
:100A00002B11382F682F70E084EF9FEF689FF00163
:100A1000699FF00D789FF00D1124E20FF11DEC306D
:100A2000F10538F4EC5CFF4F0C94D2118CE991E0A5
:100A300023C080E090E020C085EB91E01DC08FECEA
:100A400091E01AC08AEE91E017C087E092E014C0EE
:100A500086E292E011C087E492E00EC089E692E05F
:100A60000BC08EE892E008C085EB92E005C08EEDE9
:100A700092E002C08AE093E0373071F002C0880F44
:100A8000991F6A95E2F7323020F005966AE070E02F
:100A90000BC0805090480BC036E0880F991F3A95E4
:100AA000E1F7029665E070E00E943711CB0140311A
:100AB00008F04FE0BE01C8DEDF91CF91089530917C
:100AC000B201E091AE01F091AF01332311F0249116
:100AD00001C02081822F81548A3108F4205E2032A7
:100AE00059F48091AE019091AF0101969093AF01BE
:100AF0008093AE01019729F7822F0895CF93DF935A
:100B0000DEDF282FC0E0D0E01CC0CE0153E0880F0C
:100B1000991F5A95E1F7CC0FDD1FC80FD91F822FFF
:100B2000992787FD9095C80FD91FE0978091AE0156
:100B30009091AF0101969093AF018093AE01BFDF1A
:100B4000282F822F80538A3000F3CE01DF91CF917E
:100B50000895A0E0B0E0EFEAF5E00C94A1118090D8
:100B60009601B090B001BB2021F06091B1016623E5
:100B700099F4A090B10100919B0110919C01E0902B
:100B80009701F0909801C0919901D0919A01C0907D
:100B90009D01D0909E0103C18FEF70E040E018DF0F
:100BA0001092B101C0C194E0892EBB2404EF11E082
:100BB00084E0E82EF12CC0EDD7E0B4E09B2EAFE04E
:100BC000CA2ED12C7CDF282F8091AE019091AF01ED
:100BD00001969093AF018093AE01263609F498C038
:100BE0002736CCF42236A1F1233674F42E3361F18A
:100BF0002F3334F42132B9F22C3309F006C126C068
:100C0000213609F002C11CC1243609F451C0253631
:100C10000CF066C035C02F3609F4BFC0203754F43D
:100C20002C3609F4A5C02D3609F4A5C0273609F0E5
:100C3000ECC086C0243709F4CEC0263709F4E2C0E0
:100C4000223709F0E2C0ADC08394BCCF8A94BACFFA
:100C5000A092B101B092B00110939C0100939B014E
:100C6000F0929801E0929701D0939A01C093990174
:100C700090929601D0929E01C0929D012BE0F7C008
:100C8000A092B101B092B00110939C0100939B011E
:100C9000F0929801E0929701D0939A01C093990144
:100CA00090929601D0929E01C0929D0120E0DFC0FB
:100CB000A092B101B092B00110939C0100939B01EE
:100CC000F0929801E0929701D0939A01C093990114
:100CD00090929601D0929E01C0929D0122E0C7C0E1
:100CE000A092B101B092B00110939C0100939B01BE
:100CF000F0929801E0929701D0939A01C0939901E4
:100D000090929601D0929E01C0929D0124E0AFC0C6
:100D1000A092B101B092B00110939C0100939B018D
:100D2000F0929801E0929701D0939A01C0939901B3
:100D300090929601D0929E01C0929D0125E097C0AD
:100D4000A092B101B092B00110939C0100939B015D
:100D5000F0929801E0929701D0939A01C093990183
:100D600090929601D0929E01C0929D0127E07FC093
:100D7000C5DE7C0141C0A3DE8C3611F4BB2403C068
:100D8000AA24BB24B3948091AE019091AF01019647
:100D90009093AF018093AE0115CFB0DE882E982CD2
:100DA00011CFA092B101B092B00110939C010093B9
:100DB0009B01F0929801E0929701D0939A01C09321
:100DC000990190929601D0929E01C0929D0120E0DF
:100DD000FF24F3944DC092DEBC0180EC9DE50E949F
:100DE0003711CB01EB01F3E0CC0FDD1FFA95E1F7F2
:100DF000880F991FC80FD91FCE01B7010E94371164
:100E00008B01E0CE7BDE6C01DDCEA092B101B09211
:100E1000B00110939C0100939B01F0929801E09225
:100E20009701D0939A01C093990190929601D09224
:100E30009E01C0929D011092AF011092AE0173C04D
:100E4000A092B101B092B00110939C0100939B015C
:100E5000F0929801E0929701D0939A01C093990182
:100E600090929601D0929E01C0929D0129E0FF24AC
:100E70008CE0889EC0011124E22EE80E0AC0809109
:100E8000AE019091AF0101969093AF018093AE01B6
:100E9000E39415DE8B3299F3833289F30BC0809192
:100EA000AE019091AF0101969093AF018093AE0196
:100EB000EA9405DE8D3299F3C0919B01D0919C019B
:100EC0008153883050F40091990110919A0116DEF7
:100ED000BC01C8010E943711EB018E010BC080914B
:100EE000AE019091AF0101969093AF018093AE0156
:100EF000C00FD11F16950795E2DD8E3281F38091E8
:100F0000B001882339F0CE01969587958093B10181
:100F1000C81BD109FF2011F0EE24EA948E2DBE01EA
:100F200040919D0155DDCDB7DEB7ECE00C94BD11CD
:100F300010926F009093AF018093AE0181E0809397
:100F4000B2011092B10105CEF3CF089510926F0057
:100F50009093AF018093AE011092B2011092B10153
:100F6000F8CDF4CF08951F920F920FB60F9211246F
:100F70002F933F934F935F936F937F938F939F93A1
:100F8000AF93BF93EF93FF938091B4019091B5011C
:100F900001979093B5018093B401019609F51092E1
:100FA0006F00789480918100887F816080938100B8
:100FB00080E197E2909389008093880010928B00E3
:100FC00010928A0081E0809395018091AE0190910A
:100FD000AF01892B29F08091B301882309F4B9DD91
:100FE000FF91EF91BF91AF919F918F917F916F9101
:100FF0005F914F913F912F910F900FBE0F901F90D7
:101000001895EF92FF920F931F936AB157985A98D1
:10101000289AE090BA01F090BB010091BC011091B8
:10102000BD0120E030E041E050E0CA016F9364E090
:101030006A95F1F76F910197C9F75C9ACA016F93AE
:1010400064E06A95F1F76F910197C9F789B15C98EF
:10105000FA016F9364E06A95F1F76F913197C9F7E0
:101060005C9AFA016F9364E06A95F1F76F9131979A
:10107000C9F75C9887FF0BC02C5F3F4FC901A0E008
:10108000B0E08E159F05A007B10708F4CECF6AB96E
:101090001F910F91FF90EF90089565B190E0AC0122
:1010A00041705070440F551F9C012670307053E002
:1010B000220F331F5A95E1F7422B6D7C462B45B921
:1010C0002BB18870907034E0880F991F3A95E1F742
:1010D0002F77282B2BB95C9A81E090E0FC016F936D
:1010E00064E06A95F1F76F913197C9F75C986F9357
:1010F00064E06A95F1F76F910197C9F7089580E16F
:1011000097E2A0E0B0E08093BA019093BB01A09376
:10111000BC01B093BD01529A209A549A8EE190E09E
:10112000B4D283E066D186E090E0AFD283E061D1B3
:1011300082E090E0AAD283E05CD182E090E0A5D288
:1011400082E057D182E090E0A0D288E241D088E0EE
:101150003FD081E03DD086E03BD08CE039C080912B
:10116000BE01882321F481E08093BE01C8CF089599
:10117000BF92CF92DF92EF92FF920F931F93082FAF
:10118000162FF42EECDF3DDFB4B0C5B0DAB0EBB013
:101190002898112311F05A9A01C05A9884B1826399
:1011A00084B9579A81E0F81621F0802F82958F70CC
:1011B00074DF802F8F7071DFDAB8EBB8B4B8C5B8C0
:1011C0001F910F91FF90EF90DF90CF90BF90089507
:1011D00060E042E0CDCFA4E0B0E0E1EFF8E00C94B5
:1011E000A911182F062F80E8898380EC8A8384E96F
:1011F0008B8384ED8C83FE01E60FF11D8181810FCD
:10120000E7DF1093B9010093B8012496E4E00C9451
:10121000C511E1CF089581E0DBDF8091B6019091A7
:10122000B701892B19F160E070E208C0E091B601C6
:10123000F091B701E40FF51F70836F5F462F50E008
:1012400080919F0190E001972091A00130E0FC0186
:10125000E29FC001E39F900DF29F900D112448176B
:10126000590724F31092B9011092B8010895D3CF11
:10127000089561E042E07CCF6F927F928F929F92BF
:10128000AF92BF92CF92DF92FF920F93DF93CF93F3
:10129000CDB7DEB72A970FB6F894DEBF0FBECDBF2D
:1012A0005B016C010AE03E010894611C711CFA2C80
:1012B000C601B5012AE030E040E050E0FFD7C901A7
:1012C000DA015C016D0101504301800E911C80E345
:1012D000F80EC601B5012AE030E040E050E09CD7AE
:1012E000F61AF401F082A114B104C104D104F9F694
:1012F00007C0F601E00FF11D8081BBDF0F5F04C066
:101300006E010894C11CD11C0A3098F32A960FB6BE
:10131000F894DEBF0FBECDBFCF91DF910F91FF904C
:10132000DF90CF90BF90AF909F908F907F906F9005
:101330000895EF92FF920F931F937B018C0197FF0B
:101340000AC010950095F094E094E11CF11C011D79
:10135000111D8DE28EDFC801B7018EDF1F910F9145
:10136000FF90EF900895E5CF0895CF93DF93EC01C0
:1013700002C07FDF2196FE0184918823D1F7DF919F
:10138000CF910895F2CF0895CF93DF93EC0102C07F
:1013900021966FDF88818823D9F7DF91CF91089557
:1013A000F3CF089566CF0895EF92FF920F931F93A6
:1013B000CF93DF937C01062F10E0F3E0000F111FA5
:1013C000FA95E1F7C0E0D0E09E01200F822F806403
:1013D000FFDEF701EC0FFD1FE4918E2F4ADF21960F
:1013E000C830D10589F7CDB7DEB7E6E0CCC7DCCF92
:1013F000089560E041E0BCCE282F883068F481E099
:1014000090E002C0880F991F2A95E2F7282FAAE2E0
:10141000B0E0EBE2F0E029C08E3080F430E02850FC
:10142000304081E090E002C0880F991F2A95E2F7D2
:10143000282FA4E2B0E0E5E2F0E017C0853130F0FB
:1014400020E0A0E0B0E0E0E0F0E00FC030E02E509F
:10145000304081E090E002C0880F991F2A95E2F7A2
:10146000282FA7E2B0E0E8E2F0E06F3F19F48081B6
:10147000822709C0662319F08081822B04C09081E5
:10148000822F8095892380838C91822B8C93089561
:10149000E0EBF0E083EF8083808184BDE1EBF0E05E
:1014A00082E08083808185BDE4EBF0E01082808162
:1014B000E3EBF0E08083808188BD88B587BD86E05E
:1014C00060E09ADF85E060E097DF8BE060E094DF2A
:1014D00083E060E091CF8091BF01882321F481E017
:1014E0008093BF01D5CF0895CF93DF93EC01F3DF55
:1014F000D7FD02C020E004C0D095C195DF4F21E0A8
:10150000CE01CF3FD10519F014F08FEF90E02223E8
:1015100019F018BC87BD02C088BD17BCDF91CF9100
:101520000895CF93DF93EC01D6DFD7FD02C020E012
:1015300004C0D095C195DF4F21E0CE01CF3FD1054A
:1015400019F014F08FEF90E0222329F01092B400EC
:101550008093B30004C08093B4001092B300DF9175
:10156000CF9108950F931F938B01BEDFC801D9DF80
:101570001F910F910895F6CF0895282F8091C001F3
:10158000882391F481E08093C00184B18D7C84B97B
:1015900085B1826385B985E090E06F9364E06A95D8
:1015A000F1F76F910197C9F783B180958223089570
:1015B0001F93CF93DF93182F8091C001882391F45C
:1015C00081E08093C00184B18D7C84B985B1826350
:1015D00085B985E090E06F9364E06A95F1F76F91CB
:1015E0000197C9F7C12FD0E083B190E08C239D23F0
:1015F000892BD1F38AE090E048D083B190E08C232E
:101600009D23892B89F383B18123DF91CF911F9192
:101610000895CECF08952F928F939F932FB68091E8
:10162000CE019091CF0101968093CE019093CF018E
:1016300090E08091D001891F8093D0019091D601D4
:101640009C5F9093D6018091D50180519742C0F064
:101650009093D6018093D5018091D1019091D201D0
:1016600001968093D1019093D20190E08091D301B3
:10167000891F8093D3018091D401891F8093D40165
:101680002FBE9F918F912F90189528EE33E009C0BF
:10169000F9016F9364E06A95F1F76F913197C9F79B
:1016A00001970097A9F70895A0E7B0E08C918E7F8D
:1016B0008C93E0EBF0E0808183608083E1EBF0E0ED
:1016C0008081807F8083808182608083B89A8C91C2
:1016D00081608C93789408958091D701882321F4B8
:1016E00081E08093D701E0CF0895F6DFE0E7F0E0F6
:1016F00080818E7F80832091D1013091D2014091F1
:10170000D3015091D401808181608083B901CA01E5
:101710000895EBCF0895E0DFE0E7F0E080818E7F71
:1017200080831092D1011092D2011092D3011092B5
:10173000D4011092D6011092D501808181608083FE
:101740000895089588ED91E030C49C01462F88EDFE
:1017500091E0B90120E0A1C3682F88ED91E03CC57C
:101760000F93DF93CF9300D000D00F92CDB7DEB7A9
:101770009C01962FDE011196E1EAF1E085E00190EF
:101780000D928150E1F7BE016F5F7F4F992329F0E1
:1017900088ED91E045E00FEF04C088ED91E045E071
:1017A00003E174D088ED91E059D0B5DF0F900F9030
:1017B0000F900F900F90CF91DF910F91089560E0FF
:1017C000CFCFFC0111821082138212821582148203
:1017D00017821682613118F080E1808701C060872E
:1017E000208B483060F481E090E002C0880F991FA0
:1017F0004A95E2F74AE250E02BE230E029C04E3051
:1018000080F4242F30E02850304081E090E002C086
:10181000880F991F2A95E2F744E250E025E230E074
:1018200017C0453130F080E040E050E020E030E08B
:101830000FC0242F30E02E50304081E090E002C0F5
:10184000880F991F2A95E2F747E250E028E230E03E
:10185000818733872287558744870895DC011C964A
:10186000ED91FC911D97309781F0808119969C91A4
:101870001997892B80831A96ED91FC911B97908183
:1018800019968C918095892380830895A0E0B0E01B
:10189000EBE4FCE058C5EC015B01642F7901402FBB
:1018A00020E08FDFCE018F5B9F4FFC011082DE01B5
:1018B000AE5BBF4F1C92FE01ED5BFF4F1082FF86B7
:1018C000EE8640E061E070E06F017D018C014EC06A
:1018D000F501E40FF11D8081883050F49B0102C0B6
:1018E000220F331F8A95E2F7922F29E230E01FC0C2
:1018F0008E3060F490E00897FB0102C0EE0FFF1FEE
:101900008A95E2F79E2F23E230E011C0853120F066
:1019100090E020E030E00BC090E00E979B0102C009
:10192000220F331F8A95E2F7922F26E230E0E42F50
:10193000F0E0DE01AE0FBF1F51969C93EE0FFF1F2C
:10194000EC0FFD1F32A321A32332310511F4F8015E
:1019500009C02632310511F4F70104C029323105DE
:1019600021F4F6018081982B90834F5F888548177A
:1019700008F4AECFCDB7DEB7EAE001C5A0E0B0E035
:10198000E3ECFCE0DEC4EC015B01CF5BDF4F49918F
:10199000A9918880C354D04090E009C0E92FF0E0BD
:1019A000EE0FFF1FEA0DFB1D118210829F5F8885DD
:1019B0009817A0F384B1CF5BDF4F3991832B84B9A3
:1019C00087B12991822B87B98AB19881C354D040BD
:1019D000892B8AB985B1832B85B988B1822B88B9C7
:1019E0008BB1892B8BB9EAE0F0E06F9364E06A95E4
:1019F000F1F76F913197C9F784B13095832384B99A
:101A000087B12095822387B98AB1909589238AB9B5
:101A100085B1382335B988B1282328B98BB19823EB
:101A20009BB99090B000C090B1008091B0008360ED
:101A30008093B00082E08093B100D090B20060E06B
:101A400070E03AC05091B2005D19650F711DE3B0AE
:101A5000E41609F04FC0F6B0FA1609F04BC089B190
:101A6000881509F047C025C0A42FB0E09D01220FC2
:101A7000331F8501020F131FF80180819181892B8B
:101A8000A1F42C0F3D1FF90181A192A1FC0120813D
:101A900030E0AC0FBD1F51968C9190E02823392384
:101AA000232B19F4F801718360834F5F88854817F1
:101AB000D8F2D50E4E2DAF2D8E859F8568177907EC
:101AC00008F29092B000C092B10020E00FC0E22F67
:101AD000F0E0EE0FFF1FEA0DFB1D80819181892B45
:101AE00021F48E859F85918380832F5F88852817B9
:101AF00070F305C0E3B0F6B089B040E0D7CFCDB702
:101B0000DEB7ECE03AC4A0E0B0E0E8E8FDE01DC4D8
:101B1000EC018B01D0907C00E0907A00C7B0F8B067
:101B200080917A0086FDFCCF90E009C0E92FF0E0BB
:101B3000EE0FFF1FE00FF11F118210829F5F88855B
:101B40009817A0F397B18AA18095982397B998B177
:101B5000892388B987E880937A0050E025C0FE0188
:101B6000E40FF11D8189806480937C0080917A006C
:101B7000806480937A0080917A0086FDFCCFE42F08
:101B8000F0E0EE0FFF1FE00FF11F20917800309181
:101B9000790080819181820F931F918380834F5FB1
:101BA00088854817E0F25F5F89A1581710F040E080
:101BB00016C040E0F5CFE42FF0E0EE0FFF1FE00F7E
:101BC000F11F69A1862F90E095958795208131813D
:101BD000820F931F70E04BD3718360834F5F8885C2
:101BE000481748F3D0927C00E0927A00F8B8C7B862
:101BF000CDB7DEB7E8E0C5C3A0E2B0E0E1E0FEE0CB
:101C0000A3C38C017B01D42E842F81508230B0F489
:101C1000D8011C96ED91FC911D97309779F0808149
:101C200019969C911997892B80831A96ED91FC91B6
:101C30001B97808119969C91892B8083F80180895C
:101C4000882339F5C02EB12EC801B70197DED8011F
:101C50001C96ED91FC911D97309781F0808119962B
:101C60009C911997892B80831A96ED91FC911B9773
:101C7000908119968C91809589238083B2E0DB1640
:101C800009F050C08C2D9B2DBE016F5F7F4F76DE1B
:101C900025C0C02EB12EC801B70135DFD8011C9672
:101CA000ED91FC911D97309781F0808119969C9160
:101CB0001997892B80831A96ED91FC911B9790813F
:101CC00019968C91809589238083B2E0DB1651F5BB
:101CD0008C2D9B2DBE016F5F7F4F15DF40E0BE0155
:101CE0006F5F7F4F1AC0E42FF0E0EE0FFF1F670118
:101CF000CE0EDF1EE60FF71FD8011E962D913C91E8
:101D00001F9780819181281B390BF6018081918179
:101D1000820F931F918380834F5FD80118968C9117
:101D2000481708F3A096E9E02BC3A0E0B0E0EAE989
:101D3000FEE008C3EC01162F072F942E22E0421775
:101D400011F0442351F48C819D81892B09F4A1C0A9
:101D50008E819F81892B09F49CC0892D815082300E
:101D600050F488819981892B09F493C08A819B81E1
:101D7000892B09F48EC0CE01612F702F492D3CDFD5
:101D8000812F902F9C015901CC24DD2400E010E02C
:101D90007AC081E0981669F4EA81FB81E00FF11FB7
:101DA00020813181E881F981E00FF11F408151816B
:101DB0003DC0AC81BD81992059F4EE81FF81E00FD7
:101DC000F11F20813181A00FB11F4D915C912EC078
:101DD000A00FB11F8D919C91E881F981E00FF11F57
:101DE00020813181EE85FF858217930710F4AF01C2
:101DF00005C0A9014E0F5F1F481B590BEE81FF81E3
:101E0000E00FF11F60817181EA81FB81E00FF11F1A
:101E100080819181EE85FF856817790710F49F0115
:101E200005C09C012E0F3F1F261B370B7901E41ABA
:101E3000F50AF1F0F5016081718180E090E09A018E
:101E400040E050E0621B730B840B950B28EE33E0EF
:101E500040E050E0E1D1970140E050E051D2C901AB
:101E6000F3E0293E3F0714F088EE93E097FF02C0AD
:101E700080E090E0F501819391935F010894C11C8B
:101E8000D11C0E5F1F4F888590E0C816D9060CF450
:101E900080CFCDB7DEB7EBE071C2A4E0B0E0E2E501
:101EA000FFE049C28C01F62EE72E2A833EDFD801DF
:101EB0001896BC91B9832F2D3E2DC9018C01552454
:101EC00044246624772443011C821B82AA24BB2459
:101ED0006501B8EE2B2EB3E03B2E31C0F801E08057
:101EE000F180FA81FF2321F0C1018E199F097C0145
:101EF00099ECE916F10414F044244394A3E3EA16A0
:101F0000F10494F0B701882777FD8095982FA601FA
:101F1000950182D1660E771E881E991EEB81FC8189
:101F2000EE0DFF1DFC83EB83539488EE93E0A0E05D
:101F3000B0E0A80EB91ECA1EDB1E0E5F1F4F9981AE
:101F4000591660F2442009F5492F50E041505040A5
:101F500084EF91E0489F9001499F300D589F300DCC
:101F6000112480911C0290911D02821793071CF48A
:101F700020E030E016C088EE93E0489F9001499F32
:101F8000300D589F300D11240CC0AB81BC819D01D8
:101F900040E050E0C401B30191D120931C02309382
:101FA0001D02C9012496E2E1E2C1CF93DF93EC0167
:101FB0008A819B81009709F0A8D28E819F8100972A
:101FC00009F0A3D288819981009709F09ED28C8173
:101FD0009D81009709F099D2DF91CF910895A3E6F2
:101FE000B0E0E4EFFFE0A7C17C015B016A01A296CB
:101FF0002FAFA297DA018D919C91892B09F5F701FA
:10200000808590E0880F991FD3D1D6018D939C9342
:10201000009709F4DDC020E030E00CC0C901880F52
:10202000991FD601ED91FC91E80FF91F11821082E2
:102030002F5F3F4FF701808590E02817390774F331
:10204000D5018D919C91892B89F000E010E03E0133
:102050000894611C711C41E4242E312C2C0E3D1E71
:1020600031E2432E512C4C0E5D1E27C0F7018085B6
:1020700090E0880F991F9CD1D5018D939C93009778
:1020800009F4A6C020E030E011C0C901880F991FF3
:10209000D501ED91FC91E80FF91FD7011E968D91A6
:1020A0009C911F97918380832F5F3F4FF70180851D
:1020B00090E0281739074CF3C8CFC701B301A296A7
:1020C0004FADA29799DDD70118968C91882E99244F
:1020D000A101F301A4965FAE4EAEA49760E070E05C
:1020E00034C00115110559F0A496AEADBFADA4974B
:1020F0002D913C91808191812817390758F4808176
:102100009181A496AEADBFADA4978D939C9301151C
:10211000110541F0DA012D913C9180819181821766
:10212000930728F480819181DA018D939C936F5FEE
:102130007F4F4E5F5F4F3296A4968EAD9FADA497B2
:102140000296A4969FAF8EAFA497681579054CF2BE
:102150000F5F1F4F0A30110509F0AFCF40E050E08C
:1021600020E030E08E010F5B1F4FBE016F5D7F4F9F
:1021700028C0F801E20FF31F80809180F601A08152
:10218000B181A20FB31F8D919C911197881599056C
:1021900010F48D929C92FB01E20FF31F80809180DE
:1021A000F501A081B181A20FB31F8D919C91119770
:1021B0008816990610F48D929C924F5F5F4F2E5FA8
:1021C0003F4FD70118968C9190E0481759078CF231
:1021D000CD59DF4FE2E1CBC01F93CF93DF93EC01EA
:1021E000162F862F8150823038F4AE014E5F5F4F3C
:1021F000CE01BE0121E0F3DE123011F0112341F4D3
:10220000AE014A5F5F4FCE012496BE0120E0E7DEBB
:10221000DF91CF911F910895629FD001739FF001CC
:10222000829FE00DF11D649FE00DF11D929FF00D66
:10223000839FF00D749FF00D659FF00D9927729F9D
:10224000B00DE11DF91F639FB00DE11DF91FBD0128
:10225000CF0111240895991B79E004C0991F9617A6
:1022600008F0961B881F7A95C9F780950895AA1BD8
:10227000BB1B51E107C0AA1FBB1FA617B70710F071
:10228000A61BB70B881F991F5A95A9F780959095A3
:10229000BC01CD01089597FB092E07260AD077FDD2
:1022A00004D0E5DF06D000201AF4709561957F4FC9
:1022B0000895F6F7909581959F4F0895A1E21A2E03
:1022C000AA1BBB1BFD010DC0AA1FBB1FEE1FFF1FDA
:1022D000A217B307E407F50720F0A21BB30BE40B2A
:1022E000F50B661F771F881F991F1A9469F7609571
:1022F0007095809590959B01AC01BD01CF0108952B
:1023000097FB092E05260ED057FD04D0D7DF0AD043
:10231000001C38F450954095309521953F4F4F4F14
:102320005F4F0895F6F790958095709561957F4F72
:102330008F4F9F4F08952F923F924F925F926F92CF
:102340007F928F929F92AF92BF92CF92DF92EF9245
:10235000FF920F931F93CF93DF93CDB7DEB7CA1BC6
:10236000DB0B0FB6F894DEBF0FBECDBF09942A88F1
:10237000398848885F846E847D848C849B84AA8499
:10238000B984C884DF80EE80FD800C811B81AA8126
:10239000B981CE0FD11D0FB6F894DEBF0FBECDBFF1
:1023A000ED010895EE0FFF1F0590F491E02D0994C3
:1023B000CF93DF93BC018230910510F462E070E0AE
:1023C000A0912202B0912302ED01E0E0F0E040E0B4
:1023D00050E021C0888199818617970769F48A8126
:1023E0009B81309719F09383828304C090932302DA
:1023F00080932202FE0134C06817790738F4411532
:10240000510519F08417950708F4AC01FE018A8183
:102410009B819C01E9012097E9F641155105A9F13D
:10242000CA01861B970B049708F4BA01E0E0F0E0BC
:102430002AC08D919C91119784179507F9F4641720
:10244000750781F412968D919C911397309719F02E
:102450009383828304C09093230280932202FD0120
:1024600032964FC0CA01861B970BFD01E80FF91F7A
:102470006193719302978D939C9343C0FD01828178
:1024800093819C01D9011097A1F68091200290912F
:102490002102892B41F48091A8019091A901909388
:1024A0002102809320024091AA015091AB01411575
:1024B000510541F44DB75EB78091A6019091A701F7
:1024C000481B590B20912002309121022417350717
:1024D000B0F4CA01821B930B8617970780F0AB01FB
:1024E0004E5F5F4F8417950750F0420F531F509374
:1024F000210240932002F9016193719302C0E0E050
:10250000F0E0CF01DF91CF910895CF93DF93009753
:1025100009F450C0EC0122971B821A82A09122027A
:10252000B0912302109709F140E050E0AC17BD07CD
:1025300008F1BB83AA83FE0121913191E20FF31FC1
:10254000AE17BF0779F48D919C911197280F391F11
:102550002E5F3F4F3983288312968D919C9113975C
:102560009B838A834115510571F4D0932302C09354
:10257000220220C012968D919C911397AD01009775
:1025800011F0DC01D3CFFA01D383C28321913191C1
:10259000E20FF31FCE17DF0769F488819981280FB6
:1025A000391F2E5F3F4FFA01318320838A819B813F
:1025B00093838283DF91CF91089510E0C4ECD0E043
:1025C00003C0FE01F1DE2296C63CD107D1F7F89494
:0225D000FFCF3B
:1025D2006D56005072657373204200476F210020D0
:1025E2000000010203040506FF3E3E613332005340
:1025F2006F6C76656421005072657373204200002F
:1026020000000000000000000000000000000000C8
:1026120000000000000000000000000000000000B8
:1026220000000000000000000000000000000000A8
:102632000000000000000000000000000000000098
:102642000000000000000000000000000000000088
:102652000000000000000000000000000000000078
:10266200000000881301040400D007F4010F0002E7
:0C267200080E0F101112200024020000BE
:00000001FF
