:100000003AC0000053C0000051C000004FC00000C3
:100010004DC000004BC0000049C0000047C00000B8
:1000200045C000004FC6000041C000003FC00000B6
:100030003DC000003BC0000039C0000037C00000D8
:1000400035C0000033C000007EC50000B4C500000C
:100050002DC000002BC0000029C0000027C00000F8
:1000600025C0000023C00000000000000000001FA9
:100070001F1F1F1F1F1F11241FBECFEFD8E0DEBFA1
:10008000CDBF11E0A0E0B1E0E6E3FFE002C00590E3
:100090000D92AC34B107D9F711E0ACE4B1E001C086
:1000A0001D92A737B107E1F7F1D043C7A9CFAAE066
:1000B000B0E0ECE5F0E016C780E091E061E040D40C
:1000C000CE0101966AE044E650E0FAD52A96E2E0D5
:1000D00025C7A2E0B0E0EEE6F0E004C789836A83BA
:1000E00082E091E061E02DD5CE01019661E029D555
:1000F000CE01029661E025D52296E2E00FC784E0AA
:1001000091E061E01EC586E091E061E01AC5CF9202
:10011000DF92EF92FF920F93DF93CF9300D000D046
:1001200000D0CDB7DEB79BEBC92ED12CE12CF12C42
:10013000C982DA82EB82FC828A836B834C832D83B3
:100140000E83CE01019666E0FCD426960FB6F89495
:10015000DEBF0FBECDBFCF91DF910F91FF90EF902B
:10016000DF90CF900895A2E0B0E0E8EBF0E0BAC6EF
:1001700088E091E061E0E5D4CE01019661E040E1E4
:1001800057E29ED52296E2E0C9C68AE091E061E09E
:10019000D8C4A4E0B0E0EEECF0E0A4C6382F462FBF
:1001A00021EC29838A8325EC2B836C8397FF04C081
:1001B00082EC898331953A8377FF04C086EC8B8388
:1001C00041954C83CE01019664E0BBD42496E2E0D5
:1001D000A5C6A1E0B0E0EEEEF0E082C6182F092F30
:1001E0008CE091E061E0ADD4A12FB02FFD01019032
:1001F0000020E9F73197EA1BFB0BE983CE0101965A
:1002000061E09FD4812F902F69819BD42196E4E0F7
:1002100083C60F931F93CF93DF938C0150D2C0E01E
:10022000D0E0F801EC0FFD1F8081918165E670E060
:1002300000D6FB01E15CFE4F8081CDD22296CA3010
:10024000D10579F7DF91CF911F910F9108950F9309
:100250001F9308E610E0C80160E0E2D2C8010196F1
:1002600061E0DED2C801029662E0DAD2C8010496EB
:1002700063E0D6D2C801059664E0D2D2C8010696E2
:1002800065E0CED21CD21F910F910895A5E2B0E097
:10029000EBE4F1E019C6DBDF60E072EC81E090E0B6
:1002A000B7D362E1C62ED12CCC0EDD1E55E0A52EB3
:1002B000B12CAC0EBD1E4AE0E42E2E010894411C68
:1002C000511C33E0632E712C6C0E7D1E27EE822EA6
:1002D00023E0922EF4D18EE091E07BD284E690E090
:1002E0002BD585E191E061E02BD3C60166E042E3C6
:1002F00050E0E6D4882371F7E2D187E191E069D23A
:1003000080E061E0AED1188EC60163D284E091E056
:1003100061E017D487E191E05CDF83E061E0D9DE42
:100320008FE191E056DFD501E2E3F1E08DE001904D
:100330000D928150E1F7EE82C5016CE002D482E3B8
:10034000FDD28AE091E061E0FCD352D50CDFFF24BE
:1003500010E082E291E061E0F3D2C6016AE044E697
:1003600050E0AED4882309F0B5CF84E291E061E09B
:10037000E7D2C20162E044E650E0A2D4882309F04B
:10038000A9CF86E291E061E0DBD2C30162E044E6FE
:1003900050E096D4882309F09DCFC6013ADF85E06E
:1003A00060E05FD189819A8164E070E056D57A83FC
:1003B000698323E0683E720711F49A828982698119
:1003C0007A81882777FD8095982FF5D188E291E092
:1003D00000D280E061E045D16B817C81882777FD88
:1003E0008095982FE8D18CE291E0F3D18AE090E0FB
:1003F000A3D482E01AD2882329F08EE78F1510F05B
:10040000F39407C021E02F1510F0FF2402C08EEFF7
:10041000F80E80E20AD2882321F01F3710F41F5F04
:1004200005C0123010F410E001C0125080E1FDD17F
:10043000882339F088E261E044E123E002E067DEEE
:1004400088CF86E091E061E07CD38F2D90E0612F32
:1004500070E09FDE7ECFEF92FF920F931F936AB101
:1004600057985A98289AE0905001F09051010091C5
:1004700052011091530120E030E041E050E0CA0108
:100480006F9364E06A95F1F76F910197C9F75C9AF1
:10049000CA016F9364E06A95F1F76F910197C9F70C
:1004A00089B15C98FA016F9364E06A95F1F76F91F6
:1004B0003197C9F75C9AFA016F9364E06A95F1F796
:1004C0006F913197C9F75C9887FF0BC02C5F3F4F46
:1004D000C901A0E0B0E08E159F05A007B10708F4A0
:1004E000CECF6AB91F910F91FF90EF90089565B13B
:1004F00090E0AC0141705070440F551F9C01267074
:10050000307053E0220F331F5A95E1F7422B6D7C78
:10051000462B45B92BB18870907034E0880F991F35
:100520003A95E1F72F77282B2BB95C9A81E090E080
:10053000FC016F9364E06A95F1F76F913197C9F709
:100540005C986F9364E06A95F1F76F910197C9F732
:10055000089580E197E2A0E0B0E08093500190938D
:100560005101A0935201B0935301529A209A549A88
:100570008EE190E0E1D383E055D186E090E0DCD3DA
:1005800083E050D182E090E0D7D383E04BD182E08A
:1005900090E0D2D382E046D182E090E0CDD388E2F1
:1005A00041D088E03FD081E03DD086E03BD08CE078
:1005B00039C080915401882321F481E08093540153
:1005C000C8CF0895BF92CF92DF92EF92FF920F9320
:1005D0001F93082F162FF42EECDF3DDFB4B0C5B00B
:1005E000DAB0EBB02898112311F05A9A01C05A984A
:1005F00084B1826384B9579A81E0F81621F0802F84
:1006000082958F7074DF802F8F7071DFDAB8EBB84E
:10061000B4B8C5B81F910F91FF90EF90DF90CF90C5
:10062000BF90089560E042E0CDCFA4E0B0E0EAE101
:10063000F3E056C4182F062F80E8898380EC8A8364
:1006400084E98B8384ED8C83FE01E60FF11D8181AB
:10065000810FE8DF10934F0100934E012496E4E0F0
:100660005BC4E3CF089581E0DDDF80914C01909180
:100670004D01892B19F160E070E208C0E0914C0156
:10068000F0914D01E40FF51F70836F5F462F50E02E
:100690008091490190E0019720914A0130E0FC01EE
:1006A000E29FC001E39F900DF29F900D1124481727
:1006B000590724F310924F0110924E010895D3CFA1
:1006C000089561E042E07ECF6F927F928F929F9279
:1006D000AF92BF92CF92DF92FF920F93DF93CF93AF
:1006E000CDB7DEB72A970FB6F894DEBF0FBECDBFE9
:1006F0005B016C010AE03E010894611C711CFA2C3C
:10070000C601B5012AE030E040E050E0B9D3C901AC
:10071000DA015C016D0101504301800E911C80E300
:10072000F80EC601B5012AE030E040E050E062D3A7
:10073000F61AF401F082A114B104C104D104F9F64F
:1007400007C0F601E00FF11D8081BBDF0F5F04C021
:100750006E010894C11CD11C0A3098F32A960FB67A
:10076000F894DEBF0FBECDBFCF91DF910F91FF9008
:10077000DF90CF90BF90AF909F908F907F906F90C1
:100780000895EF92FF920F931F937B018C0197FFC7
:100790000AC010950095F094E094E11CF11C011D35
:1007A000111D8DE28EDFC801B7018EDF1F910F9101
:1007B000FF90EF900895E5CF0895CF93DF93EC017C
:1007C00002C021967EDF88818823D9F7DF91CF91FF
:1007D0000895F3CF089575CF0895EF92FF920F9388
:1007E0001F93CF93DF937C01062F10E0F3E0000FFF
:1007F000111FFA95E1F7C0E0D0E09E01200F822F93
:10080000806410DFF701EC0FFD1FE4918E2F59DF9C
:100810002196C830D10589F7CDB7DEB7E6E07AC3B7
:10082000DCCF089560E041E0CDCE282F80915501C6
:10083000882391F481E08093550184B18D7C84B943
:1008400085B1826385B985E090E06F9364E06A9535
:10085000F1F76F910197C9F783B1809582230895CD
:100860001F93CF93DF93182F80915501882391F424
:1008700081E08093550184B18D7C84B985B1826318
:1008800085B985E090E06F9364E06A95F1F76F9128
:100890000197C9F7C12FD0E083B190E08C239D234D
:1008A000892BD1F38AE090E047D283B190E08C238A
:1008B0009D23892B89F383B18123DF91CF911F91F0
:1008C00008951F93CF93DF93182F809155018823AC
:1008D00091F481E08093550184B18D7C84B985B118
:1008E000826385B985E090E06F9364E06A95F1F7E3
:1008F0006F910197C9F7C12FD0E083B190E0809547
:1009000090958C239D23892BC1F38AE090E014D22B
:1009100083B190E0809590958C239D23892B69F37A
:1009200083B180958123DF91CF911F9108951F930B
:10093000C8DF182F95DF812F1F910895F8CF0895F4
:10094000909369018093680110926301609365013F
:10095000892B61F080916301861740F480916201D8
:10096000882321F48091C100806203C08091C1007E
:100970008F7D8093C100089520916201222311F49C
:1009800088E901C088E18093C1008091680190915D
:100990006901892B79F09091630180916501981725
:1009A00048F4222339F48091C10080628093C10011
:1009B000789408958091C1008F7DF8CFEF92FF92D7
:1009C0000F931F937B018C0180E0D6DF60EA75E214
:1009D00086E290E06E197F09800B910B33E0660F81
:1009E000771F881F991F3A95D1F724E0EE0CFF1C62
:1009F000001F111F2A95D1F7A801970141D230930A
:100A0000C5002093C4001F910F91FF90EF900895AF
:100A1000D5CF08958091C1008F7D8093C100E09172
:100A20006801F0916901309709F45DC0809163011C
:100A300090916501891708F05AC08091C00085FF28
:100A400056C080916301E80FF11D80818093C6003C
:100A5000809163018F5F8093630149C0809162013F
:100A6000882309F040C08091C10080628093C1005A
:100A70008091C1008F778093C100E0916A01F0916D
:100A80006B01309731F18091640190916601891773
:100A900000F58091C00087FF1CC02091C6008091A6
:100AA0006401891750F480916401E80FF11D2083DF
:100AB000809164018F5F80936401909164018091C3
:100AC0006601981731F480916701882311F0109224
:100AD000640180916201882379F48091C10080686B
:100AE0008093C10008958091C1008F7DBFCF809118
:100AF00063018917C0F7B2CF08959093690180937D
:100B000068011092630160936501892BA1F08091C7
:100B10006301861780F480916201882361F48091DB
:100B2000C10080620BC076DF909163018091650106
:100B30009817C9F708958091C1008F7D8093C100F7
:100B4000F3CFDBCF08951F920F920FB60F921124AF
:100B50002F938F939F93EF93FF932091C600E09183
:100B60006A01F0916B01309781F09091640180915E
:100B70006601981750F480916401E80FF11D2083FD
:100B8000809164018F5F80936401909164018091F2
:100B90006601981731F480916701882311F0109253
:100BA0006401FF91EF919F918F912F910F900FBE54
:100BB0000F901F9018951F920F920FB60F9211244D
:100BC0008F939F93EF93FF93E0916801F0916901F8
:100BD0003097F9F08091630190916501891738F59C
:100BE0008091C00085FF23C080916301E80FF11D53
:100BF00080818093C600809163018F5F8093630141
:100C000016C080916201882321F48091C100806226
:100C100003C08091C1008F7D8093C100FF91EF914F
:100C20009F918F910F900FBE0F901F9018958091FC
:100C30006301891770F7E5CFAF92BF92CF92DF9231
:100C4000EF92FF920F931F938A012091C1002F779B
:100C50002093C10090936B0180936A01109264010C
:100C6000609366011092670180916201882329F4E4
:100C70008091C10080688093C100A2D05B016C01AB
:100C8000780100E010E0C6DE909164018091660179
:100C9000981711F480E00BC093D06A197B098C0976
:100CA0009D096E157F058007910768F381E01F910C
:100CB0000F91FF90EF90DF90CF90BF90AF9008958D
:100CC000BBCF08952F928F939F932FB680916D0184
:100CD00090916E01019680936D0190936E0190E06A
:100CE00080916F01891F80936F01909175019C5FC6
:100CF000909375018091740180519742C0F0909358
:100D00007501809374018091700190917101019639
:100D1000809370019093710190E080917201891F1E
:100D20008093720180917301891F809373012FBE9C
:100D30009F918F912F90189528EE33E009C0F9010B
:100D40006F9364E06A95F1F76F913197C9F7019756
:100D50000097A9F70895A0E7B0E08C918E7F8C935F
:100D6000E0EBF0E0808183608083E1EBF0E0808164
:100D7000807F8083808182608083B89A8C9181603B
:100D80008C937894089580917601882321F481E0F2
:100D900080937601E0CF0895F6DFE0E7F0E0808110
:100DA0008E7F80832091700130917101409172019A
:100DB00050917301808181608083B901CA010895D7
:100DC000EBCF0895E0DFE0E7F0E080818E7F808365
:100DD00010927001109271011092720110927301C1
:100DE0001092750110927401808181608083089552
:100DF000E9CF0895629FD001739FF001829FE00DBB
:100E0000F11D649FE00DF11D929FF00D839FF00D89
:100E1000749FF00D659FF00D9927729FB00DE11D35
:100E2000F91F639FB00DE11DF91FBD01CF01112412
:100E30000895AA1BBB1B51E107C0AA1FBB1FA61721
:100E4000B70710F0A61BB70B881F991F5A95A9F773
:100E500080959095BC01CD01089597FB092E07263A
:100E60000AD077FD04D0E5DF06D000201AF4709593
:100E700061957F4F0895F6F7909581959F4F08955E
:100E8000A1E21A2EAA1BBB1BFD010DC0AA1FBB1F8E
:100E9000EE1FFF1FA217B307E407F50720F0A21B00
:100EA000B30BE40BF50B661F771F881F991F1A946D
:100EB00069F760957095809590959B01AC01BD0197
:100EC000CF0108952F923F924F925F926F927F923F
:100ED0008F929F92AF92BF92CF92DF92EF92FF924A
:100EE0000F931F93CF93DF93CDB7DEB7CA1BDB0BF6
:100EF0000FB6F894DEBF0FBECDBF09942A8839889B
:100F000048885F846E847D848C849B84AA84B984A1
:100F1000C884DF80EE80FD800C811B81AA81B981AD
:100F2000CE0FD11D0FB6F894DEBF0FBECDBFED01C1
:060F30000895F894FFCFC4
:100F3600B400B900B700BC00BA00B500B8004D61F6
:100F460073746572008100436F6E6E656374004F43
:100F56004B008700B600B10020202000206D5620EF
:100F66002000B3206C31366F366761623E63002025
:0C0F76000000010203030405FF02080054
:00000001FF
