:1000000041C0000066C0000064C0000062C0000083
:1000100060C000005EC000005CC000005AC000006C
:1000200058C000000C949D0B54C0000052C000004A
:1000300050C0000073C700004CC000004AC0000060
:1000400048C0000046C000000C94240B0C945C0BCC
:1000500040C000003EC000003CC000003AC00000AC
:1000600038C0000036C00000FF04050508050B0578
:100070000E051105140517051A051D052005230594
:10008000350C360C11241FBECFEFD8E0DEBFCDBF3C
:1000900011E0A0E0B1E0ECEAF7E202C005900D92B9
:1000A000A234B107D9F712E0A2E4B1E001C01D9279
:1000B000A139B107E1F710E0C2E8D0E004C022970F
:1000C000FE010E94C112C038D107C9F763D20C9457
:1000D000CA1396CF80914A01815080934A018F3F85
:1000E00019F483E680934A010895881F8827881FA2
:1000F00008958095881F8827881F08950C943109DA
:100100001F93182F87FD02C080E01BC080E091E0A4
:1001100003D70E94310984E091E00E94540980E0F5
:1001200061E00E940309812F0E94460980914A01E3
:10013000815080934A018F3F19F483E680934A01EE
:1001400081E01F91089580E090E060E070E00E94FF
:100150001E0A109243011092420108950E94330C2E
:100160008CE390E064EC7FEF0E941E0A03C081E004
:100170000E94490C0E941B0C6A3F71058105910584
:10018000B0F384EC9FEF6CE370E00E941E0A03C0A2
:1001900081E00E94490C0E941B0C6E5E7240804000
:1001A0009040B0F38CE390E064EC7FEF0E941E0A75
:1001B00003C081E00E94490C0E941B0C685E7340E2
:1001C00080409040B0F380E090E060E070E00E94FA
:1001D0001E0A8DE091E061E00C94220B8FE091E02B
:1001E00066E00E94220B80E090E060E070E00E94F8
:1001F0001E0A10924301109242010895A2E0B0E05D
:10020000E4E0F1E00C94981206D39A838983CE013E
:10021000019662E00E94220B2296E2E00C94B41256
:10022000A2E0B0E0E6E1F1E00C9498129FD29A834C
:100230008983CE01019662E00E94220B2296E2E0C1
:100240000C94B412ACE0B0E0E8E2F1E00C94981247
:100250008091420190914301892B39F080914801AE
:10026000909149018053984F05C0CE01039661E0FB
:100270000E94390C9A838983CE01019662E00E9424
:10028000220B2C96E2E00C94B412809142019091E2
:100290004301892B09F463C080914501882321F033
:1002A00080914701882329F480E090E060E070E0CD
:1002B0004DC083E892E061E00E94390C9C01205D12
:1002C00037408091480190914901A901481B590B81
:1002D00030934901209348018091460190E060915C
:1002E0004701FC014E9FC0014F9F900D5E9F900DF6
:1002F000112470E00E943812FB018091440190E0CB
:1003000060914501AC01249FC001259F900D349F51
:10031000900D112470E00E94381280912701282F3F
:1003200030E0E60FF71F2E173F070CF4F90188277E
:100330009927821B930BBF01E817F9070CF4BC0146
:1003400077FF06C0CB01820F931FB9010C941E0AE0
:10035000C901861B970BBC01C9010C941E0A0895A4
:10036000882361F08091420190914301892B59F4D7
:1003700083E892E061E00E94400C05C083E892E0CF
:1003800061E00E944D0C83E892E06AE00C94220B3D
:1003900081E0E6CF80E0E4CF08C02BD60E943A0A85
:1003A00090914A01891709F470DF0E943A0A9091EE
:1003B0004A01891791F3E92FF0E0E554FE4FE081FF
:1003C000892F8F5F80934A01843610F010924A0182
:1003D0008E2F0895CF92DF92FF920F931F93DF939A
:1003E000CF9300D000D00F92CDB7DEB78E010F5F54
:1003F0001F4F86E0C82ED12CCC0EDD1ECDDFF82E8F
:100400007FDE882301F5F801F1928F01EC15FD05DF
:10041000A9F789818F3711F48FEF01C0880F80937E
:1004200027018A81809344018B81809345018C81CF
:10043000809346018D818093470181E090E0909305
:100440004301809342010F900F900F900F900F90F7
:10045000CF91DF911F910F91FF90DF90CF90089582
:100460000F931F9399DF082F4BDE882341F494DF0D
:10047000182F46DE882319F4802F612FC4D61F91D0
:100480000F910895FF920F931F9386DFF82E38DEA9
:10049000882361F410E008C07FDF082F31DE882355
:1004A00029F4802F03D71F5F1F15B0F31F910F9101
:1004B000FF9008950F931F93CF93DF936DDF082F65
:1004C0001FDE8823B1F4CFE1D2E010E008C015367A
:1004D00081F062DF899314DE882359F41F5F1017BF
:1004E000B0F3E12FF0E0E15EFD4F10828FE192E08A
:1004F00013D5DF91CF911F910F9108951F934CDF7A
:10050000182FFEDD882351F41F3719F481E09FEF87
:1005100004C08EEF1802C001112485D71F910895E1
:100520001F933ADF182FECDD882351F41F3719F49D
:1005300081E09FEF04C08EEF1802C001112450D754
:100540001F9108951F9328DF182FDADD882361F4A7
:100550001F3719F48FEF90E006C0812F992787FD90
:100560009095880F991F5FD71F9108951F9314DFEF
:10057000182FC6DD882361F41F3719F48FEF90E040
:1005800006C0812F992787FD9095880F991F28D73E
:100590001F9108951F9380ED97E00E94820C81E0E7
:1005A00026D55FD660E072EC81E090E0B2D78BEBAD
:1005B00091E064E645D7F0DE182F873B09F45AC076
:1005C000883B14F5813B09F445C0823B7CF48638B6
:1005D000E9F1873824F4813809F060C035C08738E4
:1005E00009F43FC0803B09F059C032C0843BB1F1EF
:1005F000853B24F4833B09F051C02EC0853BA9F113
:10060000863B09F04BC034C08C3B09F43DC08D3BA8
:1006100054F4893B99F1893B7CF18A3B89F18B3B0E
:1006200009F03CC02FC0853C09F434C0863C34F44A
:10063000813C61F1823C09F031C02AC0863C61F105
:10064000882309F4B8CF2AC0C9DDB5CFA3DEB3CF64
:10065000E7DDB1CFD3DDAFCF2DDFADCF81E00E949D
:10066000490C81E090E094DEA6CF0E94460CA3CF17
:10067000E9DDA1CFF6D59FCF05DF9DCFF1DE9BCF82
:100680006DDD99CFA7DE97CF5EDD95CF6FDF93CF7E
:1006900047DF91CF57DF8FCF31DF8DCFE2D586E1B6
:1006A00091E002D680E061E0AED5812FEFD58EE1FA
:1006B00091E032D480CFEF92FF920F931F93982F47
:1006C000803278F487E880937A0080917C0080649F
:1006D0008076892B80937C0080917A00806480935F
:1006E0007A0080917A0086FDFCCFFB01EE24FF2486
:1006F000870180917A00806480937A0080917A00EB
:1007000086FDFCCF80917C0085FF04C0809179003C
:1007100090E004C08091780090917900A0E0B0E072
:10072000E80EF91E0A1F1B1F319719F7CB0196958A
:1007300087956034710538F48E0D9F1D70E00E941E
:1007400024129B010DC0A0E0B0E0E80EF91E0A1FC4
:100750001B1F9B0140E050E0C801B7010E944B12F3
:10076000C9011F910F91FF90EF90089587E064E118
:1007700070E0A1CFA0E0B0E02091280130912901E4
:1007800040E050E0BC01CD010E94F9119B01AC0199
:1007900080917C0085FF0BC0B901CA0161587F4F71
:1007A0008F4F9F4F2FEF30E040E050E00AC0B9017B
:1007B000CA0161507E4F8F4F9F4F2FEF33E040E0D3
:1007C00050E00E944B12C901089575DFD3CF1F93EB
:1007D00010917C0080917C008F7D80937C0086E06E
:1007E0006AE070E0F2DFAC0115FD04C080917C008E
:1007F0008F7D03C080917C00806280937C009A0191
:10080000220F331F240F351F2F5F3F4F369527953B
:10081000C9011F910895DBCF0895A0E0B0E0E3E1A6
:10082000F4E00C949012FC015B01C42E80914B010A
:100830008823C9F481E080934B0110926F0083E21A
:100840008093800081E1809381001092820080E19A
:1008500097E2909389008093880010928B00109209
:100860008A00229A789410922A01F7FD03C0DD24B1
:10087000D39403C0FF772AE0D22E80918100082F05
:1008800010E0087F107088ECD89EC00111248E17EC
:100890009F07C0F4EF0187E2E131F80710F0C0E1F3
:1008A000D7E2BE017695679580E090E06058794682
:1008B00087469F4F9E0140E050E00E944B12790115
:1008C000016024C088E2D89E802D1124C82FD0E07A
:1008D000CE17DF0708F4EF01BE01769567959E01FC
:1008E00040E050E08AE0D81639F480E090E0605EA5
:1008F000734481449F4F06C080E090E060537D4E7A
:100900008C4E9F4F0E944B12790102608AE0D816EC
:1009100039F4CE0105966AE070E00E942412EB01E2
:1009200083E0C83ED80711F4B5010FC0BE0180E0D6
:1009300090E0950140E050E00E94F91128EE33E08C
:1009400040E050E00E946D12B90110926F000093D8
:100950008100F0928900E0928800E0918800F09197
:100960008900AC2DA03108F0AFE080E190E08A1B57
:10097000910902C0F695E7958A95E2F7F0938B000E
:10098000E0938A00709353016093520186B38FEF16
:1009900086BB81E080936F00CDB7DEB7EAE00C94B0
:1009A000AC12CF93DF93EB018F3F11F0442329F476
:1009B00088EE93E0BE0140E067C0813110F420E092
:1009C00005C0282F2051203608F02FE5822F6CE03B
:1009D0000E941812382F682F70E084EF9FEF689FF5
:1009E000F001699FF00D789FF00D1124E20FF11DC9
:1009F000EC30F10538F4EC5CFF4F0C94BF128CE93D
:100A000091E023C080E090E020C085EB91E01DC024
:100A10008FEC91E01AC08AEE91E017C087E092E077
:100A200014C086E292E011C087E492E00EC089E62D
:100A300092E00BC08EE892E008C085EB92E005C022
:100A40008EED92E002C08AE093E0373071F002C090
:100A5000880F991F6A95E2F7323020F005966AE018
:100A600070E00BC0805090480BC036E0880F991F93
:100A70003A95E1F7029665E070E00E942412CB01FE
:100A8000403108F04FE0BE01C8DEDF91CF910895FC
:100A900030915001E0914C01F0914D01332311F060
:100AA000249101C02081822F81548A3108F4205E74
:100AB000203259F480914C0190914D010196909310
:100AC0004D0180934C01019729F7822F0895CF9310
:100AD000DF93DEDF282FC0E0D0E01CC0CE0153E062
:100AE000880F991F5A95E1F7CC0FDD1FC80FD91F4A
:100AF000822F992787FD9095C80FD91FE097809185
:100B00004C0190914D01019690934D0180934C01C1
:100B1000BFDF282F822F80538A3000F3CE01DF9170
:100B2000CF910895A0E0B0E0E8E9F5E00C948E12D2
:100B300080902B01B0904E01BB2021F060914F01BD
:100B4000662399F4A0904F0100913001109131017A
:100B5000E0902C01F0902D01C0912E01D0912F0139
:100B6000C0903201D090330103C18FEF70E040E0BC
:100B700018DF10924F01C0C194E0892EBB2404EF0E
:100B800011E084E0E82EF12CC0EDD7E0B4E09B2E1C
:100B9000AFE0CA2ED12C7CDF282F80914C019091A0
:100BA0004D01019690934D0180934C01263609F436
:100BB00098C02736CCF42236A1F1233674F42E33B4
:100BC00061F12F3334F42132B9F22C3309F006C12C
:100BD00026C0213609F002C11CC1243609F451C0D7
:100BE00025360CF066C035C02F3609F4BFC020375B
:100BF00054F42C3609F4A5C02D3609F4A5C02736C7
:100C000009F0ECC086C0243709F4CEC0263709F4B9
:100C1000E2C0223709F0E2C0ADC08394BCCF8A9411
:100C2000BACFA0924F01B0924E01109331010093C0
:100C30003001F0922D01E0922C01D0932F01C0934E
:100C40002E0190922B01D0923301C09232012BE001
:100C5000F7C0A0924F01B0924E0110933101009362
:100C60003001F0922D01E0922C01D0932F01C0931E
:100C70002E0190922B01D0923301C092320120E0DC
:100C8000DFC0A0924F01B0924E011093310100934A
:100C90003001F0922D01E0922C01D0932F01C093EE
:100CA0002E0190922B01D0923301C092320122E0AA
:100CB000C7C0A0924F01B0924E0110933101009332
:100CC0003001F0922D01E0922C01D0932F01C093BE
:100CD0002E0190922B01D0923301C092320124E078
:100CE000AFC0A0924F01B0924E011093310100931A
:100CF0003001F0922D01E0922C01D0932F01C0938E
:100D00002E0190922B01D0923301C092320125E046
:100D100097C0A0924F01B0924E0110933101009301
:100D20003001F0922D01E0922C01D0932F01C0935D
:100D30002E0190922B01D0923301C092320127E014
:100D40007FC0C5DE7C0141C0A3DE8C3611F4BB241C
:100D500003C0AA24BB24B39480914C0190914D010F
:100D6000019690934D0180934C0115CFB0DE882EF3
:100D7000982C11CFA0924F01B0924E0110933101E7
:100D800000933001F0922D01E0922C01D0932F01BD
:100D9000C0932E0190922B01D0923301C092320168
:100DA00020E0FF24F3944DC092DEBC0180EC9DE571
:100DB0000E942412CB01EB01F3E0CC0FDD1FFA956A
:100DC000E1F7880F991FC80FD91FCE01B7010E9404
:100DD00024128B01E0CE7BDE6C01DDCEA0924F01B0
:100DE000B0924E011093310100933001F0922D0129
:100DF000E0922C01D0932F01C0932E0190922B01F1
:100E0000D0923301C092320110924D0110924C01E8
:100E100073C0A0924F01B0924E0110933101009324
:100E20003001F0922D01E0922C01D0932F01C0935C
:100E30002E0190922B01D0923301C092320129E011
:100E4000FF248CE0889EC0011124E22EE80E0AC027
:100E500080914C0190914D01019690934D018093AA
:100E60004C01E39415DE8B3299F3833289F30BC086
:100E700080914C0190914D01019690934D0180938A
:100E80004C01EA9405DE8D3299F3C0913001D09186
:100E900031018153883050F400912E0110912F01BF
:100EA00016DEBC01C8010E942412EB018E010BC0AA
:100EB00080914C0190914D01019690934D0180934A
:100EC0004C01C00FD11F16950795E2DD8E3281F3DC
:100ED00080914E01882339F0CE01969587958093B5
:100EE0004F01C81BD109FF2011F0EE24EA948E2D8A
:100EF000BE014091320155DDCDB7DEB7ECE00C9478
:100F0000AA1210926F0090934D0180934C011092A1
:100F1000500110924F0106CEF4CF08951F920F9208
:100F20000FB60F9211242F933F934F935F936F93BC
:100F30007F938F939F93AF93BF93EF93FF93809192
:100F40005201909153010197909353018093520164
:100F5000019609F510926F00789480918100887F46
:100F600081608093810080E197E290938900809373
:100F7000880010928B0010928A0081E080932A01F1
:100F800080914C0190914D01892B29F08091510164
:100F9000882309F4C7DDFF91EF91BF91AF919F9135
:100FA0008F917F916F915F914F913F912F910F9012
:100FB0000FBE0F901F90189580912A01882339F059
:100FC00080914C0190914D01892B09F0ABDD20E01F
:100FD00080914C0190914D01892B09F021E0822FE5
:100FE000089580935101882309F4E6CF0895F9CF3D
:100FF0000895E2CF0895EF92FF920F931F936AB185
:1010000057985A98289AE0905801F0905901009109
:101010005A0110915B0120E030E041E050E0CA014C
:101020006F9364E06A95F1F76F910197C9F75C9A45
:10103000CA016F9364E06A95F1F76F910197C9F760
:1010400089B15C98FA016F9364E06A95F1F76F914A
:101050003197C9F75C9AFA016F9364E06A95F1F7EA
:101060006F913197C9F75C9887FF0BC02C5F3F4F9A
:10107000C901A0E0B0E08E159F05A007B10708F4F4
:10108000CECF6AB91F910F91FF90EF90089565B18F
:1010900090E0AC0141705070440F551F9C012670C8
:1010A000307053E0220F331F5A95E1F7422B6D7CCD
:1010B000462B45B92BB18870907034E0880F991F8A
:1010C0003A95E1F72F77282B2BB95C9A81E090E0D5
:1010D000FC016F9364E06A95F1F76F913197C9F75E
:1010E0005C986F9364E06A95F1F76F910197C9F787
:1010F000089580E197E2A0E0B0E0809358019093DA
:101100005901A0935A01B0935B01529A209A549AC4
:101110008EE190E04CD383E0CBD086E090E047D3E3
:1011200083E0C6D082E090E042D383E0C1D082E089
:1011300090E03DD382E0BCD082E090E038D388E2FA
:1011400041D088E03FD081E03DD086E03BD08CE0CC
:1011500039C080915C01882321F481E080935C0197
:10116000C8CF0895BF92CF92DF92EF92FF920F9374
:101170001F93082F162FF42EECDF3DDFB4B0C5B05F
:10118000DAB0EBB02898112311F05A9A01C05A989E
:1011900084B1826384B9579A81E0F81621F0802FD8
:1011A00082958F7074DF802F8F7071DFDAB8EBB8A3
:1011B000B4B8C5B81F910F91FF90EF90DF90CF901A
:1011C000BF90089560E042E0CDCFA4E0B0E0EBEE48
:1011D000F8E00C949612182F062F80E8898380EC93
:1011E0008A8384E98B8384ED8C83FE01E60FF11DF5
:1011F0008181810FE7DF10935701009356012496F8
:10120000E4E00C94B212E1CF089581E0DBDF80913D
:10121000540190915501892B19F160E070E208C0EA
:10122000E0915401F0915501E40FF51F70836F5F59
:10123000462F50E08091340190E0019720913501D4
:1012400030E0FC01E29FC001E39F900DF29F900D02
:1012500011244817590724F3109257011092560190
:101260000895D3CF089561E042E07CCF8A3010F436
:10127000805D01C0895CF7CF1F93182F82958F7016
:10128000F5DF812F8F70F2DF1F910895F5CF08955C
:10129000CF93DF93EC0102C02196E5DF888188239C
:1012A000D9F7DF91CF910895F3CF0895DCCF08955A
:1012B00060E041E057CF282F883068F481E090E06B
:1012C00002C0880F991F2A95E2F7282FAAE2B0E002
:1012D000EBE2F0E029C08E3080F430E0285030405E
:1012E00081E090E002C0880F991F2A95E2F7282F2D
:1012F000A4E2B0E0E5E2F0E017C0853130F020E094
:10130000A0E0B0E0E0E0F0E00FC030E02E50304070
:1013100081E090E002C0880F991F2A95E2F7282FFC
:10132000A7E2B0E0E8E2F0E06F3F19F480818227A5
:1013300009C0662319F08081822B04C09081822F1E
:101340008095892380838C91822B8C930895E0EB88
:10135000F0E083EF8083808184BDE1EBF0E082E008
:101360008083808185BDE4EBF0E010828081E3EB37
:10137000F0E08083808188BD88B587BD86E060E02D
:101380009ADF85E060E097DF8BE060E094DF83E048
:1013900060E091CF80915D01882321F481E080930A
:1013A0005D01D5CF0895CF93DF93EC01F3DFD7FD37
:1013B00002C020E004C0D095C195DF4F21E0CE01EE
:1013C000CF3FD10519F014F08FEF90E0222319F0F0
:1013D00018BC87BD02C088BD17BCDF91CF910895AE
:1013E000E2CF0895CF93DF93EC01D4DFD7FD02C0A5
:1013F00020E004C0D095C195DF4F21E0CE01CF3F62
:10140000D10519F014F08FEF90E0222329F010920B
:10141000B4008093B30004C08093B4001092B30072
:10142000DF91CF910895DECF08950F931F938B0125
:10143000BADFC801D7DF1F910F910895F6CF089545
:101440002091C1002F772093C10090936701809372
:101450006601109260016093620181E080936301F4
:1014600080915E01882329F48091C1008068809377
:10147000C100089580916001089520915E012223AA
:1014800011F488E901C088E18093C1008091640172
:1014900090916501892B79F090915F0180916101B4
:1014A000981748F4222339F48091C1008062809318
:1014B000C100789408958091C1008F7DF8CFEF929C
:1014C000FF920F931F937B018C0180E0D6DF60EACF
:1014D00075E286E290E06E197F09800B910B33E094
:1014E000660F771F881F991F3A95D1F724E0EE0CFD
:1014F000FF1C001F111F2A95D1F7A8019701CBD718
:101500003093C5002093C4001F910F91FF90EF907E
:101510000895D5CF08958091C1008F7D8093C1003B
:10152000E0916401F0916501309709F45DC080910C
:101530005F0190916101891708F05AC08091C00045
:1015400085FF56C080915F01E80FF11D8081809377
:10155000C60080915F018F5F80935F0149C08091D9
:101560005E01882309F040C08091C10080628093B1
:10157000C1008091C1008F778093C100E091660126
:10158000F0916701309731F1809160019091620193
:10159000891700F58091C00087FF1CC02091C6000C
:1015A00080916001891750F480916001E80FF11D6E
:1015B0002083809160018F5F809360019091600132
:1015C00080916201981731F480916301882311F0B2
:1015D0001092600180915E01882379F48091C100AE
:1015E00080688093C10008958091C1008F7DBFCF36
:1015F00080915F018917C0F7B2CF0895909365017C
:101600008093640110925F0160936101892BA1F0C6
:1016100080915F01861780F480915E01882361F4D8
:101620008091C10080620BC076DF90915F01809154
:1016300061019817C9F708958091C1008F7D80934B
:10164000C100F3CFDBCF08951F920F920FB60F9218
:1016500011242F938F939F93EF93FF932091C600B4
:10166000E0916601F0916701309781F090916001FF
:1016700080916201981750F480916001E80FF11D8C
:101680002083809160018F5F809360019091600161
:1016900080916201981731F480916301882311F0E1
:1016A00010926001FF91EF919F918F912F910F9078
:1016B0000FBE0F901F9018951F920F920FB60F92AA
:1016C00011248F939F93EF93FF93E0916401F09126
:1016D00065013097F9F080915F0190916101891760
:1016E00038F58091C00085FF23C080915F01E80F2D
:1016F000F11D80818093C60080915F018F5F809390
:101700005F0116C080915E01882321F48091C100A1
:10171000806203C08091C1008F7D8093C100FF91E2
:10172000EF919F918F910F900FBE0F901F90189582
:1017300080915F01891770F7E5CF2F928F939F9368
:101740002FB68091690190916A0101968093690199
:1017500090936A0190E080916B01891F80936B01E7
:10176000909171019C5F9093710180917001805103
:101770009742C0F0909371018093700180916C0149
:1017800090916D01019680936C0190936D0190E0B2
:1017900080916E01891F80936E0180916F01891F76
:1017A00080936F012FBE9F918F912F90189528EEF7
:1017B00033E009C0F9016F9364E06A95F1F76F9126
:1017C0003197C9F701970097A9F70895A0E7B0E00E
:1017D0008C918E7F8C93E0EBF0E08081836080833E
:1017E000E1EBF0E08081807F808380818260808374
:1017F000B89A8C9181608C9378940895809172014D
:10180000882321F481E080937201E0CF0895F6DF10
:10181000E0E7F0E080818E7F808320916C01309141
:101820006D0140916E0150916F01808181608083D4
:10183000B901CA010895EBCF0895E0DFE0E7F0E0D9
:1018400080818E7F808310926C0110926D011092C6
:101850006E0110926F0110927101109270018081DF
:10186000816080830895E9CF0895089583E791E02A
:1018700089C49C01462F83E791E0B90120E0FAC3B7
:101880009C01462F83E791E0B9013CC383E791E0D7
:10189000A0C0682F83E791E08CC59C01462F83E7A9
:1018A00091E0B90196C20F93DF93CF9300D000D09F
:1018B0000F92CDB7DEB79C01962FDE011196E6E3BD
:1018C000F1E085E001900D928150E1F7BE016F5F7C
:1018D0007F4F992329F083E791E045E00FEF04C0A3
:1018E00083E791E045E003E1BED083E791E059D082
:1018F000A4DF0F900F900F900F900F90CF91DF917A
:101900000F91089560E0CFCFFC0111821082138205
:1019100012821582148217821682613118F080E1DA
:10192000808701C06087208B483060F481E090E0C0
:1019300002C0880F991F4A95E2F74AE250E02BE275
:1019400030E029C04E3080F4242F30E02850304061
:1019500081E090E002C0880F991F2A95E2F744E2E7
:1019600050E025E230E017C0453130F080E040E043
:1019700050E020E030E00FC0242F30E02E50304007
:1019800081E090E002C0880F991F2A95E2F747E2B4
:1019900050E028E230E081873387228755874487EB
:1019A0000895DC011C96ED91FC911D97309781F014
:1019B000808119969C911997892B80831A96ED91B5
:1019C000FC911B97908119968C9180958923808337
:1019D0000895DC0120E040C0ED91FC911197309713
:1019E00061F0822F90E0880F991FE80FF91F1E9673
:1019F0008D919C911F97918380831496ED91FC911A
:101A00001597309761F0822F90E0880F991FE80FAB
:101A1000F91F1E968D919C911F979183808312963A
:101A2000ED91FC911397309741F0822F90E0880F51
:101A3000991FE80FF91F118210821696ED91FC9103
:101A40001797309741F0822F90E0880F991FE80F89
:101A5000F91F118210822F5F18968C911897281702
:101A600008F4BACF0895A0E0B0E0E8E3FDE058C57F
:101A7000EC015B01642F7901402F20E045DFCE01AE
:101A80008F5B9F4FFC011082DE01AE5BBF4F1C924B
:101A9000FE01ED5BFF4F1082FF86EE8640E061E0C5
:101AA00070E06F017D018C014EC0F501E40FF11D66
:101AB0008081883050F49B0102C0220F331F8A9529
:101AC000E2F7922F29E230E01FC08E3060F490E000
:101AD0000897FB0102C0EE0FFF1F8A95E2F79E2FC9
:101AE00023E230E011C0853120F090E020E030E0CA
:101AF0000BC090E00E979B0102C0220F331F8A9506
:101B0000E2F7922F26E230E0E42FF0E0DE01AE0FA4
:101B1000BF1F51969C93EE0FFF1FEC0FFD1F32A3CA
:101B200021A32332310511F4F80109C02632310511
:101B300011F4F70104C02932310521F4F601808146
:101B4000982B90834F5F8885481708F4AECFCDB7A8
:101B5000DEB7EAE001C5A0E0B0E0E0EBFDE0DEC406
:101B6000EC015B01CF5BDF4F4991A9918880C354A1
:101B7000D04090E009C0E92FF0E0EE0FFF1FEA0D22
:101B8000FB1D118210829F5F88859817A0F384B196
:101B9000CF5BDF4F3991832B84B987B12991822B99
:101BA00087B98AB19881C354D040892B8AB985B14D
:101BB000832B85B988B1822B88B98BB1892B8BB9DE
:101BC000EAE0F0E06F9364E06A95F1F76F91319786
:101BD000C9F784B13095832384B987B120958223D6
:101BE00087B98AB1909589238AB985B1382335B9E7
:101BF00088B1282328B98BB198239BB99090B00065
:101C0000C090B1008091B00083608093B00082E00A
:101C10008093B100D090B20060E070E03AC0509183
:101C2000B2005D19650F711DE3B0E41609F04FC0F5
:101C3000F6B0FA1609F04BC089B1881509F047C013
:101C400025C0A42FB0E09D01220F331F8501020F94
:101C5000131FF80180819181892BA1F42C0F3D1F66
:101C6000F90181A192A1FC01208130E0AC0FBD1FE0
:101C700051968C9190E028233923232B19F4F801F5
:101C8000718360834F5F88854817D8F2D50E4E2D3B
:101C9000AF2D8E859F856817790708F29092B00066
:101CA000C092B10020E00FC0E22FF0E0EE0FFF1F66
:101CB000EA0DFB1D80819181892B21F48E859F8502
:101CC000918380832F5F8885281770F305C0E3B068
:101CD000F6B089B040E0D7CFCDB7DEB7ECE03AC47C
:101CE000A0E0B0E0E5E7FEE01DC4EC018B01D09080
:101CF0007C00E0907A00C7B0F8B080917A0086FD51
:101D0000FCCF90E009C0E92FF0E0EE0FFF1FE00FDD
:101D1000F11F118210829F5F88859817A0F397B1F9
:101D20008AA18095982397B998B1892388B987E8C3
:101D300080937A0050E025C0FE01E40FF11D8189F7
:101D4000806480937C0080917A00806480937A0024
:101D500080917A0086FDFCCFE42FF0E0EE0FFF1FAC
:101D6000E00FF11F209178003091790080819181FE
:101D7000820F931F918380834F5F88854817E0F21D
:101D80005F5F89A1581710F040E016C040E0F5CF22
:101D9000E42FF0E0EE0FFF1FE00FF11F69A1862F87
:101DA00090E09595879520813181820F931F70E097
:101DB0004BD3718360834F5F8885481748F3D09277
:101DC0007C00E0927A00F8B8C7B8CDB7DEB7E8E09B
:101DD000C5C3A0E2B0E0EEEEFEE0A3C38C017B0140
:101DE000D42E842F81508230B0F4D8011C96ED910E
:101DF000FC911D97309779F0808119969C911997E5
:101E0000892B80831A96ED91FC911B9780811996FE
:101E10009C91892B8083F8018089882339F5C02E15
:101E2000B12EC801B70197DED8011C96ED91FC9147
:101E30001D97309781F0808119969C911997892B75
:101E400080831A96ED91FC911B97908119968C9145
:101E5000809589238083B2E0DB1609F050C08C2D79
:101E60009B2DBE016F5F7F4F76DE25C0C02EB12E49
:101E7000C801B70135DFD8011C96ED91FC911D9783
:101E8000309781F0808119969C911997892B8083D6
:101E90001A96ED91FC911B97908119968C918095E3
:101EA00089238083B2E0DB1651F58C2D9B2DBE017A
:101EB0006F5F7F4F15DF40E0BE016F5F7F4F1AC03D
:101EC000E42FF0E0EE0FFF1F6701CE0EDF1EE60FDE
:101ED000F71FD8011E962D913C911F97808191810B
:101EE000281B390BF60180819181820F931F91830A
:101EF00080834F5FD80118968C91481708F3A096FD
:101F0000E9E02BC3A0E0B0E0E7E8FFE008C3EC01A4
:101F1000162F072F942E22E0421711F0442351F47C
:101F20008C819D81892B09F4A1C08E819F81892B91
:101F300009F49CC0892D8150823050F488819981A8
:101F4000892B09F493C08A819B81892B09F48EC067
:101F5000CE01612F702F492D3CDF812F902F9C01E6
:101F60005901CC24DD2400E010E07AC081E098160D
:101F700069F4EA81FB81E00FF11F20813181E88162
:101F8000F981E00FF11F408151813DC0AC81BD81DD
:101F9000992059F4EE81FF81E00FF11F20813181FA
:101FA000A00FB11F4D915C912EC0A00FB11F8D915C
:101FB0009C91E881F981E00FF11F20813181EE854C
:101FC000FF858217930710F4AF0105C0A9014E0FDA
:101FD0005F1F481B590BEE81FF81E00FF11F6081ED
:101FE0007181EA81FB81E00FF11F80819181EE8593
:101FF000FF856817790710F49F0105C09C012E0F1B
:102000003F1F261B370B7901E41AF50AF1F0F501A1
:102010006081718180E090E09A0140E050E0621BB5
:10202000730B840B950B28EE33E040E050E0E1D1D8
:10203000970140E050E051D2C901F3E0293E3F074B
:1020400014F088EE93E097FF02C080E090E0F50185
:10205000819391935F010894C11CD11C0E5F1F4FA7
:10206000888590E0C816D9060CF480CFCDB7DEB7CE
:10207000EBE071C2A4E0B0E0EFE3F0E149C28C0113
:10208000F62EE72E2A833EDFD8011896BC91B9833D
:102090002F2D3E2DC9018C0155244424662477241C
:1020A00043011C821B82AA24BB246501B8EE2B2E9F
:1020B000B3E03B2E31C0F801E080F180FA81FF23CC
:1020C00021F0C1018E199F097C0199ECE916F104F8
:1020D00014F044244394A3E3EA16F10494F0B70106
:1020E000882777FD8095982FA601950182D1660EED
:1020F000771E881E991EEB81FC81EE0DFF1DFC836F
:10210000EB83539488EE93E0A0E0B0E0A80EB91EF4
:10211000CA1EDB1E0E5F1F4F9981591660F24420C4
:1021200009F5492F50E04150504084EF91E0489F1D
:102130009001499F300D589F300D11248091B701B7
:102140009091B801821793071CF420E030E016C08C
:1021500088EE93E0489F9001499F300D589F300DC5
:1021600011240CC0AB81BC819D0140E050E0C40152
:10217000B30191D12093B7013093B801C9012496DE
:10218000E2E1E2C1CF93DF93EC018A819B8100976A
:1021900009F0A8D28E819F81009709F0A3D288818F
:1021A0009981009709F09ED28C819D81009709F05A
:1021B00099D2DF91CF910895A3E6B0E0E1EEF0E18E
:1021C000A7C17C015B016A01A2962FAFA297DA0139
:1021D0008D919C91892B09F5F701808590E0880FFE
:1021E000991FD3D1D6018D939C93009709F4DDC03C
:1021F00020E030E00CC0C901880F991FD601ED9195
:10220000FC91E80FF91F118210822F5F3F4FF701F9
:10221000808590E02817390774F3D5018D919C9142
:10222000892B89F000E010E03E010894611C711CCC
:1022300041E4242E312C2C0E3D1E31E2432E512C34
:102240004C0E5D1E27C0F701808590E0880F991F16
:102250009CD1D5018D939C93009709F4A6C020E0F2
:1022600030E011C0C901880F991FD501ED91FC9193
:10227000E80FF91FD7011E968D919C911F979183AE
:1022800080832F5F3F4FF701808590E02817390743
:102290004CF3C8CFC701B301A2964FADA29799DD09
:1022A000D70118968C91882E9924A101F301A49648
:1022B0005FAE4EAEA49760E070E034C0011511052A
:1022C00059F0A496AEADBFADA4972D913C918081FD
:1022D00091812817390758F480819181A496AEAD79
:1022E000BFADA4978D939C930115110541F0DA01C0
:1022F0002D913C91808191818217930728F48081F0
:102300009181DA018D939C936F5F7F4F4E5F5F4F9A
:102310003296A4968EAD9FADA4970296A4969FAFD9
:102320008EAFA497681579054CF20F5F1F4F0A30E6
:10233000110509F0AFCF40E050E020E030E08E0121
:102340000F5B1F4FBE016F5D7F4F28C0F801E20F8A
:10235000F31F80809180F601A081B181A20FB31F8D
:102360008D919C9111978815990510F48D929C92EE
:10237000FB01E20FF31F80809180F501A081B18104
:10238000A20FB31F8D919C9111978816990610F496
:102390008D929C924F5F5F4F2E5F3F4FD7011896F3
:1023A0008C9190E0481759078CF2CD59DF4FE2E14C
:1023B000CBC01F93CF93DF93EC01162F862F815054
:1023C000823038F4AE014E5F5F4FCE01BE0121E096
:1023D000F3DE123011F0112341F4AE014A5F5F4F7A
:1023E000CE012496BE0120E0E7DEDF91CF911F9160
:1023F0000895629FD001739FF001829FE00DF11D4F
:10240000649FE00DF11D929FF00D839FF00D749F6E
:10241000F00D659FF00D9927729FB00DE11DF91F1A
:10242000639FB00DE11DF91FBD01CF011124089577
:10243000991B79E004C0991F961708F0961B881F16
:102440007A95C9F780950895AA1BBB1B51E107C077
:10245000AA1FBB1FA617B70710F0A61BB70B881F34
:10246000991F5A95A9F780959095BC01CD010895C3
:1024700097FB092E07260AD077FD04D0E5DF06D0AA
:1024800000201AF4709561957F4F0895F6F79095A6
:1024900081959F4F0895A1E21A2EAA1BBB1BFD0137
:1024A0000DC0AA1FBB1FEE1FFF1FA217B307E40733
:1024B000F50720F0A21BB30BE40BF50B661F771F8B
:1024C000881F991F1A9469F760957095809590956B
:1024D0009B01AC01BD01CF01089597FB092E052694
:1024E0000ED057FD04D0D7DF0AD0001C38F4509529
:1024F0004095309521953F4F4F4F5F4F0895F6F728
:1025000090958095709561957F4F8F4F9F4F08955F
:102510002F923F924F925F926F927F928F929F92F3
:10252000AF92BF92CF92DF92EF92FF920F931F93E1
:10253000CF93DF93CDB7DEB7CA1BDB0B0FB6F89492
:10254000DEBF0FBECDBF09942A88398848885F84D2
:102550006E847D848C849B84AA84B984C884DF8043
:10256000EE80FD800C811B81AA81B981CE0FD11D27
:102570000FB6F894DEBF0FBECDBFED010895EE0F8C
:10258000FF1F0590F491E02D0994CF93DF93BC01D8
:102590008230910510F462E070E0A0918F02B0915A
:1025A0009002ED01E0E0F0E040E050E021C08881E1
:1025B00099818617970769F48A819B81309719F072
:1025C0009383828304C09093900280938F02FE01D4
:1025D00034C06817790738F44115510519F084178C
:1025E000950708F4AC01FE018A819B819C01E901F9
:1025F0002097E9F641155105A9F1CA01861B970BF1
:10260000049708F4BA01E0E0F0E02AC08D919C91B3
:10261000119784179507F9F46417750781F41296DA
:102620008D919C911397309719F09383828304C006
:102630009093900280938F02FD0132964FC0CA01A1
:10264000861B970BFD01E80FF91F619371930297A9
:102650008D939C9343C0FD01828193819C01D9019C
:102660001097A1F680918D0290918E02892B41F4F2
:1026700080913D0190913E0190938E0280938D0256
:1026800040913F01509140014115510541F44DB732
:102690005EB780913B0190913C01481B590B209102
:1026A0008D0230918E0224173507B0F4CA01821BC7
:1026B000930B8617970780F0AB014E5F5F4F84172F
:1026C000950750F0420F531F50938E0240938D0296
:1026D000F9016193719302C0E0E0F0E0CF01DF9176
:1026E000CF910895CF93DF93009709F450C0EC0188
:1026F00022971B821A82A0918F02B09190021097AC
:1027000009F140E050E0AC17BD0708F1BB83AA8394
:10271000FE0121913191E20FF31FAE17BF0779F44B
:102720008D919C911197280F391F2E5F3F4F398350
:10273000288312968D919C9113979B838A834115D0
:10274000510571F4D0939002C0938F0220C012966D
:102750008D919C911397AD01009711F0DC01D3CFBF
:10276000FA01D383C28321913191E20FF31FCE1777
:10277000DF0769F488819981280F391F2E5F3F4F49
:10278000FA01318320838A819B8193838283DF9145
:10279000CF91089510E0C2E8D0E003C0FE01F1DE61
:0C27A0002296C438D107D1F7F894FFCF7F
:1027AC006F336300426164206461746100630033C1
:1027BC007069312E310042616420636D64006F37A3
:1027CC006C313663726300FF881301040400D00778
:1027DC00F4010F0002080E0F1011122000910200DC
:0227EC000000EB
:00000001FF
