:1000000033C000004CC000004AC0000048C00000DF
:1000100046C0000044C0000042C0000040C00000D4
:100020003EC00000B4C300003AC0000038C0000069
:1000300036C0000034C0000032C0000030C00000F4
:100040002EC000002CC000002AC0000028C0000004
:1000500026C0000024C0000022C0000020C0000014
:100060001EC000001CC0000011241FBECFEFD8E04E
:10007000DEBFCDBF11E0A0E0B1E0E2E6F9E002C0F2
:1000800005900D92AE34B107D9F711E0AEE4B1E0BE
:1000900001C01D92AF36B107E1F702D060C4B0CF06
:1000A000FF920F931F93AAD280E091E031D380E0BA
:1000B00061E076D287E091E02BD388EE93E0A1D384
:1000C0009DD28EE091E024D380E061E069D286E1A8
:1000D00091E01ED382E359D3F82E90D280E1F81636
:1000E00079F080E2F816A9F082E0F816D9F48FE1F1
:1000F00091E00ED380E061E053D287E291E011C03D
:100100008FE191E005D380E061E04AD28CE291E09A
:1001100008C081E391E0FCD280E061E041D287E356
:1001200091E0F6D288EE93E06CD368D280917C00A7
:100130008F7D80937C0080E060E032D2A7D0D7D062
:10014000A0E0B0E0BC01CD01D5D28EE391E0E0D2D9
:1001500080E061E025D280E1F81619F180E2F8161E
:1001600079F182E0F81609F034C0ECD08C016AE035
:1001700070E089D3882777FD8095982FBBD28EE2D7
:10018000C9D2C8016AE070E07ED3AA2797FDA09586
:10019000BA2FBC01CD01AED28FEDBCD285E491E087
:1001A00017C086E06AE070E075D0A1D09C01220FF4
:1001B000331F280F391F40E050E0CA01B90105C0C4
:1001C000E7D0A0E0B0E0BC01CD0194D28EE391E095
:1001D0009FD282E390E015D3AECFEF92FF920F93C0
:1001E0001F93982F803278F487E880937A0080916B
:1001F0007C0080648076892B80937C0080917A00DB
:10020000806480937A0080917A0086FDFCCFFB01A8
:10021000EE24FF24870180917A00806480937A0025
:1002200080917A0086FDFCCF80917C0085FF04C020
:100230008091790090E004C08091780090917900DD
:10024000A0E0B0E0E80EF91E0A1F1B1F319719F756
:10025000CB01969587956034710530F48E0D9F1D06
:1002600070E0FDD29B010CC0A0E0B0E0E80EF91EEA
:100270000A1F1B1F9B0140E050E0C801B70116D3C5
:10028000C9011F910F91FF90EF90089587E064E1FD
:1002900070E0A3CFA2CF0895A0E0B0E020914A0182
:1002A00030914B0140E050E0BC01CD01B9D29B013F
:1002B000AC0180917C0085FF0BC0B901CA01615877
:1002C0007F4F8F4F9F4F2FEF30E040E050E00AC04C
:1002D000B901CA0161507E4F8F4F9F4F2FEF33E01E
:1002E00040E050E0E3D2C901089577DFD5CFD4CF05
:1002F00008951F9310917C0080917C008F7D8093E6
:100300007C0086E064E170E0F0DF9C0115FD04C034
:1003100080917C008F7D03C080917C0080628093FF
:100320007C00C901880F991F820F931F880F991FA6
:10033000880F991F8A5792406DE070E0A4D2CB01DC
:100340001F910895D6CF08951F9310917C0080913E
:100350007C008F7D80937C0086E06AE070E0C5DFE2
:10036000AC0115FD04C080917C008F7D03C080919D
:100370007C00806280937C009A01220F331F240F3F
:10038000351F2F5F3F4F36952795C9011F9108955F
:10039000DBCF0895EF92FF920F931F936AB15798A6
:1003A0005A98289AE0905201F0905301009154011C
:1003B0001091550120E030E041E050E0CA016F9318
:1003C00064E06A95F1F76F910197C9F75C9ACA01E9
:1003D0006F9364E06A95F1F76F910197C9F789B15E
:1003E0005C98FA016F9364E06A95F1F76F91319729
:1003F000C9F75C9AFA016F9364E06A95F1F76F911F
:100400003197C9F75C9887FF0BC02C5F3F4FC9013C
:10041000A0E0B0E08E159F05A007B10708F4CECF8D
:100420006AB91F910F91FF90EF90089565B190E028
:10043000AC0141705070440F551F9C012670307004
:1004400053E0220F331F5A95E1F7422B6D7C462B68
:1004500045B92BB18870907034E0880F991F3A9598
:10046000E1F72F77282B2BB95C9A81E090E0FC0113
:100470006F9364E06A95F1F76F913197C9F75C98D3
:100480006F9364E06A95F1F76F910197C9F708954A
:1004900080E197E2A0E0B0E0809352019093530195
:1004A000A0935401B0935501529A209A549A8EE128
:1004B00090E0A7D183E030D186E090E0A2D183E044
:1004C0002BD182E090E09DD183E026D182E090E0C4
:1004D00098D182E021D182E090E093D188E241D0AE
:1004E00088E03FD081E03DD086E03BD08CE039C051
:1004F00080915601882321F481E080935601C8CF72
:100500000895BF92CF92DF92EF92FF920F931F93C5
:10051000082F162FF42EECDF3DDFB4B0C5B0DAB0F3
:10052000EBB02898112311F05A9A01C05A9884B15F
:10053000826384B9579A81E0F81621F0802F829562
:100540008F7074DF802F8F7071DFDAB8EBB8B4B8BA
:10055000C5B81F910F91FF90EF90DF90CF90BF90A3
:10056000089560E042E0CDCFA4E0B0E0E9EBF2E036
:10057000CDC1182F062F80E8898380EC8A8384E917
:100580008B8384ED8C83FE01E60FF11D8181810F49
:10059000E8DF10935101009350012496E4E0D2C1AA
:1005A000E3CF089581E0DDDF80914E0190914F010E
:1005B000892B19F160E070E208C0E0914E01F091E2
:1005C0004F01E40FF51F70836F5F462F50E080915D
:1005D0004C0190E0019720914D0130E0FC01E29F39
:1005E000C001E39F900DF29F900D11244817590709
:1005F00024F310925101109250010895D3CF089521
:1006000061E042E07ECF6F927F928F929F92AF9295
:10061000BF92CF92DF92FF920F93DF93CF93CDB72C
:10062000DEB72A970FB6F894DEBF0FBECDBF5B01D1
:100630006C010AE03E010894611C711CFA2CC60191
:10064000B5012AE030E040E050E030D1C901DA01E4
:100650005C016D0101504301800E911C80E3F80E96
:10066000C601B5012AE030E040E050E0D9D0F61AEA
:10067000F401F082A114B104C104D104F9F607C059
:10068000F601E00FF11D8081BBDF0F5F04C06E013A
:100690000894C11CD11C0A3098F32A960FB6F8941E
:1006A000DEBF0FBECDBFCF91DF910F91FF90DF90E6
:1006B000CF90BF90AF909F908F907F906F90089554
:1006C000EF92FF920F931F937B018C0197FF0AC05B
:1006D00010950095F094E094E11CF11C011D111D92
:1006E0008DE28EDFC801B7018EDF1F910F91FF9061
:1006F000EF900895E5CF0895CF93DF93EC0102C00A
:1007000021967EDF88818823D9F7DF91CF910895E4
:10071000F3CF089575CF089560E041E0F2CE1F93C6
:10072000CF93DF93182F80915701882391F481E0B4
:100730008093570184B18D7C84B985B1826385B97A
:1007400085E090E06F9364E06A95F1F76F9101970F
:10075000C9F7C12FD0E083B190E0809590958C23AC
:100760009D23892BC1F38AE090E04BD083B190E0C8
:10077000809590958C239D23892B69F383B1809577
:100780008123DF91CF911F910895C9CF08952F92B2
:100790008F939F932FB6809165019091660101968A
:1007A000809365019093660190E080916701891FB5
:1007B0008093670190916D019C5F90936D01809192
:1007C0006C0180519742C0F090936D0180936C0151
:1007D00080916801909169010196809368019093DE
:1007E000690190E080916A01891F80936A0180917C
:1007F0006B01891F80936B012FBE9F918F912F906A
:10080000189528EE33E009C0F9016F9364E06A950A
:10081000F1F76F913197C9F701970097A9F70895FC
:10082000629FD001739FF001829FE00DF11D649FD4
:10083000E00DF11D929FF00D839FF00D749FF00D60
:10084000659FF00D9927729FB00DE11DF91F639F01
:10085000B00DE11DF91FBD01CF0111240895AA1BA0
:10086000BB1B51E107C0AA1FBB1FA617B70710F09B
:10087000A61BB70B881F991F5A95A9F780959095CD
:10088000BC01CD01089597FB092E07260AD077FDFC
:1008900004D0E5DF06D000201AF4709561957F4FF3
:1008A0000895F6F7909581959F4F0895A1E21A2E2D
:1008B000AA1BBB1BFD010DC0AA1FBB1FEE1FFF1F04
:1008C000A217B307E407F50720F0A21BB30BE40B54
:1008D000F50B661F771F881F991F1A9469F760959B
:1008E0007095809590959B01AC01BD01CF01089555
:1008F0002F923F924F925F926F927F928F929F9230
:10090000AF92BF92CF92DF92EF92FF920F931F931D
:10091000CF93DF93CDB7DEB7CA1BDB0B0FB6F894CE
:10092000DEBF0FBECDBF09942A88398848885F840E
:100930006E847D848C849B84AA84B984C884DF807F
:10094000EE80FD800C811B81AA81B981CE0FD11D63
:100950000FB6F894DEBF0FBECDBFED010895F89439
:02096000FFCFC7
:1009620073656C6563740064657669636500412034
:100972002042202043004C56205356203370002042
:100982004F72616E672E0020204C56002020535675
:100992000020203370690020526F626F7400206D56
:0E09A200562020200046202020008813020846
:00000001FF
