:10000000D0C00000E9C00000E7C00000E5C000006B
:10001000E3C00000E1C00000DFC00000DDC0000060
:10002000DBC000009EC60000D7C00000D5C00000A5
:10003000D3C0000094C40000CFC00000CDC00000B9
:10004000CBC00000C9C00000C7C00000C5C0000090
:10005000C3C00000C1C00000BFC00000BDC00000A0
:10006000BBC00000B9C0000025022B022E023102E5
:10007000340237023A023D0240024302460249027C
:100080004F3620543430204C31362064233C623CBF
:1000900066233C64233C66233C6264236623543815
:1000A000302063233C622D3C66233C63233C662363
:1000B0003C622D63233854313830206423623C661F
:1000C00023642366233E62642366236323622D3CFC
:1000D0006623632366233E622D63233820633E63D9
:1000E000233C63233E63233C623E63233C63233E05
:1000F0006323633E63233C63233E63233C623E638E
:10010000233C63233E6323633E63233C63233E63BC
:10011000233C622D3E63233C63233E6323633E63A3
:10012000233C63233E63233C622D3E63233C6323D5
:100130003E6323633E63233C63233E6323663E6347
:10014000233C63233E6323633E63233C63233E637C
:1001500023663E63233C63233E6323633E63233C69
:1001600063233E632366233E63233C63233E632372
:10017000633E63233C63233E632366233E63233C49
:1001800063233E6323642362622D626423626623D9
:1001900064236323622D61622D6323622D662364D1
:1001A000230011241FBECFEFD8E0DEBFCDBF11E08A
:1001B000A0E0B1E0EAE6FFE002C005900D92A832AF
:1001C000B107D9F711E0A8E2B1E001C01D92A53452
:1001D000B107E1F702D0C7C613CF1F93CF93DF93C8
:1001E00014BC84E085BD80E890E0B7D380E020D4E3
:1001F00080E060E027D580E091E0AED5C0E0D0E0BF
:10020000599A519A84EF91E0E6D55998519A84EF22
:1002100091E0E1D52196C830D10591F780E060E00A
:1002200011D587E091E098D580E061E00BD58EE0B4
:1002300091E092D581E0FCD3C0E0D0E010E016BCA4
:1002400086B58431E8F386B5181708F416B5F2D3ED
:1002500021968FE1C034D80791F780E061E0F2D4B5
:1002600087E191E079D5612F70E080E090E066D57C
:100270008CE191E071D5BACFA0E0B0E0E1E4F1E02B
:100280003DC6FC015B01C42E809128018823C9F47E
:1002900081E08093280110926F0083E280938000B8
:1002A00081E1809381001092820080E197E2909337
:1002B00089008093880010928B0010928A00229A05
:1002C000789410921E01F7FD03C0DD24D39403C07F
:1002D000FF772AE0D22E80918100082F10E0087F5E
:1002E000107088ECD89EC00111248E179F07B8F4B7
:1002F000EF0187E2E131F80710F0C0E1D7E2BE017B
:100300007695679580E090E06058794687469F4FE4
:100310009E0140E050E0ADD57901016023C088E244
:10032000D89E802D1124C82FD0E0CE17DF0708F407
:10033000EF01BE01769567959E0140E050E08AE0AE
:10034000D81639F480E090E0605E734481449F4F9A
:1003500006C080E090E060537D4E8C4E9F4F89D563
:10036000790102608AE0D81631F4CE0105966AE080
:1003700070E06BD5EB0183E0C83ED80711F4B501FE
:100380000DC0BE0180E090E0950140E050E032D524
:1003900028EE33E040E050E08ED5B90110926F00B6
:1003A00000938100F0928900E0928800E09188003B
:1003B000F0918900AC2DA03108F0AFE080E190E031
:1003C0008A1B910902C0F695E7958A95E2F7F093AA
:1003D0008B00E0938A007093300160932F0186B305
:1003E0008FEF86BB81E080936F00CDB7DEB7EAE088
:1003F000A1C5CF93DF93EB018F3F11F0442329F484
:1004000088EE93E0BE0140E064C0813110F420E04A
:1004100005C0282F2051203608F02FE5822F6CE0F0
:1004200008D5382F682F70E084EF9FEF689FF001A8
:10043000699FF00D789FF00D1124E20FF11DEC3053
:10044000F10530F4EC5CFF4F88C58CE991E023C0E6
:1004500080E090E020C085EB91E01DC08FEC91E042
:100460001AC08AEE91E017C087E092E014C086E2DD
:1004700092E011C087E492E00EC089E692E00BC0E2
:100480008EE892E008C085EB92E005C08EED92E028
:1004900002C08AE093E0373071F002C0880F991FE4
:1004A0006A95E2F7323020F005966AE070E00BC002
:1004B000805090480AC036E0880F991F3A95E1F7BE
:1004C000029665E070E0C1D4CB01403108F04FE006
:1004D000BE01D2DEDF91CF91089530912D01E091E0
:1004E0002901F0912A01332311F0249101C02081C8
:1004F000822F81548A3108F4205E203259F4809191
:10050000290190912A01019690932A018093290153
:10051000019729F7822F0895CF93DF93DEDF282FED
:10052000C0E0D0E01CC0CE0153E0880F991F5A955F
:10053000E1F7CC0FDD1FC80FD91F822F992787FD48
:100540009095C80FD91FE0978091290190912A01B9
:10055000019690932A0180932901BFDF282F822FD3
:1005600080538A3000F3CE01DF91CF910895A0E04F
:10057000B0E0ECEBF2E0C0C480901F01B0902B0122
:10058000BB2021F060912C01662399F4A0902C01EE
:100590000091240110912501E0902001F0902101AB
:1005A000C0912201D0912301C0902601D090270153
:1005B00003C18FEF70E040E01CDF10922C01BDC141
:1005C00094E0892EBB2404EF11E084E0E82EF12CA6
:1005D000C0EDD7E0B4E09B2EAFE0CA2ED12C7DDF7A
:1005E000282F8091290190912A01019690932A0148
:1005F00080932901263609F498C02736CCF4223698
:10060000A1F1233674F42E3361F12F3334F4213207
:10061000B9F22C3309F004C126C0213609F000C11B
:100620001AC1243609F451C025360CF066C035C015
:100630002F3609F4BFC0203754F42C3609F4A5C076
:100640002D3609F4A5C0273609F0EAC086C0243744
:1006500009F4CEC0263709F4E0C0223709F0E0C023
:10066000ADC08394BCCF8A94BACFA0922C01B09233
:100670002B011093250100932401F0922101E092B7
:100680002001D0932301C093220190921F01D092A8
:100690002701C09226012BE0F5C0A0922C01B09258
:1006A0002B011093250100932401F0922101E09287
:1006B0002001D0932301C093220190921F01D09278
:1006C0002701C092260120E0DDC0A0922C01B0924B
:1006D0002B011093250100932401F0922101E09257
:1006E0002001D0932301C093220190921F01D09248
:1006F0002701C092260122E0C5C0A0922C01B09231
:100700002B011093250100932401F0922101E09226
:100710002001D0932301C093220190921F01D09217
:100720002701C092260124E0ADC0A0922C01B09216
:100730002B011093250100932401F0922101E092F6
:100740002001D0932301C093220190921F01D092E7
:100750002701C092260125E095C0A0922C01B092FD
:100760002B011093250100932401F0922101E092C6
:100770002001D0932301C093220190921F01D092B7
:100780002701C092260127E07DC0C6DE7C0140C063
:10079000A4DE8C3611F4BB2403C0AA24BB24B3947A
:1007A0008091290190912A01019690932A018093CA
:1007B000290115CFB1DE882E982C11CFA0922C01E3
:1007C000B0922B011093250100932401F092210196
:1007D000E0922001D0932301C093220190921F0147
:1007E000D0922701C092260120E0FF24F3944BC051
:1007F00093DEBC0180EC9DE528D3CB01EB01F3E057
:10080000CC0FDD1FFA95E1F7880F991FC80FD91F8C
:10081000CE01B7011AD38B01E2CE7EDE6C01DFCEB2
:10082000A0922C01B0922B0110932501009324017A
:10083000F0922101E0922001D0932301C093220184
:1008400090921F01D0922701C092260110922A0196
:100850001092290172C0A0922C01B0922B0110932A
:10086000250100932401F0922101E0922001D09310
:100870002301C093220190921F01D0922701C092C0
:10088000260129E0FF248CE0889EC0011124E22E7D
:10089000E80E0AC08091290190912A010196909357
:1008A0002A0180932901E39418DE8B3299F3833275
:1008B00089F30BC08091290190912A0101969093B0
:1008C0002A0180932901EA9408DE8D3299F3C091C0
:1008D0002401D09125018153883048F400912201F0
:1008E0001091230119DEBC01C801AFD2EB018E01CA
:1008F0000BC08091290190912A01019690932A01C1
:1009000080932901C00FD11F16950795E6DD8E3221
:1009100081F380912B01882339F0CE01969587953C
:1009200080932C01C81BD109FF2011F0EE24EA941A
:100930008E2DBE01409126015CDDCDB7DEB7ECE027
:10094000F7C210926F0090932A018093290181E0F1
:1009500080932D0110922C010ACEF3CF08951F929F
:100960000F920FB60F9211242F933F934F935F93E3
:100970006F937F938F939F93AF93BF93EF93FF9367
:1009800080912F01909130010197909330018093D5
:100990002F01019609F510926F00789480918100E3
:1009A000887F81608093810080E197E29093890045
:1009B0008093880010928B0010928A0081E08093CF
:1009C0001E018091290190912A01892B29F08091A3
:1009D0002E01882309F4CBDDFF91EF91BF91AF91F8
:1009E0009F918F917F916F915F914F913F912F9147
:1009F0000F900FBE0F901F90189580911E018823B5
:100A000039F08091290190912A01892B09F0AFDDFD
:100A100020E08091290190912A01892B09F021E0A1
:100A2000822F089580932E01882309F4E6CF08953C
:100A3000F9CF0895E2CF0895EF92FF920F931F939D
:100A40006AB157985A98289AE0903501F09036018B
:100A5000009137011091380120E030E041E050E092
:100A6000CA016F9364E06A95F1F76F910197C9F736
:100A70005C9ACA016F9364E06A95F1F76F910197F0
:100A8000C9F789B15C98FA016F9364E06A95F1F750
:100A90006F913197C9F75C9AFA016F9364E06A9598
:100AA000F1F76F913197C9F75C9887FF0BC02C5F06
:100AB0003F4FC901A0E0B0E08E159F05A007B10728
:100AC00008F4CECF6AB91F910F91FF90EF9008956F
:100AD00065B190E0AC0141705070440F551F9C010E
:100AE0002670307053E0220F331F5A95E1F7422BE6
:100AF0006D7C462B45B92BB18870907034E0880F1F
:100B0000991F3A95E1F72F77282B2BB95C9A81E052
:100B100090E0FC016F9364E06A95F1F76F91319773
:100B2000C9F75C986F9364E06A95F1F76F9101974C
:100B3000C9F7089580E197E2A0E0B0E08093350125
:100B400090933601A0933701B0933801529A209ABE
:100B5000549A8EE190E03FD183E000D186E090E0AE
:100B60003AD183E0FBD082E090E035D183E0F6D04B
:100B700082E090E030D182E0F1D082E090E02BD1B1
:100B800088E241D088E03FD081E03DD086E03BD094
:100B90008CE039C080913901882321F481E0809371
:100BA0003901C8CF0895BF92CF92DF92EF92FF92A2
:100BB0000F931F93082F162FF42EECDF3DDFB4B0F8
:100BC000C5B0DAB0EBB02898112311F05A9A01C0E1
:100BD0005A9884B1826384B9579A81E0F81621F05B
:100BE000802F82958F7074DF802F8F7071DFDAB85D
:100BF000EBB8B4B8C5B81F910F91FF90EF90DF909C
:100C0000CF90BF90089560E042E0CDCFA4E0B0E087
:100C1000EBE0F6E079C1182F062F80E8898380EC9D
:100C20008A8384E98B8384ED8C83FE01E60FF11DBA
:100C30008181810FE8DF1093340100933301249602
:100C4000E4E07EC1E3CF089561E042E0ACCF6F9273
:100C50007F928F929F92AF92BF92CF92DF92FF923C
:100C60000F93DF93CF93CDB7DEB72A970FB6F894E3
:100C7000DEBF0FBECDBF5B016C010AE03E010894F0
:100C8000611C711CFA2CC601B5012AE030E040E07D
:100C900050E0EFD0C901DA015C016D010150430160
:100CA000800E911C80E3F80EC601B5012AE030E009
:100CB00040E050E09FD0F61AF401F082A114B10494
:100CC000C104D104F9F607C0F601E00FF11D8081DF
:100CD000BBDF0F5F04C06E010894C11CD11C0A3039
:100CE00098F32A960FB6F894DEBF0FBECDBFCF9112
:100CF000DF910F91FF90DF90CF90BF90AF909F90CA
:100D00008F907F906F900895EF92FF920F931F93B3
:100D10007B018C0197FF0AC010950095F094E09438
:100D2000E11CF11C011D111D8DE28EDFC801B70110
:100D30008EDF1F910F91FF90EF900895E5CF0895FA
:100D4000CF93DF93EC0102C021967EDF8881882358
:100D5000D9F7DF91CF910895F3CF089560E041E096
:100D600022CF2F928F939F932FB680913B0190912A
:100D70003C01019680933B0190933C0190E080916F
:100D80003D01891F80933D01909143019C5F9093A9
:100D900043018091420180519742C0F090934301FA
:100DA0008093420180913E0190913F010196809392
:100DB0003E0190933F0190E080914001891F809314
:100DC000400180914101891F809341012FBE9F9175
:100DD0008F912F90189528EE33E009C0F9016F9399
:100DE00064E06A95F1F76F913197C9F70197009721
:100DF000A9F70895629FD001739FF001829FE00DD3
:100E0000F11D649FE00DF11D929FF00D839FF00D89
:100E1000749FF00D659FF00D9927729FB00DE11D35
:100E2000F91F639FB00DE11DF91FBD01CF01112412
:100E30000895991B79E004C0991F961708F0961B36
:100E4000881F7A95C9F780950895AA1BBB1B51E1AD
:100E500007C0AA1FBB1FA617B70710F0A61BB70B2A
:100E6000881F991F5A95A9F780959095BC01CD01CF
:100E70000895A1E21A2EAA1BBB1BFD010DC0AA1FDB
:100E8000BB1FEE1FFF1FA217B307E407F50720F0F3
:100E9000A21BB30BE40BF50B661F771F881F991F6E
:100EA0001A9469F760957095809590959B01AC01B7
:100EB000BD01CF01089597FB092E05260ED057FDE1
:100EC00004D0D7DF0AD0001C38F4509540953095F7
:100ED00021953F4F4F4F5F4F0895F6F790958095BE
:100EE000709561957F4F8F4F9F4F08952F923F923E
:100EF0004F925F926F927F928F929F92AF92BF922A
:100F0000CF92DF92EF92FF920F931F93CF93DF93D5
:100F1000CDB7DEB7CA1BDB0B0FB6F894DEBF0FBE32
:100F2000CDBF09942A88398848885F846E847D847F
:100F30008C849B84AA84B984C884DF80EE80FD8081
:100F40000C811B81AA81B981CE0FD11D0FB6F894F7
:100F5000DEBF0FBECDBFED010895EE0FFF1F059060
:0A0F6000F491E02D0994F894FFCFFE
:100F6A00626C696E6B210074696D696E670020207E
:100F7A00202020202020006D61783D0020000104FF
:080F8A000400D007F4010F0080
:00000001FF
