:1000000033C000004CC000004AC0000048C00000DF
:1000100046C0000044C0000042C0000040C00000D4
:100020003EC000003CC000003AC0000038C00000E4
:1000300036C0000034C0000032C0000030C00000F4
:100040002EC000002CC000002AC0000028C0000004
:1000500026C0000024C0000022C0000020C0000014
:100060001EC000001CC0000011241FBECFEFD8E04E
:10007000DEBFCDBF11E0A0E0B1E0E4E0F2E002C0FD
:1000800005900D92A030B107D9F711E0A0E0B1E0E2
:1000900001C01D92A030B107E1F756D0B1C0B0CF7A
:1000A000FC01118210821382128215821482168240
:1000B0006830A0F489E290E0918380838BE290E045
:1000C000938382838AE290E09583848381E090E049
:1000D00002C0880F991F6A95E2F719C06E30C8F404
:1000E00083E290E09183808385E290E09383828332
:1000F00084E290E095838483262F30E028503040BE
:1001000081E090E002C0880F991F2A95E2F786836C
:1001100008956531C0F486E290E09183808388E29F
:1001200090E09383828387E290E095838483262FF7
:1001300030E02E50304081E090E002C0880F991FDF
:100140002A95E2F786830895A7E0B0E0E9EAF0E0B7
:1001500048C08E010F5F1F4FC8016FE0A1DFED8126
:10016000FE8190818F81809589238083EB81FC8142
:1001700080819F81892B8083F02E012F8F2D902FDE
:100180006FE08EDFE981FA8180819F81892351F0C0
:100190008F2D902F61E084DFEB81FC8180819F8136
:1001A000892B0AC08F2D902F61E07ADFEB81FC81D3
:1001B00090818F81809589238083ED81FE8180816C
:1001C0009F81892B8083DACF2F923F924F925F924B
:1001D0006F927F928F929F92AF92BF92CF92DF9257
:1001E000EF92FF920F931F93CF93DF93CDB7DEB7BC
:1001F000CA1BDB0B0FB6F894DEBF0FBECDBF099450
:04020000F894FFCFA0
:00000001FF
