:1000000033C000004CC000004AC0000048C00000DF
:1000100046C0000044C0000042C0000040C00000D4
:100020003EC00000BDC100003AC0000038C0000062
:1000300036C0000034C0000032C0000030C00000F4
:100040002EC000002CC000002AC0000028C0000004
:1000500026C0000024C0000022C0000020C0000014
:100060001EC000001CC0000011241FBECFEFD8E04E
:10007000DEBFCDBF11E0A0E0B1E0E4EAF4E002C0F1
:1000800005900D92A830B107D9F711E0A8E0B1E0D2
:1000900001C01D92AC31B107E1F702D001C2B0CF6F
:1000A00080E091E05ED188EC90E0B4D181E063E043
:1000B00048EC50E073D144D183E061E013D180E09B
:1000C00091E04FD188EC90E0A5D180E063E048EC6E
:1000D00050E064D135D1E4CFEF92FF920F931F939C
:1000E0006AB157985A98289AE0900C01F0900D0147
:1000F00000910E0110910F0120E030E041E050E04E
:10010000CA016F9364E06A95F1F76F910197C9F79F
:100110005C9ACA016F9364E06A95F1F76F91019759
:10012000C9F789B15C98FA016F9364E06A95F1F7B9
:100130006F913197C9F75C9AFA016F9364E06A9501
:10014000F1F76F913197C9F75C9887FF0BC02C5F6F
:100150003F4FC901A0E0B0E08E159F05A007B10791
:1001600008F4CECF6AB91F910F91FF90EF900895D8
:1001700065B190E0AC0141705070440F551F9C0177
:100180002670307053E0220F331F5A95E1F7422B4F
:100190006D7C462B45B92BB18870907034E0880F88
:1001A000991F3A95E1F72F77282B2BB95C9A81E0BC
:1001B00090E0FC016F9364E06A95F1F76F913197DD
:1001C000C9F75C986F9364E06A95F1F76F910197B6
:1001D000C9F7089580E197E2A0E0B0E080930C01B8
:1001E00090930D01A0930E01B0930F01529A209AA3
:1001F000549A8EE190E00ED183E0B5D086E090E095
:1002000009D183E0B0D082E090E004D183E0ABD0AC
:1002100082E090E0FFD082E0A6D082E090E0FAD0C9
:1002200088E241D088E03FD081E03DD086E03BD0FD
:100230008CE039C080911001882321F481E0809303
:100240001001C8CF0895BF92CF92DF92EF92FF9234
:100250000F931F93082F162FF42EECDF3DDFB4B061
:10026000C5B0DAB0EBB02898112311F05A9A01C04A
:100270005A9884B1826384B9579A81E0F81621F0C4
:10028000802F82958F7074DF802F8F7071DFDAB8C6
:10029000EBB8B4B8C5B81F910F91FF90EF90DF9005
:1002A000CF90BF90089560E042E0CDCFA4E0B0E0F1
:1002B000EBE5F1E0CCC0182F062F80E8898380ECB5
:1002C0008A8384E98B8384ED8C83FE01E60FF11D24
:1002D0008181810FE8DF10930B0100930A012496BE
:1002E000E4E0D1C0E3CF089581E0DDDF8091080133
:1002F00090910901892B19F160E070E208C0E0914A
:100300000801F0910901E40FF51F70836F5F462F1C
:1003100050E08091060190E001972091070130E0C4
:10032000FC01E29FC001E39F900DF29F900D11240C
:100330004817590724F310920B0110920A010895EF
:10034000D3CF089561E042E07ECFCF93DF93EC01FD
:1003500002C02196F7DF88818823D9F7DF91CF91FA
:100360000895F3CF089560E041E06DCF0F931F93A0
:10037000CF93DF93082F162FEA0109C0002311F451
:1003800088E101C08CE18FDFCE0144D011501123F0
:10039000A9F7DF91CF911F910F910895E7CF0895AD
:1003A0002F928F939F932FB68091120190911301FA
:1003B0000196809312019093130190E080911401B3
:1003C000891F8093140190911A019C5F90931A01E8
:1003D0008091190180519742C0F090931A01809347
:1003E00019018091150190911601019680931501D4
:1003F0009093160190E080911701891F8093170157
:1004000080911801891F809318012FBE9F918F91B1
:100410002F90189528EE33E009C0F9016F9364E03E
:100420006A95F1F76F913197C9F701970097A9F78E
:1004300008952F923F924F925F926F927F928F9288
:100440009F92AF92BF92CF92DF92EF92FF920F9363
:100450001F93CF93DF93CDB7DEB7CA1BDB0B0FB66D
:10046000F894DEBF0FBECDBF09942A88398848882A
:100470005F846E847D848C849B84AA84B984C884C0
:10048000DF80EE80FD800C811B81AA81B981CE0FB7
:10049000D11D0FB6F894DEBF0FBECDBFED0108959C
:0404A000F894FFCFFE
:0804A40048656C6C6F00020852
:00000001FF
