:1000000047C0000060C000005EC000005CC000008F
:100010005AC0000058C0000056C0000054C0000084
:1000200052C0000091C200004EC000004CC0000051
:100030004AC0000048C0000046C0000044C00000A4
:1000400042C0000040C000003EC000003CC00000B4
:100050003AC0000038C0000036C0000034C00000C4
:1000600032C0000030C00000000A0A0A00110E0071
:10007000000A0A0A000E1100000A0A0A00000E0017
:10008000000A0A000E11110E000A0A0A001F0502DA
:1000900011241FBECFEFD8E0DEBFCDBF11E0A0E03E
:1000A000B1E0E2EBF7E002C005900D92A031B1079C
:1000B000D9F711E0A0E1B1E001C01D92A133B10771
:1000C000E1F702D074C39CCFEF92FF920F931F937E
:1000D00088E690E060E0A6D180E790E061E0A2D100
:1000E00088E790E062E09ED180E890E063E09AD1FA
:1000F00088E890E064E096D15DD180E091E06BD13A
:1001000082E320D2EE24FF24870105C00894E11C7D
:10011000F11C011D111D82E38AD18823B9F7C801A2
:10012000B7013CD386E060E017D135D325E030E05D
:1001300040E050E093D2809108016817B1F36093DA
:100140000801862F4AD182E3FBD1ECCFEF92FF92D8
:100150000F931F936AB157985A98289AE090140108
:10016000F0901501009116011091170120E030E088
:1001700041E050E0CA016F9364E06A95F1F76F9136
:100180000197C9F75C9ACA016F9364E06A95F1F729
:100190006F910197C9F789B15C98FA016F9364E098
:1001A0006A95F1F76F913197C9F75C9AFA016F93ED
:1001B00064E06A95F1F76F913197C9F75C9887FF12
:1001C0000BC02C5F3F4FC901A0E0B0E08E159F052A
:1001D000A007B10708F4CECF6AB91F910F91FF9025
:1001E000EF90089565B190E0AC0141705070440FFC
:1001F000551F9C012670307053E0220F331F5A9513
:10020000E1F7422B6D7C462B45B92BB1887090707D
:1002100034E0880F991F3A95E1F72F77282B2BB9F7
:100220005C9A81E090E0FC016F9364E06A95F1F7DD
:100230006F913197C9F75C986F9364E06A95F1F715
:100240006F910197C9F7089580E197E2A0E0B0E0CF
:100250008093140190931501A0931601B093170198
:10026000529A209A549A8EE190E0A8D183E0DCD093
:1002700086E090E0A3D183E0D7D082E090E09ED1E9
:1002800083E0D2D082E090E099D182E0CDD082E0CC
:1002900090E094D188E241D088E03FD081E03DD029
:1002A00086E03BD08CE039C080911801882321F48E
:1002B00081E080931801C8CF0895BF92CF92DF925A
:1002C000EF92FF920F931F93082F162FF42EECDF5F
:1002D0003DDFB4B0C5B0DAB0EBB02898112311F00F
:1002E0005A9A01C05A9884B1826384B9579A81E0BE
:1002F000F81621F0802F82958F7074DF802F8F7019
:1003000071DFDAB8EBB8B4B8C5B81F910F91FF90A0
:10031000EF90DF90CF90BF90089560E042E0CDCFA6
:10032000A4E0B0E0E5E9F1E0C2C1182F062F80E8B3
:10033000898380EC8A8384E98B8384ED8C83FE013E
:10034000E60FF11D8181810FE8DF10931301009307
:1003500012012496E4E0C7C1E3CF089581E0DDDF18
:100360008091100190911101892B19F160E070E2E8
:1003700008C0E0911001F0911101E40FF51F7083A6
:100380006F5F462F50E08091090190E00197209126
:100390000A0130E0FC01E29FC001E39F900DF29F53
:1003A000900D11244817590724F31092130110924D
:1003B00012010895D3CF089561E042E07ECFCF933C
:1003C000DF93EC0102C02196F7DF88818823D9F7FB
:1003D000DF91CF910895F3CF0895EECF0895EF9276
:1003E000FF920F931F93CF93DF937C01062F10E0B2
:1003F000F3E0000F111FFA95E1F7C0E0D0E09E0195
:10040000200F822F806489DFF701EC0FFD1FE4913C
:100410008E2FD2DF2196C830D10589F7CDB7DEB750
:10042000E6E05FC1DCCF089560E041E046CF282FD1
:1004300080911901882391F481E08093190184B19E
:100440008D7C84B985B1826385B985E090E06F9336
:1004500064E06A95F1F76F910197C9F783B18095D0
:10046000822308951F93CF93DF93182F8091190152
:10047000882391F481E08093190184B18D7C84B943
:1004800085B1826385B985E090E06F9364E06A95F9
:10049000F1F76F910197C9F7C12FD0E083B190E0D8
:1004A0008C239D23892BD1F38AE090E087D083B100
:1004B00090E08C239D23892B89F383B18123DF91E5
:1004C000CF911F9108951F93CF93DF93182F8091A1
:1004D0001901882391F481E08093190184B18D7C06
:1004E00084B985B1826385B985E090E06F9364E05B
:1004F0006A95F1F76F910197C9F7C12FD0E083B1E9
:1005000090E0809590958C239D23892BC1F38AE000
:1005100090E054D083B190E0809590958C239D23FA
:10052000892B69F383B180958123DF91CF911F914E
:1005300008951F93C8DF182F95DF812F1F9108950D
:10054000F8CF0895C0CF08952F928F939F932FB621
:100550008091270190912801019680932701909323
:10056000280190E080912901891F809329019091B1
:100570002F019C5F90932F0180912E018051974213
:10058000C0F090932F0180932E0180912A019091C9
:100590002B01019680932A0190932B0190E080918A
:1005A0002C01891F80932C0180912D01891F80933C
:1005B0002D012FBE9F918F912F90189528EE33E03B
:1005C00009C0F9016F9364E06A95F1F76F91319773
:1005D000C9F701970097A9F70895629FD001739F0B
:1005E000F001829FE00DF11D649FE00DF11D929FCF
:1005F000F00D839FF00D749FF00D659FF00D99270E
:10060000729FB00DE11DF91F639FB00DE11DF91F31
:10061000BD01CF0111240895A1E21A2EAA1BBB1B14
:10062000FD010DC0AA1FBB1FEE1FFF1FA217B307BE
:10063000E407F50720F0A21BB30BE40BF50B661FD4
:10064000771F881F991F1A9469F760957095809598
:1006500090959B01AC01BD01CF01089597FB092E38
:1006600005260ED057FD04D0D7DF0AD0001C38F481
:1006700050954095309521953F4F4F4F5F4F0895CE
:10068000F6F790958095709561957F4F8F4F9F4FAE
:1006900008952F923F924F925F926F927F928F9226
:1006A0009F92AF92BF92CF92DF92EF92FF920F9301
:1006B0001F93CF93DF93CDB7DEB7CA1BDB0B0FB60B
:1006C000F894DEBF0FBECDBF09942A8839884888C8
:1006D0005F846E847D848C849B84AA84B984C8845E
:1006E000DF80EE80FD800C811B81AA81B981CE0F55
:1006F000D11D0FB6F894DEBF0FBECDBFED0108953A
:10070000A0E0B0E0E5E8F3E0CCCFEC01A880B98050
:10071000CA80DB80A114B104C104D10441F484E295
:10072000A82E89EDB82E8BE5C82E87E0D82EC601FD
:10073000B5012DE133EF41E050E090DF27EA31E4ED
:1007400040E050E04ADF7B018C01C601B5012DE19C
:1007500033EF41E050E082DFCA01B9012CEE34EF03
:100760004FEF5FEF3ADF6E0D7F1D801F911F97FFE8
:1007700004C06150704080409048688379838A83C8
:100780009B839B01AC015F77B901CA01CDB7DEB78E
:10079000EAE0A3CFB5CF8BE091E0B2CF60930B013D
:1007A00070930C0180930D0190930E010895F894BD
:0207B000FFCF79
:1007B2006D6F6F643A203F000502080100000000DF
:00000001FF
