:100000003FC0000059C0000057C000004BC60000B0
:1000100049C6000047C600004FC000004DC00000A8
:100020004BC000000C944E0847C0000045C00000C3
:1000300043C0000040C400003FC000003DC00000BD
:100040003BC0000039C0000037C0000035C00000D0
:1000500033C0000031C000002FC000002DC00000E0
:100060002BC0000029C00000D201D801DB01DE0155
:10007000E101E401E701EA01ED01F001F301F6011C
:1000800011241FBECFEFD8E0DEBFCDBF11E0A0E04E
:10009000B1E0E8E7F5E102C005900D92A63AB1079C
:1000A000D9F711E0A6EAB1E001C01D92AA3CB10760
:1000B000E1F703D00C94BA0AA3CFA5E0B0E0E3E6E1
:1000C000F0E00C94780979D582E991E061E0E2D71B
:1000D00080E091E0EED392E0292E312C2C0E3D1ED3
:1000E0002E010894411C511C80E0B101A20103D7EC
:1000F0006A817B818C819D81CFD7605E734984400A
:100100009040D8F08981813061F480E060E027D5AB
:100110008EE591E0C2D580E061E021D589E691E0ED
:1001200054C080E060E01BD589E691E0B6D580E060
:1001300061E015D584E791E048C080E09ED6882331
:1001400099F280E098D6882379F280E03AD63B0194
:100150004C0180E050D65B016C01A60CB71CC81C9A
:10016000D91C80E060E0FBD460EA75E286E290E0B2
:10017000A60195010E943B09CA01B90180D58FE70C
:1001800091E08BD580E061E0EAD489E891E085D503
:100190008601750116950795F794E794C401B3019C
:1001A00024E630E040E050E00E94FC08E60EF71E36
:1001B000081F191FC801B701A60195010E943B093C
:1001C000CA01B9015CD58EE891E067D58DCFA0E07A
:1001D000B0E0EDEEF0E00C948009FC015B01C42E70
:1001E0008091A6018823C9F481E08093A601109232
:1001F0006F0083E28093800081E180938100109200
:10020000820080E197E290938900809388001092A9
:100210008B0010928A00229A789410929301F7FD35
:1002200003C0DD24D39403C0FF772AE0D22E80914F
:100230008100082F10E0087F107088ECD89EC00164
:1002400011248E179F07C0F4EF0187E2E131F80710
:1002500010F0C0E1D7E2BE017695679580E090E0AE
:100260006058794687469F4F9E0140E050E00E94CB
:100270003B097901016023C088E2D89E802D1124BA
:10028000C82FD0E0CE17DF0708F4EF01BE01769546
:1002900067959E0140E050E08AE0D81639F480E08E
:1002A00090E0605E734481449F4F06C080E090E020
:1002B00060537D4E8C4E9F4FDED7790102608AE0FD
:1002C000D81631F4CE0105966AE070E0C0D7EB0194
:1002D00083E0C83ED80711F4B5010DC0BE0180E02F
:1002E00090E0950140E050E087D728EE33E040E011
:1002F00050E0E3D7B90110926F0000938100F092B3
:100300008900E0928800E0918800F0918900AC2D8E
:10031000A03108F0AFE080E190E08A1B910902C0B3
:10032000F695E7958A95E2F7F0938B00E0938A00C3
:100330007093AE016093AD0186B38FEF86BB81E011
:1003400080936F00CDB7DEB7EAE0F6C7CF93DF93B7
:10035000EB018F3F11F0442329F488EE93E0BE01B6
:1003600040E064C0813110F420E005C0282F205106
:10037000203608F02FE5822F6CE05DD7382F682FEC
:1003800070E084EF9FEF689FF001699FF00D789F08
:10039000F00D1124E20FF11DEC30F10530F4EC5CAE
:1003A000FF4FDDC78CE991E023C080E090E020C0E2
:1003B00085EB91E01DC08FEC91E01AC08AEE91E0D0
:1003C00017C087E092E014C086E292E011C087E493
:1003D00092E00EC089E692E00BC08EE892E008C081
:1003E00085EB92E005C08EED92E002C08AE093E0DA
:1003F000373071F002C0880F991F6A95E2F73230EA
:1004000020F005966AE070E00BC0805090480AC06A
:1004100036E0880F991F3A95E1F7029665E070E0A3
:1004200016D7CB01403108F04FE0BE01D0DEDF919E
:10043000CF9108953091AB01E091A701F091A8010F
:10044000332311F0249101C02081822F81548A31FD
:1004500008F4205E203259F48091A7019091A80100
:1004600001969093A8018093A701019729F7822F05
:100470000895CF93DF93DEDF282FC0E0D0E01CC0CB
:10048000CE0153E0880F991F5A95E1F7CC0FDD1F7D
:10049000C80FD91F822F992787FD9095C80FD91FA4
:1004A000E0978091A7019091A80101969093A801EF
:1004B0008093A701BFDF282F822F80538A3000F35B
:1004C000CE01DF91CF910895A0E0B0E0E9E6F2E03F
:1004D00015C780909401B090A901BB2021F06091D4
:1004E000AA01662399F4A090AA01009199011091A4
:1004F0009A01E0909501F0909601C0919701D091FA
:100500009801C0909B01D0909C0103C18FEF70E0D7
:1005100040E01CDF1092AA01BDC194E0892EBB24EB
:1005200004EF11E084E0E82EF12CC0EDD7E0B4E058
:100530009B2EAFE0CA2ED12C7DDF282F8091A70102
:100540009091A80101969093A8018093A701263667
:1005500009F498C02736CCF42236A1F1233674F47E
:100560002E3361F12F3334F42132B9F22C3309F0F8
:1005700004C126C0213609F000C11AC1243609F48D
:1005800051C025360CF066C035C02F3609F4BFC007
:10059000203754F42C3609F4A5C02D3609F4A5C033
:1005A000273609F0EAC086C0243709F4CEC02637C2
:1005B00009F4E0C0223709F0E0C0ADC08394BCCF9D
:1005C0008A94BACFA092AA01B092A90110939A017D
:1005D00000939901F0929601E0929501D0939801D1
:1005E000C093970190929401D0929C01C0929B017C
:1005F0002BE0F5C0A092AA01B092A90110939A0134
:1006000000939901F0929601E0929501D0939801A0
:10061000C093970190929401D0929C01C0929B014B
:1006200020E0DDC0A092AA01B092A90110939A0126
:1006300000939901F0929601E0929501D093980170
:10064000C093970190929401D0929C01C0929B011B
:1006500022E0C5C0A092AA01B092A90110939A010C
:1006600000939901F0929601E0929501D093980140
:10067000C093970190929401D0929C01C0929B01EB
:1006800024E0ADC0A092AA01B092A90110939A01F2
:1006900000939901F0929601E0929501D093980110
:1006A000C093970190929401D0929C01C0929B01BB
:1006B00025E095C0A092AA01B092A90110939A01D9
:1006C00000939901F0929601E0929501D0939801E0
:1006D000C093970190929401D0929C01C0929B018B
:1006E00027E07DC0C6DE7C0140C0A4DE8C3611F45C
:1006F000BB2403C0AA24BB24B3948091A70190918A
:10070000A80101969093A8018093A70115CFB1DEAF
:10071000882E982C11CFA092AA01B092A901109313
:100720009A0100939901F0929601E0929501D0937D
:100730009801C093970190929401D0929C01C0922D
:100740009B0120E0FF24F3944BC093DEBC0180ECBE
:100750009DE57DD5CB01EB01F3E0CC0FDD1FFA95D4
:10076000E1F7880F991FC80FD91FCE01B7016FD5C8
:100770008B01E2CE7EDE6C01DFCEA092AA01B092A8
:10078000A90110939A0100939901F0929601E092C9
:100790009501D0939801C093970190929401D092C3
:1007A0009C01C0929B011092A8011092A70172C0F7
:1007B000A092AA01B092A90110939A010093990105
:1007C000F0929601E0929501D0939801C093970121
:1007D00090929401D0929C01C0929B0129E0FF2449
:1007E0008CE0889EC0011124E22EE80E0AC08091A0
:1007F000A7019091A80101969093A8018093A70169
:10080000E39418DE8B3299F3833289F30BC0809125
:10081000A7019091A80101969093A8018093A70148
:10082000EA9408DE8D3299F3C0919901D0919A0132
:100830008153883048F4009197011091980119DE96
:10084000BC01C80104D5EB018E010BC08091A7014A
:100850009091A80101969093A8018093A701C00FE1
:10086000D11F16950795E6DD8E3281F38091A9019F
:10087000882339F0CE01969587958093AA01C81BED
:10088000D109FF2011F0EE24EA948E2DBE01409193
:100890009B015CDDCDB7DEB7ECE04CC510926F007C
:1008A0009093A8018093A7011092AB011092AA0126
:1008B0000BCEF4CF08951F920F920FB60F92112412
:1008C0002F933F934F935F936F937F938F939F9358
:1008D000AF93BF93EF93FF938091AD019091AE01E1
:1008E00001979093AE018093AD01019609F51092A6
:1008F0006F00789480918100887F8160809381006F
:1009000080E197E2909389008093880010928B0099
:1009100010928A0081E0809393018091A7019091C9
:10092000A801892B29F08091AC01882309F4CCDD42
:10093000FF91EF91BF91AF919F918F917F916F91B7
:100940005F914F913F912F910F900FBE0F901F908D
:100950001895EF92FF920F931F936AB157985A9888
:10096000289AE090B301F090B4010091B501109184
:10097000B60120E030E041E050E0CA016F9364E04E
:100980006A95F1F76F910197C9F75C9ACA016F9365
:1009900064E06A95F1F76F910197C9F789B15C98A6
:1009A000FA016F9364E06A95F1F76F913197C9F797
:1009B0005C9AFA016F9364E06A95F1F76F91319751
:1009C000C9F75C9887FF0BC02C5F3F4FC901A0E0BF
:1009D000B0E08E159F05A007B10708F4CECF6AB925
:1009E0001F910F91FF90EF90089565B190E0AC01D9
:1009F00041705070440F551F9C012670307053E0B9
:100A0000220F331F5A95E1F7422B6D7C462B45B9D7
:100A10002BB18870907034E0880F991F3A95E1F7F8
:100A20002F77282B2BB95C9A81E090E0FC016F9323
:100A300064E06A95F1F76F913197C9F75C986F930D
:100A400064E06A95F1F76F910197C9F7089580E125
:100A500097E2A0E0B0E08093B3019093B401A0933B
:100A6000B501B093B601529A209A549A8EE190E063
:100A70004FD383E014D186E090E04AD383E00FD1D6
:100A800082E090E045D383E00AD182E090E040D359
:100A900082E005D182E090E03BD388E241D088E05B
:100AA0003FD081E03DD086E03BD08CE039C08091E2
:100AB000B701882321F481E08093B701C8CF08955E
:100AC000BF92CF92DF92EF92FF920F931F93082F66
:100AD000162FF42EECDF3DDFB4B0C5B0DAB0EBB0CA
:100AE0002898112311F05A9A01C05A9884B1826350
:100AF00084B9579A81E0F81621F0802F82958F7083
:100B000074DF802F8F7071DFDAB8EBB8B4B8C5B876
:100B10001F910F91FF90EF90DF90CF90BF900895BD
:100B200060E042E0CDCFA4E0B0E0E8E9F5E0EEC35C
:100B3000182F062F80E8898380EC8A8384E98B83D1
:100B400084ED8C83FE01E60FF11D8181810FE8DFCA
:100B50001093B2010093B1012496E4E0F3C3E3CF14
:100B6000089581E0DDDF8091AF019091B001892B84
:100B700019F160E070E208C0E091AF01F091B001BE
:100B8000E40FF51F70836F5F462F50E080919D0149
:100B900090E0019720919E0130E0FC01E29FC001AE
:100BA000E39F900DF29F900D11244817590724F3ED
:100BB0001092B2011092B1010895D3CF089561E06F
:100BC00042E07ECF6F927F928F929F92AF92BF92C0
:100BD000CF92DF92FF920F93DF93CF93CDB7DEB723
:100BE0002A970FB6F894DEBF0FBECDBF5B016C0134
:100BF0000AE03E010894611C711CFA2CC601B50183
:100C00002AE030E040E050E036D3C901DA015C016F
:100C10006D0101504301800E911C80E3F80EC60166
:100C2000B5012AE030E040E050E0E6D2F61AF401E7
:100C3000F082A114B104C104D104F9F607C0F60191
:100C4000E00FF11D8081BBDF0F5F04C06E010894CF
:100C5000C11CD11C0A3098F32A960FB6F894DEBF57
:100C60000FBECDBFCF91DF910F91FF90DF90CF905E
:100C7000BF90AF909F908F907F906F900895A2CF7C
:100C80000895CF93DF93EC0102C0219698DF88810D
:100C90008823D9F7DF91CF910895F3CF089560E0CD
:100CA00041E00ECF1F920F920FB60F921124EF92D8
:100CB000FF920F931F932F933F934F935F936F93E5
:100CC0007F938F939F93AF93BF93CF93DF93EF93D4
:100CD000FF932091B2008091BB019091BC01A09143
:100CE000BD01B091BE01B89905C0422F50E060E04F
:100CF00070E011C08091B2004091BB015091BC01E5
:100D00006091BD017091BE0140505F4F6F4F7F4FAA
:100D100090E0A0E0B0E0482B592B6A2B7B2BE090B1
:100D2000BA01C091B801D091B901FF2431C0E88166
:100D3000F9812081E0E030E08A8190E028233923A6
:100D4000232B09F0E1E08F81E81701F18B819C8171
:100D5000AD81BE818A019B01081B190B2A0B3B0B3D
:100D60008F81882339F0088719872A873B878889EC
:100D7000826006C00C871D872E873F878889816027
:100D8000888BEF834B835C836D837E83F3946196C2
:100D9000FE1468F2FF91EF91DF91CF91BF91AF9177
:100DA0009F918F917F916F915F914F913F912F9183
:100DB0001F910F91FF90EF900F900FBE0F901F901B
:100DC000189591E1899FC0011124E091B801F0913B
:100DD000B901E80FF91F208531854285538580854B
:100DE0009185A285B385281739074A075B0799F7CC
:100DF000B901CA01089591E1899FC0011124E091D0
:100E0000B801F091B901E80FF91F248535854685B1
:100E1000578584859585A685B785281739074A079C
:100E20005B0799F7B901CA010895982F8091BA011B
:100E30009817F0F481E1989FC0011124E091B80166
:100E4000F091B901E80FF91F8089262F30E090E07A
:100E500028233923232B61F0208990916800109278
:100E60006800808960958623808B9093680001C01C
:100E700020E0822F089561E0D8CF62E0D6CF0F93B3
:100E80001F93CF93DF93EB018A0191E1899FB0011A
:100E90001124E091B801F091B901E60FF71F8781A5
:100EA000F8018083E091B801F091B901E60FF71FD6
:100EB0002381348145815681288339834A835B832A
:100EC00083819481A581B681281739074A075B077A
:100ED00001F75ED1288139814A815B81621B730BE6
:100EE000840B950B688379838A839B83DF91CF91F1
:100EF0001F910F910895C3CF08958091B8019091EB
:100F0000B901009729F0DED21092B9011092B80110
:100F10000895A0E0B0E0EEE8F7E0EFC1082FF92E69
:100F2000762E1092680010926B0010926C00109256
:100F30006D006093BA01E1DF81E1789EC001112468
:100F400014D29093B9018093B801009711F481E015
:100F50009DC0802F9F2D9C015901EE24CC24DD24BF
:100F600081E0882E912C70C0F5018081883050F48A
:100F7000940102C0220F331F8A95E2F7F22EC9E2D4
:100F8000D0E01FC08E3060F490E00897F40102C0FA
:100F9000EE0FFF1F8A95E2F7FE2EC3E2D0E011C0EC
:100FA000853120F0FF24C0E0D0E00BC090E00E9728
:100FB000940102C0220F331F8A95E2F7F22EC6E297
:100FC000D0E00091B8011091B9010C0D1D1DF80180
:100FD000D183C083F282108611861286138614860E
:100FE000158616861786D4D0F801638374838583AB
:100FF0009683E091B801F091B901EC0DFD1D888157
:101000008F218783108AC332D10531F480916B0020
:10101000F82AF0926B0010C0C632D10531F48091ED
:101020006C00F82AF0926C0007C0A99729F480910F
:101030006D00F82AF0926D00E39421E130E0C20ED9
:10104000D31E0894A11CB11CE71408F48DCF8FEFB8
:101050008BBB80916B00882329F0809168008160B0
:101060008093680080916C00882329F0809168004B
:1010700082608093680080916D00882329F08091C0
:101080006800846080936800789480E0CDB7DEB714
:10109000EDE04FC13ECF08954AC008952F928F933F
:1010A0009F932FB68091BC019091BD0101968093D2
:1010B000BC019093BD0190E08091BE01891F809397
:1010C000BE019091C4019C5F9093C4018091C301C3
:1010D00080519742C0F09093C4018093C3018091E6
:1010E000BF019091C00101968093BF019093C00110
:1010F00090E08091C101891F8093C1018091C2015C
:10110000891F8093C2012FBE9F918F912F901895B8
:1011100028EE33E009C0F9016F9364E06A95F1F7B6
:101120006F913197C9F701970097A9F708956F5FFD
:101130007F4F8F4F9F4F660F771F881F991F25E0A6
:1011400030E040E050E097D0CA01B9010895A0E72F
:10115000B0E08C918E7F8C93E0EBF0E08081836037
:101160008083E1EBF0E08081807F808380818260FA
:101170008083B89A8C9181608C9378940895809143
:10118000C501882321F481E08093C501E0CF089553
:10119000F6DF809170008E7F809370006091B200C6
:1011A0008091BB019091BC01A091BD01B091BE01A5
:1011B000B89905C0262F30E040E050E011C0809182
:1011C000B2002091BB013091BC014091BD01509112
:1011D000BE0120503F4F4F4F5F4F90E0A0E0B0E086
:1011E000282B392B4A2B5B2B8091700081608093D8
:1011F0007000B901CA010895629FD001739FF00188
:10120000829FE00DF11D649FE00DF11D929FF00D96
:10121000839FF00D749FF00D659FF00D9927729FCD
:10122000B00DE11DF91F639FB00DE11DF91FBD0158
:10123000CF0111240895991B79E004C0991F9617D6
:1012400008F0961B881F7A95C9F780950895AA1B08
:10125000BB1B51E107C0AA1FBB1FA617B70710F0A1
:10126000A61BB70B881F991F5A95A9F780959095D3
:10127000BC01CD010895A1E21A2EAA1BBB1BFD01E2
:101280000DC0AA1FBB1FEE1FFF1FA217B307E40765
:10129000F50720F0A21BB30BE40BF50B661F771FBD
:1012A000881F991F1A9469F760957095809590959D
:1012B0009B01AC01BD01CF01089597FB092E0526C6
:1012C0000ED057FD04D0D7DF0AD0001C38F450955B
:1012D0004095309521953F4F4F4F5F4F0895F6F75A
:1012E00090958095709561957F4F8F4F9F4F089592
:1012F0002F923F924F925F926F927F928F929F9226
:10130000AF92BF92CF92DF92EF92FF920F931F9313
:10131000CF93DF93CDB7DEB7CA1BDB0B0FB6F894C4
:10132000DEBF0FBECDBF09942A88398848885F8404
:101330006E847D848C849B84AA84B984C884DF8075
:10134000EE80FD800C811B81AA81B981CE0FD11D59
:101350000FB6F894DEBF0FBECDBFED010895EE0FBE
:10136000FF1F0590F491E02D0994CF93DF93BC010A
:101370008230910510F462E070E0A091C801B09154
:10138000C901ED01E0E0F0E040E050E021C08881DB
:1013900099818617970769F48A819B81309719F0A4
:1013A0009383828304C09093C9018093C801FE0196
:1013B00034C06817790738F44115510519F08417BE
:1013C000950708F4AC01FE018A819B819C01E9012B
:1013D0002097E9F641155105A9F1CA01861B970B23
:1013E000049708F4BA01E0E0F0E02AC08D919C91E6
:1013F000119784179507F9F46417750781F412960D
:101400008D919C911397309719F09383828304C038
:101410009093C9018093C801FD0132964FC0CA0163
:10142000861B970BFD01E80FF91F619371930297DB
:101430008D939C9343C0FD01828193819C01D901CE
:101440001097A1F68091C6019091C701892B41F4B4
:101450008091A1019091A2019093C7018093C60150
:101460004091A3015091A4014115510541F44DB79C
:101470005EB780919F019091A001481B590B20916C
:10148000C6013091C70124173507B0F4CA01821B89
:10149000930B8617970780F0AB014E5F5F4F841761
:1014A000950750F0420F531F5093C7014093C60158
:1014B000F9016193719302C0E0E0F0E0CF01DF91A8
:1014C000CF910895CF93DF93009709F450C0EC01BA
:1014D00022971B821A82A091C801B091C90110976E
:1014E00009F140E050E0AC17BD0708F1BB83AA83C7
:1014F000FE0121913191E20FF31FAE17BF0779F47E
:101500008D919C911197280F391F2E5F3F4F398382
:10151000288312968D919C9113979B838A83411502
:10152000510571F4D093C901C093C80120C012962F
:101530008D919C911397AD01009711F0DC01D3CFF1
:10154000FA01D383C28321913191E20FF31FCE17A9
:10155000DF0769F488819981280F391F2E5F3F4F7B
:10156000FA01318320838A819B8193838283DF9177
:08157000CF910895F894FFCF1C
:10157800214C34204D5320454443444545453220B1
:101588004444443220454747322056392045444395
:101598004445454545204444454443312052205460
:1015A800323430204F3620563134204544434445A8
:1015B800454532204444443220454747322045447B
:1015C800434445454545204444454443310050691A
:1015D8006E20484947482020002020202020202035
:1015E8002020200050696E20204C4F5720200020DA
:1015F800487A2020202020200044433A200025203B
:1016080020000A01040400D007F4010F000208209A
:0616180000CA0100000001
:00000001FF
