:100000003FC0000059C0000057C00000E3C200001C
:10001000E1C20000DFC200004FC000004DC0000080
:100020004BC00000F5C700005EC4000050C50000D2
:100030007AC500000C94330C3FC000003DC00000A6
:100040003BC0000039C0000037C0000035C00000D0
:1000500033C0000031C000002FC000002DC00000E0
:100060002BC0000029C00000B709BD09C009C309A1
:10007000C609C909CC09CF09D209D509D809DB09B4
:1000800011241FBECFEFD8E0DEBFCDBF11E0A0E04E
:10009000B1E0E2E8FCE102C005900D92A034B107A6
:1000A000D9F711E0A0E4B1E001C01D92A737B10774
:1000B000E1F703D00C943F0EA3CFA1E1B0E0E3E65B
:1000C000F0E00C94070D80E090E060E04CE251E03D
:1000D00021E09CD75098589A06D28BE291E061E0DB
:1000E000FED380917C008F7D80937C00EE24FF24E2
:1000F00087016E010894C11CD11C0E9496086E19DC
:100100007F09800B910B623371058105910560F0C9
:10011000B0D0BC01769567956E517B4F80E02FD5AE
:100120000E9496087B018C0180E0B601E2D20E9419
:10013000CC082C813D814E815F81621B730B840B47
:10014000950B6059704D83409040D8F08885813080
:1001500061F480E060E099D180E091E036D280E007
:1001600061E093D18BE091E027C080E060E08DD129
:100170008BE091E02AD280E061E087D186E191E0D6
:100180001BC08989823009F0B8CF80E060E07DD162
:1001900069857A858B859C85A4D309D281E291E01B
:1001A00014D280E061E071D16D857E858F8598895C
:1001B00098D3FDD181E291E008D29FCFEF92FF92D8
:1001C0000F931F93982F803278F487E880937A00FA
:1001D00080917C0080648076892B80937C00809164
:1001E0007A00806480937A0080917A0086FDFCCF4B
:1001F000FB01EE24FF24870180917A0080648093C4
:100200007A0080917A0086FDFCCF80917C0085FF8A
:1002100004C08091790090E004C0809178009091B2
:100220007900A0E0B0E0E80EF91E0A1F1B1F31970D
:1002300019F7CB01969587956034710538F48E0DCA
:100240009F1D70E00E94AC0C9B010DC0A0E0B0E0CF
:10025000E80EF91E0A1F1B1F9B0140E050E0C80179
:10026000B7010E94C00CC9011F910F91FF90EF9040
:10027000089587E064E170E0A1CFEF92FF920F93C1
:100280001F936AB157985A98289AE0904401F090C9
:100290004501009146011091470120E030E041E026
:1002A00050E0CA016F9364E06A95F1F76F9101978E
:1002B000C9F75C9ACA016F9364E06A95F1F76F9190
:1002C0000197C9F789B15C98FA016F9364E06A9568
:1002D000F1F76F913197C9F75C9AFA016F9364E077
:1002E0006A95F1F76F913197C9F75C9887FF0BC05A
:1002F0002C5F3F4FC901A0E0B0E08E159F05A0071D
:10030000B10708F4CECF6AB91F910F91FF90EF901B
:10031000089565B190E0AC0141705070440F551FD5
:100320009C012670307053E0220F331F5A95E1F77D
:10033000422B6D7C462B45B92BB18870907034E010
:10034000880F991F3A95E1F72F77282B2BB95C9AE4
:1003500081E090E0FC016F9364E06A95F1F76F91A2
:100360003197C9F75C986F9364E06A95F1F76F91E4
:100370000197C9F7089580E197E2A0E0B0E080938B
:10038000440190934501A0934601B0934701529ACE
:10039000209A549A8EE190E075D683E018D186E0D9
:1003A00090E070D683E013D182E090E06BD683E0DA
:1003B0000ED182E090E066D682E009D182E090E042
:1003C00061D688E241D088E03FD081E03DD086E030
:1003D0003BD08CE039C080914801882321F481E032
:1003E00080934801C8CF0895BF92CF92DF92EF92D9
:1003F000FF920F931F93082F162FF42EECDF3DDF93
:10040000B4B0C5B0DAB0EBB02898112311F05A9A05
:1004100001C05A9884B1826384B9579A81E0F81672
:1004200021F0802F82958F7074DF802F8F7071DFA5
:10043000DAB8EBB8B4B8C5B81F910F91FF90EF9040
:10044000DF90CF90BF90089560E042E0CDCFA4E070
:10045000B0E0EDE2F2E00C940B0D182F062F80E8CF
:10046000898380EC8A8384E98B8384ED8C83FE010D
:10047000E60FF11D8181810FE7DF109343010093A7
:1004800042012496E4E00C94270DE1CF089581E029
:10049000DBDF8091400190914101892B19F160E0EF
:1004A00070E208C0E0914001F0914101E40FF51FB6
:1004B00070836F5F462F50E080912D0190E001978F
:1004C00020912E0130E0FC01E29FC001E39F900DDE
:1004D000F29F900D11244817590724F310924301FD
:1004E000109242010895D3CF089561E042E07CCF9D
:1004F0006F927F928F929F92AF92BF92CF92DF9234
:10050000FF920F93DF93CF93CDB7DEB72A970FB645
:10051000F894DEBF0FBECDBF5B016C010AE03E0167
:100520000894611C711CFA2CC601B5012AE030E068
:1005300040E050E00E94C00CC901DA015C016D018D
:1005400001504301800E911C80E3F80EC601B501F5
:100550002AE030E040E050E00E94810CF61AF401FD
:10056000F082A114B104C104D104E9F607C0F60178
:10057000E00FF11D8081B9DF0F5F04C06E010894A8
:10058000C11CD11C0A3098F32A960FB6F894DEBF2E
:100590000FBECDBFCF91DF910F91FF90DF90CF9035
:1005A000BF90AF909F908F907F906F900895A0CF55
:1005B0000895CF93DF93EC0102C0219696DF8881E6
:1005C0008823D9F7DF91CF910895F3CF089560E0A4
:1005D00041E00ACF1F920F920FB60F921124EF92B3
:1005E000FF920F931F932F933F934F935F936F93BC
:1005F0007F938F939F93AF93BF93CF93DF93EF93AB
:10060000FF932091B20080915F0190916001A091D1
:100610006101B0916201B89905C0422F50E060E0DD
:1006200070E011C08091B20040915F015091600173
:10063000609161017091620140505F4F6F4F7F4F39
:1006400090E0A0E0B0E0482B592B6A2B7B2BE09088
:100650004B01C0914901D0914A01FF2431C0E8818A
:10066000F9812081E0E030E08A8190E0282339237D
:10067000232B09F0E1E08F81E81701F18B819C8148
:10068000AD81BE818A019B01081B190B2A0B3B0B14
:100690008F81882339F0088719872A873B878889C3
:1006A000826006C00C871D872E873F8788898160FE
:1006B000888BEF834B835C836D837E83F394619699
:1006C000FE1468F2FF91EF91DF91CF91BF91AF914E
:1006D0009F918F917F916F915F914F913F912F915A
:1006E0001F910F91FF90EF900F900FBE0F901F90F2
:1006F00018951F93982F80914B019817E8F410914B
:1007000068001092680081E1989FA0011124E09197
:100710004901F0914A01DB01E40FF51F81E10190ED
:100720000D928150E1F7E0914901F0914A01E40F07
:10073000F51F108A109368001F9108958091490158
:1007400090914A01009731F00E94E70D10924A0102
:10075000109249010895A0E0B0E0E1EBF3E00C94C1
:10076000020D082FF92E762E1092680010926B0061
:1007700010926C0010926D0060934B01DFDF81E1FD
:10078000789EC00111240E943A0D90934A018093F3
:100790004901009711F481E09DC0802F9F2D9C019D
:1007A0005901EE24CC24DD2481E0882E912C70C0E8
:1007B000F5018081883050F4940102C0220F331F6C
:1007C0008A95E2F7F22EC9E2D0E01FC08E3060F4C5
:1007D00090E00897F40102C0EE0FFF1F8A95E2F740
:1007E000FE2EC3E2D0E011C0853120F0FF24C0E02E
:1007F000D0E00BC090E00E97940102C0220F331F8F
:100800008A95E2F7F22EC6E2D0E0009149011091FC
:100810004A010C0D1D1DF801D183C083F2821086A0
:10082000118612861386148615861686178680D43E
:10083000F8016383748385839683E0914901F09185
:100840004A01EC0DFD1D88818F218783108AC332F8
:10085000D10531F480916B00F82AF0926B0010C042
:10086000C632D10531F480916C00F82AF0926C0008
:1008700007C0A99729F480916D00F82AF0926D00C5
:10088000E39421E130E0C20ED31E0894A11CB11CF8
:10089000E71408F48DCF8FEF8BBB80916B0088231A
:1008A00029F08091680081608093680080916C00DD
:1008B000882329F08091680082608093680080918D
:1008C0006D00882329F0809168008460809368001F
:1008D000789480E0CDB7DEB7EDE00C941E0D3BCFF1
:1008E0000895DFC308951F920F920FB60F9211243F
:1008F0002F933F934F935F936F938F939F93AF93F8
:10090000BF93CF93DF93EF93FF9380915A018F5F53
:10091000877080935A01682F6F5F677080915801CC
:10092000681728F010928900109288004AC0862F1C
:1009300090E0880F991FA0914C01B0914D01A80F34
:10094000B91F2D913C911197E0915401F0915501FF
:10095000E80FF91F408151814115510519F1211509
:10096000310501F1E0915001F0915101E80FF91FBB
:100970000190F081E02D3097A9F02E173F0740F449
:10098000CA01820F931F8E179F07A8F4FC0113C0A2
:10099000CF01840F951F2817390768F0F901E41B70
:1009A000F50B09C0E0915001F0915101E80FF91FDA
:1009B0000190F081E02DF0938900E0938800ED93A1
:1009C000FC9380915901681728F010928B001092C7
:1009D0008A003DC0862F90E0880F991FC0914E017C
:1009E000D0914F01C80FD91F48815981E09156011C
:1009F000F0915701E80FF91F0190F081E02DA091CF
:100A00005201B09153013097C1F0A80FB91F2D9139
:100A10003C914217530738F4E40FF51FE217F30730
:100A200080F49F010EC0C9018E0F9F1F4817590700
:100A300040F09A012E1B3F0B04C0A80FB91F2D9147
:100A40003C9130938B0020938A00398328839091C6
:100A50005A0180915801981788F483E0989FC0014B
:100A60001124E0915B01F0915C01E80FF91FA08176
:100A7000B1819C918281809589238C9390915A01B8
:100A800080915901981788F483E0989FC001112440
:100A9000E0915D01F0915E01E80FF91FA081B18145
:100AA0009C918281809589238C93FF91EF91DF91B6
:100AB000CF91BF91AF919F918F916F915F914F9126
:100AC0003F912F910F900FBE0F901F9018951F927E
:100AD0000F920FB60F9211248F939F93AF93BF93F2
:100AE000EF93FF9390915A0180915801981780F4E9
:100AF00083E0989FC0011124E0915B01F0915C01BB
:100B0000E80FF91FA081B1818C91928189278C9384
:100B1000FF91EF91BF91AF919F918F910F900FBE79
:100B20000F901F9018951F920F920FB60F921124DD
:100B30008F939F93AF93BF93EF93FF9390915A013D
:100B400080915901981780F483E0989FC001112487
:100B5000E0915D01F0915E01E80FF91FA081B18184
:100B60008C91928189278C93FF91EF91BF91AF91E6
:100B70009F918F910F900FBE0F901F901895982FF7
:100B800080915901981748F580916F008F7D80936F
:100B90006F00892F90E087709070880F991FE09107
:100BA0005201F0915301E80FF91F9B0189E063396D
:100BB000780710F022E939E0C90143E0880F991F56
:100BC0004A95E1F7220F331F820F931F9183808391
:100BD00080916F00806280936F00089580915B0127
:100BE00090915C01009729F0F2D710925C0110926D
:100BF0005B0180914C0190914D01009729F0E7D75E
:100C000010924D0110924C01809150019091510130
:100C1000009729F0DCD71092510110925001809179
:100C2000540190915501009729F0D1D710925501A8
:100C30001092540180915D0190915E01009729F01E
:100C4000C6D710925E0110925D0180914E01909185
:100C50004F01009729F0BBD710924F0110924E011F
:100C60008091520190915301009729F0B0D71092D2
:100C700053011092520180915601909157010097B3
:100C800029F0A5D710925701109256010895A0E0BF
:100C9000B0E0ECE4F6E0BAC6082FE92EC42EB52E7B
:100CA00010926F0010926A0181E080932F011092E0
:100CB0006C0110926B0110928100F62E88E086176D
:100CC00010F4F8E0FF2EF092580182E0809380004B
:100CD000D22EE8E0E21710F4E8E0DE2ED0925901BF
:100CE0007DDF13E0F19EC0011124C4D680935B0127
:100CF00090935C018091580190E0880F991FBAD6BB
:100D000080934C0190934D018091580190E0880FA1
:100D1000991FB0D680935001909351018091580152
:100D200090E0880F991FA6D69C019093550180935F
:100D3000540180915B0190915C01892B09F459C0A9
:100D400080914C0190914D01892B09F452C0809102
:100D5000500190915101892B09F44BC0232B09F4C8
:100D600048C0DD2051F4802F9E2D9C01B90130E058
:100D700040E050E001E010E08AC0D19EC0011124A3
:100D800079D680935D0190935E018091590190E046
:100D9000880F991F6FD680934E0190934F018091D9
:100DA000590190E0880F991F65D680935201909366
:100DB00053018091590190E0880F991F5BD69C01E7
:100DC000909357018093560180915D0190915E014F
:100DD000892B79F080914E0190914F01892B49F038
:100DE0008091520190915301892B19F0232B09F026
:100DF000BACFF4DE81E006C1C0915B01D0915C0105
:100E0000C40FD51FFB018081883060F4F80102C057
:100E1000EE0FFF1F8A95E2F72E2FABE2B0E0EAE279
:100E2000F0E025C08E3070F490E00897F80102C021
:100E3000EE0FFF1F8A95E2F72E2FA5E2B0E0E4E265
:100E4000F0E015C0853130F0A0E0B0E0E0E0F0E087
:100E500020E00DC090E00E97F80102C0EE0FFF1FDA
:100E60008A95E2F72E2FA8E2B0E0E7E2F0E08C915D
:100E7000922F909598239C938081822B8083B983B5
:100E8000A8832A833F5F4D5F5F4F6F5F7F4F3F15A2
:100E900008F4B2CF20E01DC0822F90E0880F991F88
:100EA000E0914C01F0914D01E80FF91F1182108281
:100EB000E0915001F0915101E80FF91F1182108269
:100EC000E0915401F0915501E80FF91F1182108251
:100ED0002F5F809158012817F8F28C2D9B2D9C01D3
:100EE000890130E040E050E060E070E0A1E0EA2EEF
:100EF000F12C65C0C0915D01D0915E01C60FD71F76
:100F0000F8018081883060F4F70102C0EE0FFF1F06
:100F10008A95E2F72E2FABE2B0E0EAE2F0E025C0DE
:100F20008E3070F490E00897F70102C0EE0FFF1FBB
:100F30008A95E2F72E2FA5E2B0E0E4E2F0E015C0DA
:100F4000853130F0A0E0B0E0E0E0F0E020E00DC05E
:100F500090E00E97F70102C0EE0FFF1F8A95E2F7AF
:100F60002E2FA8E2B0E0E7E2F0E09C91822F80957E
:100F700089238C938081822B8083B983A8832A83E1
:100F8000E0914E01F0914F01E40FF51F11821082A4
:100F9000E0915201F0915301E40FF51F118210828C
:100FA000E0915601F0915701E40FF51F1182108274
:100FB0003F5F4E5F5F4F6D5F7F4F0F5F1F4F3D1570
:100FC00008F498CF10925A0181E18093810088EA59
:100FD00091E690938700809386008FEF86BB809187
:100FE0006F00806280936F00DD2029F080916F0098
:100FF000846080936F0080916F00826080936F00A7
:10100000789480E0CDB7DEB7E9E01CC540CE089506
:101010002F928F939F932FB68091600190916101E1
:101020000196809360019093610190E0809162014C
:10103000891F80936201909168019C5F9093680181
:101040008091670180519742C0F09093680180932E
:10105000670180916301909164010196809363011F
:101060009093640190E080916501891F80936501F0
:1010700080916601891F809366012FBE9F918F9199
:101080002F90189528EE33E009C0F9016F9364E0C2
:101090006A95F1F76F913197C9F701970097A9F712
:1010A00008956F5F7F4F8F4F9F4F660F771F881F89
:1010B000991F25E030E040E050E062D4CA01B90158
:1010C0000895A0E7B0E08C918E7F8C93E0EBF0E088
:1010D000808183608083E1EBF0E08081807F80838A
:1010E000808182608083B89A8C9181608C9378949F
:1010F000089580916901882321F481E0809369013A
:10110000E0CF0895F6DFE0E7F0E080818E7F808316
:101110002091630130916401409165015091660115
:10112000808181608083B901CA010895EBCF089561
:10113000E0DF809170008E7F809370006091B2003C
:1011400080915F0190916001A0916101B091620175
:10115000B89905C0262F30E040E050E011C08091E2
:10116000B20020915F013091600140916101509186
:10117000620120503F4F4F4F5F4F90E0A0E0B0E042
:10118000282B392B4A2B5B2B809170008160809338
:101190007000B901CA010895CBCF0895A0E0B0E076
:1011A000E3EDF8E032C4FC015B01C42E80916A01DA
:1011B0008823C9F481E080936A0110926F0083E272
:1011C0008093800081E1809381001092820080E111
:1011D00097E2909389008093880010928B00109280
:1011E0008A00229A789410922F01F7FD03C0DD2423
:1011F000D39403C0FF772AE0D22E80918100082F7C
:1012000010E0087F107088ECD89EC00111248E1762
:101210009F07B8F4EF0187E2E131F80710F0C0E171
:10122000D7E2BE017695679580E090E060587946F8
:1012300087469F4F9E0140E050E0A2D379010160B4
:1012400023C088E2D89E802D1124C82FD0E0CE176D
:10125000DF0708F4EF01BE01769567959E0140E037
:1012600050E08AE0D81639F480E090E0605E734484
:1012700081449F4F06C080E090E060537D4E8C4ECD
:101280009F4F7ED3790102608AE0D81631F4CE01F7
:1012900005966AE070E060D3EB0183E0C83ED807B2
:1012A00011F4B5010DC0BE0180E090E0950140E071
:1012B00050E027D328EE33E040E050E083D3B9017B
:1012C00010926F0000938100F0928900E0928800F4
:1012D000E0918800F0918900AC2DA03108F0AFE0DA
:1012E00080E190E08A1B910902C0F695E7958A9506
:1012F000E2F7F0938B00E0938A00709372016093A1
:10130000710186B38FEF86BB81E080936F00CDB70C
:10131000DEB7EAE096C3CF93DF93EB018F3F11F086
:10132000442329F488EE93E0BE0140E064C081319B
:1013300010F420E005C0282F2051203608F02FE5BA
:10134000822F6CE0FDD2382F682F70E084EF9FEF82
:10135000689FF001699FF00D789FF00D1124E20F56
:10136000F11DEC30F10530F4EC5CFF4F7DC38CE9EE
:1013700091E023C080E090E020C085EB91E01DC0AB
:101380008FEC91E01AC08AEE91E017C087E092E0FE
:1013900014C086E292E011C087E492E00EC089E6B4
:1013A00092E00BC08EE892E008C085EB92E005C0A9
:1013B0008EED92E002C08AE093E0373071F002C017
:1013C000880F991F6A95E2F7323020F005966AE09F
:1013D00070E00BC0805090480AC036E0880F991F1B
:1013E0003A95E1F7029665E070E0B6D2CB01403164
:1013F00008F04FE0BE01D2DEDF91CF910895309129
:101400006F01E0916B01F0916C01332311F0249195
:1014100001C02081822F81548A3108F4205E20325D
:1014200059F480916B0190916C01019690936C013D
:1014300080936B01019729F7822F0895CF93DF9353
:10144000DEDF282FC0E0D0E01CC0CE0153E0880FC3
:10145000991F5A95E1F7CC0FDD1FC80FD91F822FB6
:10146000992787FD9095C80FD91FE09780916B0150
:1014700090916C01019690936C0180936B01BFDF9A
:10148000282F822F80538A3000F3CE01DF91CF9135
:101490000895A0E0B0E0EEE4FAE0B5C2809030013B
:1014A000B0906D01BB2021F060916E01662399F42C
:1014B000A0906E010091350110913601E09031014C
:1014C000F0903201C0913301D0913401C0903701C6
:1014D000D090380103C18FEF70E040E01CDF109224
:1014E0006E01BDC194E0892EBB2404EF11E084E0BD
:1014F000E82EF12CC0EDD7E0B4E09B2EAFE0CA2E71
:10150000D12C7DDF282F80916B0190916C01019689
:1015100090936C0180936B01263609F498C02736AE
:10152000CCF42236A1F1233674F42E3361F12F333B
:1015300034F42132B9F22C3309F004C126C021362B
:1015400009F000C11AC1243609F451C025360CF047
:1015500066C035C02F3609F4BFC0203754F42C368E
:1015600009F4A5C02D3609F4A5C0273609F0EAC054
:1015700086C0243709F4CEC0263709F4E0C02237EC
:1015800009F0E0C0ADC08394BCCF8A94BACFA092DA
:101590006E01B0926D011093360100933501F09207
:1015A0003201E0923101D0933401C0933301909223
:1015B0003001D0923801C09237012BE0F5C0A092E3
:1015C0006E01B0926D011093360100933501F092D7
:1015D0003201E0923101D0933401C09333019092F3
:1015E0003001D0923801C092370120E0DDC0A092D6
:1015F0006E01B0926D011093360100933501F092A7
:101600003201E0923101D0933401C09333019092C2
:101610003001D0923801C092370122E0C5C0A092BB
:101620006E01B0926D011093360100933501F09276
:101630003201E0923101D0933401C0933301909292
:101640003001D0923801C092370124E0ADC0A092A1
:101650006E01B0926D011093360100933501F09246
:101660003201E0923101D0933401C0933301909262
:101670003001D0923801C092370125E095C0A09288
:101680006E01B0926D011093360100933501F09216
:101690003201E0923101D0933401C0933301909232
:1016A0003001D0923801C092370127E07DC0C6DEFC
:1016B0007C0140C0A4DE8C3611F4BB2403C0AA24F4
:1016C000BB24B39480916B0190916C01019690932F
:1016D0006C0180936B0115CFB1DE882E982C11CF51
:1016E000A0926E01B0926D01109336010093350106
:1016F000F0923201E0923101D0933401C093330172
:1017000090923001D0923801C092370120E0FF243E
:10171000F3944BC093DEBC0180EC9DE51DD1CB0161
:10172000EB01F3E0CC0FDD1FFA95E1F7880F991F6D
:10173000C80FD91FCE01B7010FD18B01E2CE7EDEDB
:101740006C01DFCEA0926E01B0926D011093360154
:1017500000933501F0923201E0923101D0933401CF
:10176000C093330190923001D0923801C09237017A
:1017700010926C0110926B0172C0A0926E01B09237
:101780006D011093360100933501F0923201E09221
:101790003101D0933401C093330190923001D09243
:1017A0003801C092370129E0FF248CE0889EC001F7
:1017B0001124E22EE80E0AC080916B0190916C0119
:1017C000019690936C0180936B01E39418DE8B3249
:1017D00099F3833289F30BC080916B0190916C0176
:1017E000019690936C0180936B01EA9408DE8D3230
:1017F00099F3C0913501D09136018153883048F476
:10180000009133011091340119DEBC01C801A4D04C
:10181000EB018E010BC080916B0190916C010196E0
:1018200090936C0180936B01C00FD11F16950795A3
:10183000E6DD8E3281F380916D01882339F0CE018F
:101840009695879580936E01C81BD109FF2011F0F2
:10185000EE24EA948E2DBE01409137015CDDCDB7B8
:10186000DEB7ECE0ECC01F920F920FB60F9211247E
:101870002F933F934F935F936F937F938F939F9398
:10188000AF93BF93EF93FF93809171019091720199
:1018900001979093720180937101019609F510925E
:1018A0006F00789480918100887F816080938100AF
:1018B00080E197E2909389008093880010928B00DA
:1018C00010928A0081E080932F0180916B019091AA
:1018D0006C01892B29F080917001882309F4D9DDEE
:1018E000FF91EF91BF91AF919F918F917F916F91F8
:1018F0005F914F913F912F910F900FBE0F901F90CE
:101900001895629FD001739FF001829FE00DF11D39
:10191000649FE00DF11D929FF00D839FF00D749F69
:10192000F00D659FF00D9927729FB00DE11DF91F15
:10193000639FB00DE11DF91FBD01CF011124089572
:10194000991B79E004C0991F961708F0961B881F11
:101950007A95C9F780950895AA1BBB1B51E107C072
:10196000AA1FBB1FA617B70710F0A61BB70B881F2F
:10197000991F5A95A9F780959095BC01CD010895BE
:10198000A1E21A2EAA1BBB1BFD010DC0AA1FBB1F83
:10199000EE1FFF1FA217B307E407F50720F0A21BF5
:1019A000B30BE40BF50B661F771F881F991F1A9462
:1019B00069F760957095809590959B01AC01BD018C
:1019C000CF01089597FB092E05260ED057FD04D0B0
:1019D000D7DF0AD0001C38F45095409530952195FA
:1019E0003F4F4F4F5F4F0895F6F790958095709554
:1019F00061957F4F8F4F9F4F08952F923F924F9247
:101A00005F926F927F928F929F92AF92BF92CF928E
:101A1000DF92EF92FF920F931F93CF93DF93CDB797
:101A2000DEB7CA1BDB0B0FB6F894DEBF0FBECDBF0F
:101A300009942A88398848885F846E847D848C84E0
:101A40009B84AA84B984C884DF80EE80FD800C81E9
:101A50001B81AA81B981CE0FD11D0FB6F894DEBFCC
:101A60000FBECDBFED010895EE0FFF1F0590F4915D
:101A7000E02D0994CF93DF93BC018230910510F4DF
:101A800062E070E0A0917501B0917601ED01E0E0B7
:101A9000F0E040E050E021C08881998186179707E7
:101AA00069F48A819B81309719F09383828304C003
:101AB0009093760180937501FE0134C06817790711
:101AC00038F44115510519F08417950708F4AC0155
:101AD000FE018A819B819C01E9012097E9F641156D
:101AE0005105A9F1CA01861B970B049708F4BA01A6
:101AF000E0E0F0E02AC08D919C9111978417950742
:101B0000F9F46417750781F412968D919C911397DF
:101B1000309719F09383828304C090937601809369
:101B20007501FD0132964FC0CA01861B970BFD015E
:101B3000E80FF91F6193719302978D939C9343C0B3
:101B4000FD01828193819C01D9011097A1F68091BA
:101B5000730190917401892B41F480913B01909124
:101B60003C01909374018093730140913D01509129
:101B70003E014115510541F44DB75EB780913901E1
:101B800090913A01481B590B2091730130917401D7
:101B900024173507B0F4CA01821B930B86179707E9
:101BA00080F0AB014E5F5F4F8417950750F0420FF6
:101BB000531F5093740140937301F9016193719322
:101BC00002C0E0E0F0E0CF01DF91CF910895CF9324
:101BD000DF93009709F450C0EC0122971B821A8210
:101BE000A0917501B0917601109709F140E050E0A5
:101BF000AC17BD0708F1BB83AA83FE012191319187
:101C0000E20FF31FAE17BF0779F48D919C911197E6
:101C1000280F391F2E5F3F4F3983288312968D91ED
:101C20009C9113979B838A834115510571F4D0933E
:101C30007601C093750120C012968D919C911397E7
:101C4000AD01009711F0DC01D3CFFA01D383C28339
:101C500021913191E20FF31FCE17DF0769F48881DC
:101C60009981280F391F2E5F3F4FFA01318320835E
:101C70008A819B8193838283DF91CF910895F89429
:021C8000FFCF94
:101C820044303A2048494748202000202020202084
:101C920020202020200044303A20204C4F57202082
:101CA200002075732020202020200000010208015E
:101CB200040400D007F4010F0020007701000000A7
:00000001FF
