:100000003FC0000059C0000057C0000055C00000AC
:1000100053C0000051C000004FC000004DC00000A0
:100020004BC000000C94B30847C0000045C000005E
:1000300043C0000043C400003FC000003DC00000BA
:100040003BC0000039C0000037C0000035C00000D0
:1000500033C0000031C000002FC000002DC00000E0
:100060002BC0000029C00000E001E601E901EC011D
:10007000EF01F201F501F801FB01FE0101020402AA
:1000800011241FBECFEFD8E0DEBFCDBF11E0A0E04E
:10009000B1E0EEEBFBE102C005900D92A832B10792
:1000A000D9F711E0A8E2B1E001C01D92AC35B1076B
:1000B000E1F703D00C94DD0DA3CFA0E0B0E0E3E6C0
:1000C000F0E00C94B9090BD5C2D500D080E091E0E6
:1000D000EDB7FEB7928381830E943C0B0F900F9087
:1000E000C7E0D1E082E30E94B108803131F0803274
:1000F00031F0823049F489E303C08BE301C08CE323
:1001000062E370E04AE0A4D182E372D7803131F03B
:10011000803231F0823049F485E403C087E401C0C5
:1001200088E462E370E04AE093D10E9431097B01E8
:100130008C0180E061E05DD58DB79EB708970FB662
:10014000F8949EBF0FBE8DBFCDB6DEB60894C11C1D
:10015000D11CEDB7FEB7D283C183C801B70120E639
:100160003AEE40E050E00E947209CA01B9012CE366
:1001700030E040E050E00E947209F6016283138291
:10018000C801B70128EE33E040E050E00E94720958
:10019000CA01B9012CE330E040E050E00E9472094E
:1001A000F60164831582C801B7012AE030E040E01F
:1001B00050E00E947209CA01B90124E630E040E033
:1001C00050E00E947209F601668317820E943C0B80
:1001D0008DB79EB708960FB6F8949EBF0FBE8DBF21
:1001E00081CFA0E0B0E0E7EFF0E00C94B709FC01AC
:1001F0005B01C42E809128018823C9F481E080939B
:10020000280110926F0083E28093800081E1809347
:1002100081001092820080E197E2909389008093A0
:10022000880010928B0010928A00229A7894109283
:100230001501F7FD03C0DD24D39403C0FF772AE046
:10024000D22E80918100082F10E0087F107088EC7A
:10025000D89EC00111248E179F07C0F4EF0187E2DA
:10026000E131F80710F0C0E1D7E2BE01769567955D
:1002700080E090E06058794687469F4F9E0140E0BD
:1002800050E00E9472097901016024C088E2D89E82
:10029000802D1124C82FD0E0CE17DF0708F4EF011E
:1002A000BE01769567959E0140E050E08AE0D81641
:1002B00039F480E090E0605E734481449F4F06C053
:1002C00080E090E060537D4E8C4E9F4F0E947209FB
:1002D000790102608AE0D81631F4CE0105966AE011
:1002E00070E0ECD7EB0183E0C83ED80711F4B5010C
:1002F0000EC0BE0180E090E0950140E050E0B3D731
:1003000028EE33E040E050E00E949409B9011092D9
:100310006F0000938100F0928900E0928800E091E4
:100320008800F0918900AC2DA03108F0AFE080E1A9
:1003300090E08A1B910902C0F695E7958A95E2F74D
:10034000F0938B00E0938A007093300160932F014B
:1003500086B38FEF86BB81E080936F00CDB7DEB7A9
:10036000EAE00C94D309CF93DF93EB018F3F11F0B8
:10037000442329F488EE93E0BE0140E065C081315A
:1003800010F420E005C0282F2051203608F02FE57A
:10039000822F6CE087D7382F682F70E084EF9FEFB3
:1003A000689FF001699FF00D789FF00D1124E20F16
:1003B000F11DEC30F10538F4EC5CFF4F0C94E609CC
:1003C0008CE991E023C080E090E020C085EB91E0D3
:1003D0001DC08FEC91E01AC08AEE91E017C087E053
:1003E00092E014C086E292E011C087E492E00EC071
:1003F00089E692E00BC08EE892E008C085EB92E0BF
:1004000005C08EED92E002C08AE093E0373071F0D3
:1004100002C0880F991F6A95E2F7323020F00596E6
:100420006AE070E00BC0805090480AC036E0880F48
:10043000991F3A95E1F7029665E070E03FD7CB014E
:10044000403108F04FE0BE01CCDEDF91CF9108953E
:100450008ACF089530912D01E0912901F0912A0170
:10046000332311F0249101C02081822F81548A31DD
:1004700008F4205E203259F48091290190912A01DC
:10048000019690932A0180932901019729F7822FE1
:100490000895CF93DF93DEDF282FC0E0D0E01CC0AB
:1004A000CE0153E0880F991F5A95E1F7CC0FDD1F5D
:1004B000C80FD91F822F992787FD9095C80FD91F84
:1004C000E0978091290190912A01019690932A0149
:1004D00080932901BFDF282F822F80538A3000F3B9
:1004E000CE01DF91CF910895A0E0B0E0E9E7F2E01E
:1004F0003CC780901601B0902B01BB2021F0609189
:100500002C01662399F4A0902C0100911B011091FD
:100510001C01E0901701F0901801C0911901D091D1
:100520001A01C0901D01D0901E0103C18FEF70E031
:1005300040E019DF10922C01BDC194E0892EBB244C
:1005400004EF11E084E0E82EF12CC0EDD7E0B4E038
:100550009B2EAFE0CA2ED12C7DDF282F8091290160
:1005600090912A01019690932A01809329012636C1
:1005700009F498C02736CCF42236A1F1233674F45E
:100580002E3361F12F3334F42132B9F22C3309F0D8
:1005900004C126C0213609F000C11AC1243609F46D
:1005A00051C025360CF066C035C02F3609F4BFC0E7
:1005B000203754F42C3609F4A5C02D3609F4A5C013
:1005C000273609F0EAC086C0243709F4CEC02637A2
:1005D00009F4E0C0223709F0E0C0ADC08394BCCF7D
:1005E0008A94BACFA0922C01B0922B0110931C01D7
:1005F00000931B01F0921801E0921701D0931A01A9
:10060000C093190190921601D0921E01C0921D0153
:100610002BE0F5C0A0922C01B0922B0110931C018D
:1006200000931B01F0921801E0921701D0931A0178
:10063000C093190190921601D0921E01C0921D0123
:1006400020E0DDC0A0922C01B0922B0110931C0180
:1006500000931B01F0921801E0921701D0931A0148
:10066000C093190190921601D0921E01C0921D01F3
:1006700022E0C5C0A0922C01B0922B0110931C0166
:1006800000931B01F0921801E0921701D0931A0118
:10069000C093190190921601D0921E01C0921D01C3
:1006A00024E0ADC0A0922C01B0922B0110931C014C
:1006B00000931B01F0921801E0921701D0931A01E8
:1006C000C093190190921601D0921E01C0921D0193
:1006D00025E095C0A0922C01B0922B0110931C0133
:1006E00000931B01F0921801E0921701D0931A01B8
:1006F000C093190190921601D0921E01C0921D0163
:1007000027E07DC0C6DE7C0140C0A4DE8C3611F43B
:10071000BB2403C0AA24BB24B394809129019091E7
:100720002A01019690932A018093290115CFB1DE09
:10073000882E982C11CFA0922C01B0922B011093EF
:100740001C0100931B01F0921801E0921701D09355
:100750001A01C093190190921601D0921E01C09205
:100760001D0120E0FF24F3944BC093DEBC0180EC1C
:100770009DE5A4D5CB01EB01F3E0CC0FDD1FFA958D
:10078000E1F7880F991FC80FD91FCE01B70196D581
:100790008B01E2CE7EDE6C01DFCEA0922C01B09206
:1007A0002B0110931C0100931B01F0921801E092A1
:1007B0001701D0931A01C093190190921601D0929B
:1007C0001E01C0921D0110922A011092290172C0CF
:1007D000A0922C01B0922B0110931C0100931B01DD
:1007E000F0921801E0921701D0931A01C0931901F9
:1007F00090921601D0921E01C0921D0129E0FF24A3
:100800008CE0889EC0011124E22EE80E0AC080917F
:10081000290190912A01019690932A018093290140
:10082000E39418DE8B3299F3833289F30BC0809105
:10083000290190912A01019690932A018093290120
:10084000EA9408DE8D3299F3C0911B01D0911C010E
:100850008153883048F40091190110911A0119DE72
:10086000BC01C8012BD5EB018E010BC08091290181
:1008700090912A01019690932A0180932901C00F3B
:10088000D11F16950795E6DD8E3281F380912B01FD
:10089000882339F0CE019695879580932C01C81B4B
:1008A000D109FF2011F0EE24EA948E2DBE01409173
:1008B0001D0159DDCDB7DEB7ECE073C51F920F9275
:1008C0000FB60F9211242F933F934F935F936F9323
:1008D0007F938F939F93AF93BF93EF93FF938091F9
:1008E0002F019091300101979093300180932F0157
:1008F000019609F510926F00789480918100887FAD
:1009000081608093810080E197E2909389008093D9
:10091000880010928B0010928A0081E0809315016C
:100920008091290190912A01892B29F080912E0133
:10093000882309F4D9DDFF91EF91BF91AF919F9189
:100940008F917F916F915F914F913F912F910F9078
:100950000FBE0F901F90189580E090E00895EF92E1
:10096000FF920F931F936AB157985A98289AE09074
:100970003501F0903601009137011091380120E0E7
:1009800030E041E050E0CA016F9364E06A95F1F70E
:100990006F910197C9F75C9ACA016F9364E06A95F9
:1009A000F1F76F910197C9F789B15C98FA016F93DC
:1009B00064E06A95F1F76F913197C9F75C9AFA0193
:1009C0006F9364E06A95F1F76F913197C9F75C987E
:1009D00087FF0BC02C5F3F4FC901A0E0B0E08E1530
:1009E0009F05A007B10708F4CECF6AB91F910F91F8
:1009F000FF90EF90089565B190E0AC0141705070A8
:100A0000440F551F9C012670307053E0220F331F96
:100A10005A95E1F7422B6D7C462B45B92BB1887076
:100A2000907034E0880F991F3A95E1F72F77282BC3
:100A30002BB95C9A81E090E0FC016F9364E06A95C9
:100A4000F1F76F913197C9F75C986F9364E06A95FD
:100A5000F1F76F910197C9F7089580913101909155
:100A60003201009709F065D580911F0190E0019750
:100A70002091200130E0AC01429FC001439F900DC6
:100A8000529F900D1124A8D490933201809331018C
:100A9000009721F160E070E208C0E0913101F0912F
:100AA0003201E40FF51F70836F5F462F50E0809195
:100AB0001F0190E001972091200130E0FC01E29FAE
:100AC000C001E39F900DF29F900D11244817590724
:100AD00024F38CE296E06CEA74E083C50895BDCF00
:100AE000089580E197E2A0E0B0E080933501909313
:100AF0003601A0933701B0933801529A209A549A44
:100B00008EE190E06AD383E0BAD186E090E065D3CD
:100B100083E0B5D182E090E060D383E0B0D182E0A1
:100B200090E05BD382E0ABD182E090E056D388E2E4
:100B300041D088E03FD081E03DD086E03BD08CE0E2
:100B400039C080913901882321F481E080933901F3
:100B5000C8CF0895BF92CF92DF92EF92FF920F938A
:100B60001F93082F162FF42EECDFF9DEB4B0C5B0BA
:100B7000DAB0EBB02898112311F05A9A01C05A98B4
:100B800084B1826384B9579A81E0F81621F0802FEE
:100B900082958F7030DF802F8F702DDFDAB8EBB841
:100BA000B4B8C5B81F910F91FF90EF90DF90CF9030
:100BB000BF90089560E042E0CDCFA4E0B0E0E2EE67
:100BC000F5E0DBC3182F062F80E8898380EC8A8349
:100BD00084E98B8384ED8C83FE01E60FF11D818116
:100BE000810FE8DF10933401009333012496E4E091
:100BF000E0C3E3CF089581E0DDDF80913101909182
:100C00003201892B19F160E070E208C0E0913101F6
:100C1000F0913201E40FF51F70836F5F462F50E0B3
:100C200080911F0190E001972091200130E0FC01AC
:100C3000E29FC001E39F900DF29F900D1124481791
:100C4000590724F310923401109233010895D3CF41
:100C5000089561E042E07ECFA0E0B0E0E1E3F6E09D
:100C600088C3E82E8091310190913201892B09F4DB
:100C7000FDC02AE0E21609F445C038E0E316C9F4E5
:100C8000809134018150809334018F3F51F48091E1
:100C900033018150809333018091200181508093F2
:100CA0003401809133018F3F09F0DBC01092330192
:100CB000D6C08E2DCEDF209133012223C9F030E043
:100CC000215030408091200190E0AC01249FC00170
:100CD000259F900D349F900D112420913401E091B7
:100CE0003101F0913201E80FF91FE20FF11DE082AE
:100CF000809134018F5F8093340190912001891796
:100D000009F0B4C040913301242F30E080911F01DD
:100D100090E001972817390709F09EC0C0E0D0E0A5
:100D200042C080E06C2F49DFFF246E010894C11C93
:100D3000D11C34C00F2D10E090E09C01C29FC00177
:100D4000C39F900DD29F900D1124E0913101F0913D
:100D50003201E00FF11FE80FF91F80817ADFE09187
:100D60003101F09132018091200190E0C89FD001C3
:100D7000C99FB00DD89FB00D1124E00FF11FAE0F29
:100D8000BF1FAC01C49EC001C59E900DD49E900DA6
:100D90001124E80FF91F80818C93F3948091200136
:100DA000F81640F2E60160911F01862F90E002974D
:100DB000C817D9070CF4B5CF623008F43EC06250B2
:100DC00080E0FBDEFF24E0E2DE2E33C00F2D10E0DA
:100DD00080911F0190E0029730E0AC01429FC0017A
:100DE000439F900D529F900D1124E0913101F0919D
:100DF0003201E00FF11FE80FF91F80812ADF2091F7
:100E00001F0130E0225030408091200190E0AC0181
:100E1000249FC001259F900D349F900D1124E091D7
:100E20003101F0913201E00FF11FE80FF91FD0827C
:100E3000F39420912001F21648F260911F01615055
:100E400080E0BBDE00E003C080E203DF0F5F809143
:100E500020010817C8F303C04F5F4093330110927D
:100E600034018091340160913301A7DE2E2D3327A8
:100E700027FD3095C901CDB7DEB7E8E096C260E046
:100E800041E068CE0F931F93082F13B1EAD1AB0155
:100E9000BC0180913A01882391F481E080933A016A
:100EA00084B18D7C84B985B1826385B985E090E099
:100EB0006F9364E06A95F1F76F910197C9F780919C
:100EC0004001813011F1813038F0823009F443C0A3
:100ED000833009F089C065C0202F30E0812F90E079
:100EE0008095909528233923232B09F47DC01095F4
:100EF000102310933B0140933C0150933D016093BC
:100F00003E0170933F0181E06DC080913C01909162
:100F10003D01A0913E01B0913F01481B590B6A0B66
:100F20007B0B4F3051056105710508F45DC04091A0
:100F30003B01812F90E080959095242F30E0822313
:100F40009323892B59F182E080934001109514235B
:100F500010933B0149C0E0913B01AE2FB0E0212F3F
:100F600030E0CD0182239323892B79F083E08093B5
:100F70004001E123E0933B0140933C0150933D014C
:100F800060933E0170933F012FC0802F90E0209529
:100F9000309582239323A817B90731F110924001AD
:100FA00023C080913C0190913D01A0913E01B09100
:100FB0003F01481B590B6A0B7B0B4F3051056105F4
:100FC000710590F040913B01842F90E0212F30E09B
:100FD00082239323892B29F010924001842F8123AF
:100FE00004C082E08093400180E01F910F9108953A
:100FF00049CF08950F931F93082F13B1109531D146
:10100000AB01BC0180913A01882391F481E0809387
:101010003A0184B18D7C84B985B1826385B985E05C
:1010200090E06F9364E06A95F1F76F910197C9F7CB
:1010300080914601813011F1813038F0823009F41D
:1010400043C0833009F089C065C0202F30E0812F74
:1010500090E08095909528233923232B09F47DC0B7
:101060001095102310934101409342015093430186
:10107000609344017093450181E06DC0809142010D
:1010800090914301A0914401B0914501481B590B37
:101090006A0B7B0B4F3051056105710508F45DC08B
:1010A00040914101812F90E080959095242F30E070
:1010B00082239323892B59F182E080934601109576
:1010C00014231093410149C0A0914101212F30E028
:1010D000EA2FF0E0C9018E239F23892B79F083E06A
:1010E000809346011A23109341014093420150938B
:1010F000430160934401709345012FC0802F90E01D
:101100002095309582239323E817F90731F1109247
:10111000460123C08091420190914301A091440176
:10112000B0914501481B590B6A0B7B0B4F305105A1
:101130006105710590F040914101812F90E0242FCD
:1011400030E082239323892B29F010924601812FCE
:10115000842304C082E08093460180E01F910F91B8
:10116000089548CF08952F928F939F932FB6809123
:10117000480190914901019680934801909349015B
:1011800090E080914A01891F80934A01909150011B
:101190009C5F9093500180914F0180519742C0F025
:1011A0009093500180934F0180914B0190914C019D
:1011B000019680934B0190934C0190E080914D01FA
:1011C000891F80934D0180914E01891F80934E01AC
:1011D0002FBE9F918F912F90189528EE33E009C074
:1011E000F9016F9364E06A95F1F76F913197C9F750
:1011F00001970097A9F70895A0E7B0E08C918E7F42
:101200008C93E0EBF0E0808183608083E1EBF0E0A1
:101210008081807F8083808182608083B89A8C9176
:1012200081608C937894089580915101882321F4F2
:1012300081E080935101E0CF0895F6DFE0E7F0E030
:1012400080818E7F808320914B0130914C014091B1
:101250004D0150914E01808181608083B901CA01A6
:101260000895EBCF0895629FD001739FF001829F94
:10127000E00DF11D649FE00DF11D929FF00D839F25
:10128000F00D749FF00D659FF00D9927729FB00DC2
:10129000E11DF91F639FB00DE11DF91FBD01CF01D5
:1012A00011240895991B79E004C0991F961708F03E
:1012B000961B881F7A95C9F780950895AA1BBB1BBA
:1012C00051E107C0AA1FBB1FA617B70710F0A61B46
:1012D000B70B881F991F5A95A9F780959095BC0167
:1012E000CD010895A1E21A2EAA1BBB1BFD010DC062
:1012F000AA1FBB1FEE1FFF1FA217B307E407F507C6
:1013000020F0A21BB30BE40BF50B661F771F881FA1
:10131000991F1A9469F760957095809590959B0137
:10132000AC01BD01CF01089597FB092E05260ED013
:1013300057FD04D0D7DF0AD0001C38F450954095F3
:10134000309521953F4F4F4F5F4F0895F6F7909599
:101350008095709561957F4F8F4F9F4F08952F9285
:101360003F924F925F926F927F928F929F92AF9235
:10137000BF92CF92DF92EF92FF920F931F93CF9382
:10138000DF93CDB7DEB7CA1BDB0B0FB6F894DEBF19
:101390000FBECDBF09942A88398848885F846E843F
:1013A0007D848C849B84AA84B984C884DF80EE8089
:1013B000FD800C811B81AA81B981CE0FD11D0FB692
:1013C000F894DEBF0FBECDBFED010895EE0FFF1FF5
:1013D0000590F491E02D0994CF93DF93BC01823006
:1013E000910510F462E070E0A0915401B0915501B4
:1013F000ED01E0E0F0E040E050E021C0888199811B
:101400008617970769F48A819B81309719F0938337
:10141000828304C09093550180935401FE0134C02F
:101420006817790738F44115510519F084179507A5
:1014300008F4AC01FE018A819B819C01E90120979F
:10144000E9F641155105A9F1CA01861B970B0497CE
:1014500008F4BA01E0E0F0E02AC08D919C91119768
:1014600084179507F9F46417750781F412968D9126
:101470009C911397309719F09383828304C09093C3
:10148000550180935401FD0132964FC0CA01861B5D
:10149000970BFD01E80FF91F6193719302978D93EC
:1014A0009C9343C0FD01828193819C01D9011097D7
:1014B000A1F68091520190915301892B41F48091C2
:1014C0002301909124019093530180935201409104
:1014D0002501509126014115510541F44DB75EB7E4
:1014E0008091210190912201481B590B20915201BA
:1014F0003091530124173507B0F4CA01821B930BB6
:101500008617970780F0AB014E5F5F4F84179507F2
:1015100050F0420F531F5093530140935201F90171
:101520006193719302C0E0E0F0E0CF01DF91CF91D1
:101530000895CF93DF93009709F450C0EC012297F0
:101540001B821A82A0915401B0915501109709F1A4
:1015500040E050E0AC17BD0708F1BB83AA83FE0151
:1015600021913191E20FF31FAE17BF0779F48D91EE
:101570009C911197280F391F2E5F3F4F3983288385
:1015800012968D919C9113979B838A8341155105E7
:1015900071F4D0935501C093540120C012968D91DF
:1015A0009C911397AD01009711F0DC01D3CFFA01A4
:1015B000D383C28321913191E20FF31FCE17DF074E
:1015C00069F488819981280F391F2E5F3F4FFA01F6
:1015D000318320838A819B8193838283DF91CF91A2
:1015E00008950F931F93CF93DF938C01EB01009726
:1015F00031F46115710519F420E030E037C081E065
:1016000090E06EE070E018D2FC019C01009771F14F
:1016100080E88383209771F0D387C28781E8838332
:101620008091560190915701892B21F4F093570135
:10163000E093560101151105C9F0118700878381D8
:10164000826083838091580190915901892B71F4B4
:10165000F0935901E093580180915A0190915B01F8
:10166000892B21F4F0935B01E0935A01C901DF91CA
:10167000CF911F910F910895A0E0B0E0E1E4FBE06D
:101680007ECEFE01359661917191809158019091C5
:101690005901AF0103D02096E2E08DCEABE0B0E07F
:1016A000E3E5FBE05CCE3C012B015A01FC01178213
:1016B0001682838181FD03C06FEF7FEFB9C19AE08D
:1016C000892E1E010894211C311CF3012381F20193
:1016D00023FD859123FF81912F01882309F4A5C162
:1016E000853239F423FD859123FF81912F018532C5
:1016F00021F490E0B301D7D1E8CF982FFF24EE2456
:101700009924FFE1FF15D0F09B3269F09C3228F458
:10171000903259F0933291F40EC09D3249F09033DB
:1017200069F441E024C052E0F52A84E0F82A28C098
:1017300098E0F92A25C0E0E1FE2A22C0F7FC29C082
:10174000892F80538A3070F4F6FE05C0989C902C47
:101750001124980E15C0E89CE02C1124E80EF0E24C
:10176000FF2A0EC09E3229F4F6FC5FC140E4F42A41
:1017700007C09C3619F450E8F52A02C0983649F49F
:10178000F20123FD959123FF91912F01992309F0F7
:10179000B8CF892F8554833018F08052833038F4C5
:1017A00044E050E0A40EB51E5FE359830FC09336AA
:1017B00031F0933779F0933509F052C01FC0F5012D
:1017C0008081898342E050E0A40EB51E610101E0F2
:1017D00010E011C0F501C080D180F6FC03C06FEFAE
:1017E0007FEF02C0692D70E042E050E0A40EB51E0C
:1017F000C6014ED18C015FE7F52213C0F501C08010
:10180000D180F6FC03C06FEF7FEF02C0692D70E05E
:1018100042E050E0A40EB51EC60128D18C0150E86C
:10182000F52AF3FE06C018C080E290E0B3013BD178
:10183000EA948E2D90E008171907B0F30DC0F60159
:10184000F7FC8591F7FE81916F0190E0B3012BD1F8
:10185000E110EA94015010400115110581F7E2C032
:10186000943611F0993661F5F7FE08C0F501208134
:1018700031814281538184E090E00AC0F50180818A
:1018800091819C01442737FD4095542F82E090E0E0
:10189000A80EB91E9FE6F92257FF09C05095409542
:1018A000309521953F4F4F4F5F4FE0E8FE2ACA0128
:1018B000B901A1012AE030E022D1D82ED2183FC0D0
:1018C000953729F41F2D1F7E2AE030E01DC01F2D03
:1018D000197F9F3661F0903720F4983509F0A5C044
:1018E0000FC0903739F0983709F09FC004C028E046
:1018F00030E00AC0106114FD146020E130E004C043
:1019000014FD166020E132E017FF08C0F501608188
:1019100071818281938144E050E008C0F5018081AB
:101920009181BC0180E090E042E050E0A40EB51E41
:10193000A101E5D0D82ED2188FE7F82EF122F6FEBD
:101940000BC05EEFF522D91438F4F4FE07C0F2FCA8
:1019500005C08FEEF82202C01D2D01C0192DF4FE26
:101960000DC0FE01ED0DF11D8081803319F499EE5B
:10197000F92208C01F5FF2FE05C003C08F2D8678D4
:1019800009F01F5F0F2DF3FC13C0F0FE0EC01E15F3
:1019900010F09D2C0AC09D2C9E0C911A1E2D05C086
:1019A00080E290E0B3017FD01F5F1E15C8F304C032
:1019B0001E1510F4E11A01C0EE2404FF0EC080E3EE
:1019C00090E0B30170D002FF1BC001FD03C088E7A7
:1019D00090E00EC088E590E00BC0802F867881F003
:1019E00001FF02C08BE201C080E2F7FC8DE290E0D3
:1019F000B30159D005C080E390E0B30154D09A946C
:101A0000D914C8F3DA94F101ED0DF11D808190E055
:101A1000B30149D0DD20B1F705C080E290E0B30109
:101A200042D0EA94EE20C9F750CEF3016681778167
:101A3000CB012B96E2E1AFCC0F931F93CF93DF93B3
:101A4000689F8001699F100D789F100D1124C801B7
:101A5000C3DCEC01009721F060E070E0A80111D038
:101A6000CE01DF91CF911F910F910895FC01059058
:101A7000615070400110D8F7809590958E0F9F1F90
:101A80000895DC0101C06D9341505040E0F7089586
:101A9000FC016150704001900110D8F7809590953D
:101AA0008E0F9F1F08950F931F93CF93DF938C0189
:101AB000EB018B8181FF1BC082FF0DC02E813F8116
:101AC0008C819D812817390764F4E881F98101939D
:101AD000F983E88306C0E885F985802F0995892B6D
:101AE00031F48E819F8101969F838E8302C00FEF18
:101AF0001FEFC801DF91CF911F910F910895FA0157
:101B0000AA27283051F1203181F1E8946F936E7F3C
:101B10006E5F7F4F8F4F9F4FAF4FB1E03ED0B4E02D
:101B20003CD0670F781F891F9A1FA11D680F791F6E
:101B30008A1F911DA11D6A0F711D811D911DA11D7F
:101B400020D009F468943F912AE0269F112430198F
:101B5000305D3193DEF6CF010895462F4770405D2A
:101B60004193B3E00FD0C9F7F6CF462F4F70405DD9
:101B70004A3318F0495D31FD4052419302D0A9F734
:101B8000EACFB4E0A6959795879577956795BA952E
:101B9000C9F700976105710508959B01AC010A2EF4
:101BA00006945795479537952795BA95C9F7620FCB
:0E1BB000731F841F951FA01D0895F894FFCF8A
:101BBE0054696D653A20002532753A253032752EFE
:101BCE00253032750001040400D007F4010F000225
:081BDE000820005C010000007A
:00000001FF
