:1000000033C000004CC000004AC0000048C00000DF
:1000100046C0000044C0000042C0000040C00000D4
:100020003EC00000EFC100003AC0000038C0000030
:1000300036C0000034C0000032C0000030C00000F4
:100040002EC000002CC000002AC0000028C0000004
:1000500026C0000024C0000022C0000020C0000014
:100060001EC000001CC0000011241FBECFEFD8E04E
:10007000DEBFCDBF11E0A0E0B1E0EAE9F4E002C0EC
:1000800005900D92A632B107D9F711E0A6E2B1E0D2
:1000900001C01D92A734B107E1F702D0FCC1B0CF77
:1000A0001F932FD180E091E03DD182E2A9D1182F9A
:1000B00028D1103219F488E091E002C081E191E08A
:1000C00031D1812F65D11DD18AE191E02BD188EE0C
:1000D00093E0D2D1E6CFEF92FF920F931F936AB1D4
:1000E00057985A98289AE0902A01F0902B01009195
:1000F0002C0110912D0120E030E041E050E0CA01D8
:100100006F9364E06A95F1F76F910197C9F75C9A74
:10011000CA016F9364E06A95F1F76F910197C9F78F
:1001200089B15C98FA016F9364E06A95F1F76F9179
:100130003197C9F75C9AFA016F9364E06A95F1F719
:100140006F913197C9F75C9887FF0BC02C5F3F4FC9
:10015000C901A0E0B0E08E159F05A007B10708F423
:10016000CECF6AB91F910F91FF90EF90089565B1BE
:1001700090E0AC0141705070440F551F9C012670F7
:10018000307053E0220F331F5A95E1F7422B6D7CFC
:10019000462B45B92BB18870907034E0880F991FB9
:1001A0003A95E1F72F77282B2BB95C9A81E090E004
:1001B000FC016F9364E06A95F1F76F913197C9F78D
:1001C0005C986F9364E06A95F1F76F910197C9F7B6
:1001D000089580E197E2A0E0B0E080932A01909337
:1001E0002B01A0932C01B0932D01529A209A549A7E
:1001F0008EE190E041D183E097D086E090E03CD161
:1002000083E092D082E090E037D183E08DD082E02D
:1002100090E032D182E088D082E090E02DD188E277
:1002200041D088E03FD081E03DD086E03BD08CE0FB
:1002300039C080912E01882321F481E080932E0122
:10024000C8CF0895BF92CF92DF92EF92FF920F93A3
:100250001F93082F162FF42EECDF3DDFB4B0C5B08E
:10026000DAB0EBB02898112311F05A9A01C05A98CD
:1002700084B1826384B9579A81E0F81621F0802F07
:1002800082958F7074DF802F8F7071DFDAB8EBB8D2
:10029000B4B8C5B81F910F91FF90EF90DF90CF9049
:1002A000BF90089560E042E0CDCF81E0FBDF809118
:1002B000260190912701892B19F160E070E208C0B6
:1002C000E0912601F0912701E40FF51F70836F5F25
:1002D000462F50E08091230190E001972091240166
:1002E00030E0FC01E29FC001E39F900DF29F900D72
:1002F00011244817590724F310922901109228015C
:100300000895D3CF089561E042E09CCFCF93DF936F
:10031000EC0102C02196F7DF88818823D9F7DF91AD
:10032000CF910895F3CF089560E041E08BCF1F9304
:10033000CF93DF93182F80912F01882391F481E0D0
:1003400080932F0184B18D7C84B985B1826385B996
:1003500085E090E06F9364E06A95F1F76F91019703
:10036000C9F7C12FD0E083B190E08C239D23892B66
:10037000D1F38AE090E080D083B190E08C239D237C
:10038000892B89F383B18123DF91CF911F91089548
:10039000CECF08951F93CF93DF93182F80912F0115
:1003A000882391F481E080932F0184B18D7C84B9FE
:1003B00085B1826385B985E090E06F9364E06A95CA
:1003C000F1F76F910197C9F7C12FD0E083B190E0A9
:1003D000809590958C239D23892BC1F38AE090E032
:1003E0004BD083B190E0809590958C239D23892BF1
:1003F00069F383B180958123DF91CF911F91089597
:10040000C9CF08952F928F939F932FB680913D016E
:1004100090913E01019680933D0190933E0190E0C2
:1004200080913F01891F80933F01909145019C5F1E
:10043000909345018091440180519742C0F0909380
:1004400045018093440180914001909141010196C2
:10045000809340019093410190E080914201891F77
:100460008093420180914301891F809343012FBEF5
:100470009F918F912F90189528EE33E009C0F901D4
:100480006F9364E06A95F1F76F913197C9F701971F
:0A0490000097A9F70895F894FFCF34
:10049A0057616974696E6700746F7020646F776E54
:1004AA0000626F7420646F776E0072656C656173A9
:0604BA0065640002080069
:00000001FF
