:1000000049C0000062C0000060C000005EC0000087
:100010005CC000005AC0000058C0000056C000007C
:1000200054C00000C8C5000050C000004EC0000011
:100030004CC000001AC4000048C0000046C00000C8
:1000400044C0000042C000003DC5000073C5000070
:100050003CC000003AC0000038C0000036C00000BC
:1000600034C0000032C00000AB01B101B401B701DF
:10007000BA01BD01C001C301C601C901CC01CF0154
:100080004869207468657265210D0A006431360084
:100090006331360011241FBECFEFD8E0DEBFCDBFE5
:1000A00011E0A0E0B1E0E0EDFDE002C005900D92AE
:1000B000AA30B107D9F711E0AAE0B1E001C01D9262
:1000C000A637B107E1F741D081C69ACFA3D48823E0
:1000D000E9F308951F93182F833679F084361CF4C2
:1000E000873491F405C0843659F0873669F402C02C
:1000F0005F9A01C05F98579A10C080E990E002C0F3
:100100008CE890E0B0D309C0E1DF80E281278093E2
:10011000560186E591E061E061D41F9108950FC01A
:10012000F0E0EA5CFE4F8081D5DF80910A018F31DB
:1001300019F410920A0103C08F5F80930A014BD417
:10014000E0910A018E1761F7089560E875E280E09A
:1001500090E0B6D486E391E060E223D4E0DF80E172
:10016000D2D38823D9F3B2DF86E591E060E870E06E
:100170004BE050E022D686E591E06BE02FD480E1A1
:100180000ED4ECCFA0E0B0E0E7ECF0E0E1C5FC017C
:100190005B01C42E80910B018823C9F481E0809318
:1001A0000B0110926F0083E28093800081E18093C5
:1001B00081001092820080E197E290938900809301
:1001C000880010928B0010928A00229A78941092E4
:1001D0000001F7FD03C0DD24D39403C0FF772AE0BC
:1001E000D22E80918100082F10E0087F107088ECDB
:1001F000D89EC00111248E179F07B8F4EF0187E243
:10020000E131F80710F0C0E1D7E2BE0176956795BD
:1002100080E090E06058794687469F4F9E0140E01D
:1002200050E051D57901016023C088E2D89E802D2D
:100230001124C82FD0E0CE17DF0708F4EF01BE016C
:10024000769567959E0140E050E08AE0D81639F433
:1002500080E090E0605E734481449F4F06C080E080
:1002600090E060537D4E8C4E9F4F2DD579010260FA
:100270008AE0D81631F4CE0105966AE070E00FD519
:10028000EB0183E0C83ED80711F4B5010DC0BE01F3
:1002900080E090E0950140E050E0D6D428EE33E0D5
:1002A00040E050E032D5B90110926F000093810018
:1002B000F0928900E0928800E0918800F091890036
:1002C000AC2DA03108F0AFE080E190E08A1B9109ED
:1002D00002C0F695E7958A95E2F7F0938B00E093DC
:1002E0008A00709313016093120186B38FEF86BB6F
:1002F00081E080936F00CDB7DEB7EAE045C5CF93CC
:10030000DF93EB018F3F11F0442329F488EE93E053
:10031000BE0140E064C0813110F420E005C0282F08
:100320002051203608F02FE5822F6CE0ACD4382F16
:10033000682F70E084EF9FEF689FF001699FF00DD8
:10034000789FF00D1124E20FF11DEC30F10530F42F
:10035000EC5CFF4F2CC58CE991E023C080E090E07D
:1003600020C085EB91E01DC08FEC91E01AC08AEEB1
:1003700091E017C087E092E014C086E292E011C0DD
:1003800087E492E00EC089E692E00BC08EE892E02E
:1003900008C085EB92E005C08EED92E002C08AE0D5
:1003A00093E0373071F002C0880F991F6A95E2F729
:1003B000323020F005966AE070E00BC08050904823
:1003C0000AC036E0880F991F3A95E1F7029665E07A
:1003D00070E065D4CB01403108F04FE0BE01D2DEC1
:1003E000DF91CF91089530911001E0910C01F091CF
:1003F0000D01332311F0249101C02081822F8154FB
:100400008A3108F4205E203259F480910C019091D9
:100410000D01019690930D0180930C01019729F72E
:10042000822F0895CF93DF93DEDF282FC0E0D0E046
:100430001CC0CE0153E0880F991F5A95E1F7CC0FED
:10044000DD1FC80FD91F822F992787FD9095C80FF0
:10045000D91FE09780910C0190910D010196909326
:100460000D0180930C01BFDF282F822F80538A302B
:1004700000F3CE01DF91CF910895A0E0B0E0E2E477
:10048000F2E064C480900101B0900E01BB2021F025
:1004900060910F01662399F4A0900F01009106016D
:1004A00010910701E0900201F0900301C091040156
:1004B000D0910501C0900801D090090103C18FEFD0
:1004C00070E040E01CDF10920F01BDC194E0892E66
:1004D000BB2404EF11E084E0E82EF12CC0EDD7E05E
:1004E000B4E09B2EAFE0CA2ED12C7DDF282F809167
:1004F0000C0190910D01019690930D0180930C01D8
:10050000263609F498C02736CCF42236A1F12336DA
:1005100074F42E3361F12F3334F42132B9F22C33D9
:1005200009F004C126C0213609F000C11AC12436E1
:1005300009F451C025360CF066C035C02F3609F4D9
:10054000BFC0203754F42C3609F4A5C02D3609F469
:10055000A5C0273609F0EAC086C0243709F4CEC00A
:10056000263709F4E0C0223709F0E0C0ADC083941B
:10057000BCCF8A94BACFA0920F01B0920E01109313
:10058000070100930601F0920301E0920201D0936B
:100590000501C093040190920101D0920901C0921B
:1005A00008012BE0F5C0A0920F01B0920E0110934C
:1005B000070100930601F0920301E0920201D0933B
:1005C0000501C093040190920101D0920901C092EB
:1005D000080120E0DDC0A0920F01B0920E0110933F
:1005E000070100930601F0920301E0920201D0930B
:1005F0000501C093040190920101D0920901C092BB
:10060000080122E0C5C0A0920F01B0920E01109324
:10061000070100930601F0920301E0920201D093DA
:100620000501C093040190920101D0920901C0928A
:10063000080124E0ADC0A0920F01B0920E0110930A
:10064000070100930601F0920301E0920201D093AA
:100650000501C093040190920101D0920901C0925A
:10066000080125E095C0A0920F01B0920E011093F1
:10067000070100930601F0920301E0920201D0937A
:100680000501C093040190920101D0920901C0922A
:10069000080127E07DC0C6DE7C0140C0A4DE8C36A8
:1006A00011F4BB2403C0AA24BB24B39480910C0191
:1006B00090910D01019690930D0180930C0115CF3F
:1006C000B1DE882E982C11CFA0920F01B0920E01AE
:1006D0001093070100930601F0920301E0920201DA
:1006E000D0930501C093040190920101D0920901B9
:1006F000C092080120E0FF24F3944BC093DEBC01BC
:1007000080EC9DE5CCD2CB01EB01F3E0CC0FDD1FFB
:10071000FA95E1F7880F991FC80FD91FCE01B701CD
:10072000BED28B01E2CE7EDE6C01DFCEA0920F0145
:10073000B0920E011093070100930601F09203019D
:10074000E0920201D0930501C0930401909201014F
:10075000D0920901C092080110920D0110920C0173
:1007600072C0A0920F01B0920E0110930701009386
:100770000601F0920301E0920201D0930501C093BB
:10078000040190920101D0920901C092080129E070
:10079000FF248CE0889EC0011124E22EE80E0AC0DE
:1007A00080910C0190910D01019690930D01809321
:1007B0000C01E39418DE8B3299F3833289F30BC07A
:1007C00080910C0190910D01019690930D01809301
:1007D0000C01EA9408DE8D3299F3C0910601D091A4
:1007E00007018153883048F40091040110910501FC
:1007F00019DEBC01C80153D2EB018E010BC0809100
:100800000C0190910D01019690930D0180930C01C4
:10081000C00FD11F16950795E6DD8E3281F38091CA
:100820000E01882339F0CE019695879580930F01AC
:10083000C81BD109FF2011F0EE24EA948E2DBE01D1
:10084000409108015CDDCDB7DEB7ECE09BC21092B1
:100850006F0090930D0180930C0181E08093100153
:1008600010920F010ACEF3CF08951F920F920FB688
:100870000F9211242F933F934F935F936F937F9326
:100880008F939F93AF93BF93EF93FF938091120148
:100890009091130101979093130180931201019697
:1008A00009F510926F00789480918100887F8160B3
:1008B0008093810080E197E2909389008093880083
:1008C00010928B0010928A0081E080930001809149
:1008D0000C0190910D01892B29F080911101882341
:1008E00009F4CBDDFF91EF91BF91AF919F918F9173
:1008F0007F916F915F914F913F912F910F900FBE1C
:100900000F901F901895282F80911401882391F43F
:1009100081E08093140184B18D7C84B985B18263B8
:1009200085B985E090E06F9364E06A95F1F76F9187
:100930000197C9F783B18095822308951F93CF93C0
:10094000DF93182F80911401882391F481E0809324
:10095000140184B18D7C84B985B1826385B985E049
:1009600090E06F9364E06A95F1F76F910197C9F792
:10097000C12FD0E083B190E08C239D23892BD1F34C
:100980008AE090E052D183B190E08C239D23892BA3
:1009900089F383B18123DF91CF911F910895CECF49
:1009A00008952091C1002F772093C10090932A01D0
:1009B00080932901109223016093250181E08093A7
:1009C000260180912101882329F48091C10080684B
:1009D0008093C10008958091230108959093280188
:1009E000809327011092220160932401892B61F0EA
:1009F00080912201861740F480912101882321F4FF
:100A00008091C100806203C08091C1008F7D80937E
:100A1000C10008959091220120E08091240198174F
:100A200009F421E0822F089520912101222311F45D
:100A300088E901C088E18093C100809127019091ED
:100A40002801892B79F09091220180912401981737
:100A500048F4222339F48091C10080628093C10060
:100A6000789408958091C1008F7DF8CFEF92FF9226
:100A70000F931F937B018C0180E0D6DF60EA75E263
:100A800086E290E06E197F09800B910B33E0660FD0
:100A9000771F881F991F3A95D1F724E0EE0CFF1CB1
:100AA000001F111F2A95D1F7A80197010CD130938F
:100AB000C5002093C4001F910F91FF90EF900895FF
:100AC000D5CF08951F920F920FB60F9211242F9336
:100AD0008F939F93EF93FF932091C600E09129019C
:100AE000F0912A01309781F09091230180912501A6
:100AF000981750F480912301E80FF11D2083809115
:100B000023018F5F80932301909123018091250120
:100B1000981731F480912601882311F01092230157
:100B2000FF91EF919F918F912F910F900FBE0F909A
:100B30001F9018951F920F920FB60F9211248F934A
:100B40009F93EF93FF93E0912701F0912801309755
:100B5000F9F08091220190912401891738F5809154
:100B6000C00085FF23C080912201E80FF11D808124
:100B70008093C600809122018F5F8093220116C06E
:100B800080912101882321F48091C100806203C0FB
:100B90008091C1008F7D8093C100FF91EF919F9163
:100BA0008F910F900FBE0F901F901895809122018A
:100BB000891770F7E5CF2F928F939F932FB680916F
:100BC0002C0190912D01019680932C0190932D0181
:100BD00090E080912E01891F80932E019091340125
:100BE0009C5F909334018091330180519742C0F013
:100BF000909334018093330180912F0190913001C3
:100C0000019680932F019093300190E08091310103
:100C1000891F8093310180913201891F80933201B5
:100C20002FBE9F918F912F90189528EE33E009C029
:100C3000F9016F9364E06A95F1F76F913197C9F705
:100C400001970097A9F70895629FD001739FF00163
:100C5000829FE00DF11D649FE00DF11D929FF00D4C
:100C6000839FF00D749FF00D659FF00D9927729F83
:100C7000B00DE11DF91F639FB00DE11DF91FBD010E
:100C8000CF0111240895991B79E004C0991F96178C
:100C900008F0961B881F7A95C9F780950895AA1BBE
:100CA000BB1B51E107C0AA1FBB1FA617B70710F057
:100CB000A61BB70B881F991F5A95A9F78095909589
:100CC000BC01CD010895A1E21A2EAA1BBB1BFD0198
:100CD0000DC0AA1FBB1FEE1FFF1FA217B307E4071B
:100CE000F50720F0A21BB30BE40BF50B661F771F73
:100CF000881F991F1A9469F7609570958095909553
:100D00009B01AC01BD01CF01089597FB092E05267B
:100D10000ED057FD04D0D7DF0AD0001C38F4509510
:100D20004095309521953F4F4F4F5F4F0895F6F70F
:100D300090958095709561957F4F8F4F9F4F089547
:100D40002F923F924F925F926F927F928F929F92DB
:100D5000AF92BF92CF92DF92EF92FF920F931F93C9
:100D6000CF93DF93CDB7DEB7CA1BDB0B0FB6F8947A
:100D7000DEBF0FBECDBF09942A88398848885F84BA
:100D80006E847D848C849B84AA84B984C884DF802B
:100D9000EE80FD800C811B81AA81B981CE0FD11D0F
:100DA0000FB6F894DEBF0FBECDBFED010895EE0F74
:100DB000FF1F0590F491E02D0994FB01DC0102C0B6
:100DC00005900D9241505040D8F70895F894FFCF08
:0A0DD00001040400D007F4010F0035
:00000001FF
