:100000002BC1000045C1000043C1000041C10000F8
:100010003FC100003DC100003BC1000039C10000EC
:1000200037C100000C944E0D0C945B090C944F0AE0
:100030000C947B0AD6C500002BC1000029C100002A
:1000400027C1000025C1000023C1000021C100001C
:100050001FC100001DC100001BC1000019C100002C
:1000600017C1000015C1000054035A035D0360036B
:100070006303660369036C036F03720375037803FC
:1000800021204F35204C3136206167616661656102
:10009000206461632B61646165612066613C61611C
:1000A0003C62616323612064616323616461656113
:1000B00020664F36206463643C622D643C61643C7E
:1000C0006720643C662B643C67643C61643C622D41
:1000D00020643C64643C65643C662B643C6720643B
:1000E0003C662B643C67643C61644C38204D532073
:1000F0003C622D643C622D64204D4C652D3C67654F
:100100002D3C67204D53633C61633C61204D4C2086
:10011000643C66643C66204F35204D5320622D6759
:10012000622D674D4C203E6323653E632365204D61
:10013000532061666166204D4C206763236763230B
:10014000204D532066646664204D4C20653C622D32
:10015000653C622D4F36204C3136726167616661B5
:100160006561206461632361646165612066613C4F
:1001700061613C6261632361206461632361646146
:1001800065612066616561646163613C622D6163E4
:100190006164673C622D67206567646763673C62E2
:1001A0002D67203C61673C622D6763663C61662079
:1001B000646663663C622D663C61663C67663C61D2
:1001C000663C622D653C6765206323653C622D6556
:1001D0003C61653C6765203C66653C67653C6164E5
:1001E0003C66644F3520653E65653E65663E6466E7
:1001F0003E6420622D3E6323622D3E6323613E6494
:10020000663E6420653E65653E65663E64663E64A6
:10021000653E643E63233E64623E643E6323622027
:100220003E6323616761656766652066204F3620FF
:1002300064632364666463233C6220632334009C0C
:1002400001B501CF01EA0107022602470269028EC9
:1002500002B502DE020A030011241FBECFEFD8E070
:10026000DEBFCDBF11E0A0E0B1E0EEEFF4E202C0EE
:1002700005900D92A233B107D9F711E0A2E3B1E0E6
:1002800001C01D92A937B107E1F777D00C947D1218
:10029000B7CE813110F420E005C0282F2051203640
:1002A00008F02FE5822F6CE00E94ED0D382F822F91
:1002B0000E94ED0DE92FF0E0EE0FFF1FE15CFD4F16
:1002C00085919491373049F002C0880F991F3A9573
:1002D000E2F705966AE070E008C026E0880F991FF3
:1002E0002A95E1F7029665E070E00E94F90DCB01D6
:1002F0000895A0E0B0E0EFE7F1E00C94520E182F63
:100300007B010E94CC0D5B016C01812FC2DF9C013F
:10031000BC017695679580E090E0605E7E45884FF1
:100320009F4F40E050E00E940D0EE90100E010E018
:1003300014C02A9A229ACE016F9364E06A95F1F76D
:100340006F910197C9F72A98229ACE016F9364E0C2
:100350006A95F1F76F910197C9F70E94CC0D6A1960
:100360007B098C099D09E616F7060807190708F7A7
:10037000CDB7DEB7EAE00C946E0EA2E0B0E0E3EC9D
:10038000F1E00C94550E80E890E01CD4F3D53CD5F8
:1003900000D080E091E0EDB7FEB7928381830E94A8
:1003A000D70F0F900F9088EC90E00E94880D8EE29E
:1003B00090E00E94E90F88EC90E00E94880D8EE2A8
:1003C00090E00E94E90F88EC90E00E94880D8EE298
:1003D00090E00E94E90F84EF91E00E94880D66E0B2
:1003E000E62E61E0F62EDD24D3948E010F5F1F4FC1
:1003F000C1D500D0EDB7FEB7F282E1820E94D70FDF
:100400000F900F9082E355D71982DA8280E090E056
:1004100060E0A80122E00E944C0D80E060EB74E0F7
:100420000E94A70A81E060EB74E00E94A70A82E3C1
:1004300090E00E94880D80E068EC70E00E94D60A8F
:1004400081E064E670E00E94D60A80E060EB74E030
:100450000E94A70A8CE362E370E04BDF84E362E36F
:1004600070E047DF81E060EB74E00E94A70A80E95A
:1004700091E00E94880D82E398D68823B1F480E051
:1004800068E077E00E94A70A88EC90E00E94880D5F
:1004900081E068E077E00E94A70A80E991E00E948D
:1004A000880D82E382D6882381F282E37ED6C9D684
:1004B0000E948B0B85E191E092D388EE93E00E943D
:1004C000880D96CFA0E0B0E0E8E6F2E00C94520E82
:1004D000FC015B01C42E809132018823C9F481E0C4
:1004E0008093320110926F0083E28093800081E15B
:1004F000809381001092820080E197E290938900BE
:100500008093880010928B0010928A00229A78942F
:1005100010921F01F7FD03C0DD24D39403C0FF77C1
:100520002AE0D22E80918100082F10E0087F107001
:1005300088ECD89EC00111248E179F07C0F4EF01EC
:1005400087E2E131F80710F0C0E1D7E2BE0176950D
:10055000679580E090E06058794687469F4F9E01FE
:1005600040E050E00E940D0E7901016024C088E255
:10057000D89E802D1124C82FD0E0CE17DF0708F4B5
:10058000EF01BE01769567959E0140E050E08AE05C
:10059000D81639F480E090E0605E734481449F4F48
:1005A00006C080E090E060537D4E8C4E9F4F0E94CD
:1005B0000D0E790102608AE0D81639F4CE01059655
:1005C0006AE070E00E94F90DEB0183E0C83ED807B5
:1005D00011F4B5010FC0BE0180E090E0950140E04C
:1005E00050E00E94CE0D28EE33E040E050E00E9443
:1005F0002F0EB90110926F0000938100F0928900D4
:10060000E0928800E0918800F0918900AC2DA03143
:1006100008F0AFE080E190E08A1B910902C0F695F6
:10062000E7958A95E2F7F0938B00E0938A00709348
:100630003A016093390186B38FEF86BB81E08093E6
:100640006F00CDB7DEB7EAE00C946E0ECF93DF9368
:10065000EB018F3F11F0442329F488EE93E0BE01B3
:1006600040E067C0813110F420E005C0282F205100
:10067000203608F02FE5822F6CE00E94ED0D382F18
:10068000682F70E084EF9FEF689FF001699FF00D85
:10069000789FF00D1124E20FF11DEC30F10538F4D4
:1006A000EC5CFF4F0C94810E8CE991E023C080E05C
:1006B00090E020C085EB91E01DC08FEC91E01AC066
:1006C0008AEE91E017C087E092E014C086E292E0E3
:1006D00011C087E492E00EC089E692E00BC08EE87C
:1006E00092E008C085EB92E005C08EED92E002C07A
:1006F0008AE093E0373071F002C0880F991F6A9545
:10070000E2F7323020F005966AE070E00BC08050CE
:1007100090480BC036E0880F991F3A95E1F7029692
:1007200065E070E00E94F90DCB01403108F04FE028
:10073000BE01C8DEDF91CF91089530913701E0917D
:100740003301F0913401332311F0249101C0208151
:10075000822F81548A3108F4205E203259F480912E
:1007600033019091340101969093340180933301C9
:10077000019729F7822F0895CF93DF93DEDF282F8B
:10078000C0E0D0E01CC0CE0153E0880F991F5A95FD
:10079000E1F7CC0FDD1FC80FD91F822F992787FDE6
:1007A0009095C80FD91FE097809133019091340143
:1007B00001969093340180933301BFDF282F822F5D
:1007C00080538A3000F3CE01DF91CF910895A0E0ED
:1007D000B0E0EDEEF3E00C94500E80902001B0906C
:1007E0003501BB2021F060913601662399F4A09079
:1007F00036010091250110912601E0902101F09031
:100800002201C0912301D0912401C0902701D090F2
:10081000280103C18FEF70E040E018DF109236012D
:10082000C0C194E0892EBB2404EF11E084E0E82EDF
:10083000F12CC0EDD7E0B4E09B2EAFE0CA2ED12C56
:100840007CDF282F809133019091340101969093A1
:10085000340180933301263609F498C02736CCF44E
:100860002236A1F1233674F42E3361F12F3334F4A0
:100870002132B9F22C3309F006C126C0213609F025
:1008800002C11CC1243609F451C025360CF066C0E3
:1008900035C02F3609F4BFC0203754F42C3609F484
:1008A000A5C02D3609F4A5C0273609F0ECC086C0D6
:1008B000243709F4CEC0263709F4E2C0223709F004
:1008C000E2C0ADC08394BCCF8A94BACFA092360167
:1008D000B09235011093260100932501F092220178
:1008E000E0922101D0932401C09323019092200132
:1008F000D0922801C09227012BE0F7C0A0923601C8
:10090000B09235011093260100932501F092220147
:10091000E0922101D0932401C09323019092200101
:10092000D0922801C092270120E0DFC0A0923601BA
:10093000B09235011093260100932501F092220117
:10094000E0922101D0932401C093230190922001D1
:10095000D0922801C092270122E0C7C0A0923601A0
:10096000B09235011093260100932501F0922201E7
:10097000E0922101D0932401C093230190922001A1
:10098000D0922801C092270124E0AFC0A092360186
:10099000B09235011093260100932501F0922201B7
:1009A000E0922101D0932401C09323019092200171
:1009B000D0922801C092270125E097C0A09236016D
:1009C000B09235011093260100932501F092220187
:1009D000E0922101D0932401C09323019092200141
:1009E000D0922801C092270127E07FC0C5DE7C019C
:1009F00041C0A3DE8C3611F4BB2403C0AA24BB245F
:100A0000B394809133019091340101969093340115
:100A10008093330115CFB0DE882E982C11CFA09291
:100A20003601B09235011093260100932501F09212
:100A30002201E0922101D0932401C09323019092DE
:100A40002001D0922801C092270120E0FF24F394D6
:100A50004DC092DEBC0180EC9DE50E94F90DCB01FA
:100A6000EB01F3E0CC0FDD1FFA95E1F7880F991F3A
:100A7000C80FD91FCE01B7010E94F90D8B01E0CE3E
:100A80007BDE6C01DDCEA0923601B0923501109371
:100A9000260100932501F0922201E0922101D093DA
:100AA0002401C093230190922001D0922801C0928A
:100AB0002701109234011092330173C0A0923601C5
:100AC000B09235011093260100932501F092220186
:100AD000E0922101D0932401C09323019092200140
:100AE000D0922801C092270129E0FF248CE0889E43
:100AF000C0011124E22EE80E0AC0809133019091CA
:100B0000340101969093340180933301E39415DE10
:100B10008B3299F3833289F30BC08091330190912A
:100B2000340101969093340180933301EA9405DEF9
:100B30008D3299F3C0912501D091260181538830DF
:100B400050F4009123011091240116DEBC01C8016C
:100B50000E94F90DEB018E010BC080913301909141
:100B6000340101969093340180933301C00FD11F5B
:100B700016950795E2DD8E3281F380913501882349
:100B800039F0CE019695879580933601C81BD1091F
:100B9000FF2011F0EE24EA948E2DBE014091270132
:100BA00055DDCDB7DEB7ECE00C946C0E10926F0003
:100BB000909334018093330181E080933701109248
:100BC000360105CEF3CF089510926F009093340153
:100BD000809333011092370110923601F8CDF4CF93
:100BE00008951F920F920FB60F9211242F933F93E7
:100BF0004F935F936F937F938F939F93AF93BF9325
:100C0000EF93FF938091390190913A01019790936E
:100C10003A0180933901019609F510926F0078949A
:100C200080918100887F81608093810080E197E2DC
:100C3000909389008093880010928B0010928A0014
:100C400081E080931F018091330190913401892BC1
:100C500029F080913801882309F4B9DDFF91EF91E3
:100C6000BF91AF919F918F917F916F915F914F91C4
:100C70003F912F910F900FBE0F901F90189580E01D
:100C800090E00895EF92FF920F931F936AB15798E7
:100C90005A98289AE0903F01F0904001009141015C
:100CA0001091420120E030E041E050E0CA016F9332
:100CB00064E06A95F1F76F910197C9F75C9ACA01F0
:100CC0006F9364E06A95F1F76F910197C9F789B165
:100CD0005C98FA016F9364E06A95F1F76F91319730
:100CE000C9F75C9AFA016F9364E06A95F1F76F9126
:100CF0003197C9F75C9887FF0BC02C5F3F4FC90144
:100D0000A0E0B0E08E159F05A007B10708F4CECF94
:100D10006AB91F910F91FF90EF90089565B190E02F
:100D2000AC0141705070440F551F9C01267030700B
:100D300053E0220F331F5A95E1F7422B6D7C462B6F
:100D400045B92BB18870907034E0880F991F3A959F
:100D5000E1F72F77282B2BB95C9A81E090E0FC011A
:100D60006F9364E06A95F1F76F913197C9F75C98DA
:100D70006F9364E06A95F1F76F910197C9F7089551
:100D800080913B0190913C01009711F00E94340F3B
:100D90008091290190E0019720912A0130E0AC0177
:100DA000429FC001439F900D529F900D1124AFD7D9
:100DB00090933C0180933B01009729F160E070E241
:100DC00008C0E0913B01F0913C01E40FF51F7083F6
:100DD0006F5F462F50E08091290190E001972091AC
:100DE0002A0130E0FC01E29FC001E39F900DF29FD9
:100DF000900D11244817590724F38FEB97E06FE308
:100E000076E00C948C0F0895BBCF089580E197E2B3
:100E1000A0E0B0E080933F0190934001A093410196
:100E2000B0934201529A209A549A8EE190E070D683
:100E300083E0B8D186E090E06BD683E0B3D182E066
:100E400090E066D683E0AED182E090E061D682E0A9
:100E5000A9D182E090E05CD688E241D088E03FD022
:100E600081E03DD086E03BD08CE039C080914301E9
:100E7000882321F481E080934301C8CF0895BF9275
:100E8000CF92DF92EF92FF920F931F93082F162FAE
:100E9000F42EECDFF7DEB4B0C5B0DAB0EBB02898D2
:100EA000112311F05A9A01C05A9884B1826384B90F
:100EB000579A81E0F81621F0802F82958F702EDFEF
:100EC000802F8F702BDFDAB8EBB8B4B8C5B81F919C
:100ED0000F91FF90EF90DF90CF90BF90089560E06A
:100EE00042E0CDCFA4E0B0E0E7E7F7E0E1C6182F9D
:100EF000062F80E8898380EC8A8384E98B8384EDE4
:100F00008C83FE01E60FF11D8181810FE8DF1093D4
:100F10003E0100933D012496E4E0E6C681E0DFDF78
:100F200080913B0190913C01892B19F160E070E2C6
:100F300008C0E0913B01F0913C01E40FF51F708384
:100F40006F5F462F50E08091290190E0019720913A
:100F50002A0130E0FC01E29FC001E39F900DF29F67
:100F6000900D11244817590724F310923E01109256
:100F70003D010895D3CF089561E042E080CFA0E025
:100F8000B0E0E4ECF7E090C6E82E80913B01909150
:100F90003C01892B09F4FDC02AE0E21609F445C0A2
:100FA00038E0E316C9F480913E01815080933E0100
:100FB0008F3F51F480913D01815080933D0180919C
:100FC0002A01815080933E0180913D018F3F09F0BD
:100FD000DBC010923D01D6C08E2DCEDF20913D01A9
:100FE0002223C9F030E02150304080912A0190E066
:100FF000AC01249FC001259F900D349F900D1124BA
:1010000020913E01E0913B01F0913C01E80FF91F76
:10101000E20FF11DE08280913E018F5F80933E01DF
:1010200090912A01891709F0B4C040913D01242F05
:1010300030E08091290190E001972817390709F0E5
:101040009EC0C0E0D0E042C080E06C2F4BDFFF24A8
:101050006E010894C11CD11C34C00F2D10E090E02B
:101060009C01C29FC001C39F900DD29F900D11247F
:10107000E0913B01F0913C01E00FF11FE80FF91FF7
:1010800080817ADFE0913B01F0913C0180912A015F
:1010900090E0C89FD001C99FB00DD89FB00D11241A
:1010A000E00FF11FAE0FBF1FAC01C49EC001C59E73
:1010B000900DD49E900D1124E80FF91F80818C9320
:1010C000F39480912A01F81640F2E601609129011B
:1010D000862F90E00297C817D9070CF4B5CF62307D
:1010E00008F43EC0625080E0FDDEFF24E0E2DE2E28
:1010F00033C00F2D10E08091290190E0029730E07D
:10110000AC01429FC001439F900D529F900D11244E
:10111000E0913B01F0913C01E00FF11FE80FF91F56
:1011200080812ADF2091290130E0225030408091D7
:101130002A0190E0AC01249FC001259F900D349FAF
:10114000900D1124E0913B01F0913C01E00FF11F63
:10115000E80FF91FD082F39420912A01F21648F289
:1011600060912901615080E0BDDE00E003C080E2B3
:1011700003DF0F5F80912A010817C8F303C04F5F98
:1011800040933D0110923E0180913E0160913D01EE
:10119000A9DE2E2D332727FD3095C901CDB7DEB747
:1011A000E8E09EC560E041E06ACE282F80914401CE
:1011B000882391F481E08093440184B18D7C84B9CB
:1011C00085B1826385B985E090E06F9364E06A95AC
:1011D000F1F76F910197C9F783B180958223089544
:1011E0001F93CF93DF93182F80914401882391F4AC
:1011F00081E08093440184B18D7C84B985B18263A0
:1012000085B985E090E06F9364E06A95F1F76F919E
:101210000197C9F7C12FD0E083B190E08C239D23C3
:10122000892BD1F38AE090E073D483B190E08C23D2
:101230009D23892B89F383B18123DF91CF911F9166
:101240000895CECF08951F93CF93DF93182F8091E9
:101250004401882391F481E08093440184B18D7C22
:1012600084B985B1826385B985E090E06F9364E0CD
:101270006A95F1F76F910197C9F7C12FD0E083B15B
:1012800090E0809590958C239D23892BC1F38AE073
:1012900090E03ED483B190E0809590958C239D237F
:1012A000892B69F383B180958123DF91CF911F91C1
:1012B0000895C9CF08951F920F920FB60F9211246F
:1012C0002F933F934F935F936F938F939F93AF931E
:1012D000BF93CF93DF93EF93FF9380915F018F5F75
:1012E000877080935F01682F6F5F677080915D01E9
:1012F000681728F010928900109288004AC0862F43
:1013000090E0880F991FA0915101B0915201A80F50
:10131000B91F2D913C911197E0915901F0915A011B
:10132000E80FF91F408151814115510519F121152F
:10133000310501F1E0915501F0915601E80FF91FD7
:101340000190F081E02D3097A9F02E173F0740F46F
:10135000CA01820F931F8E179F07A8F4FC0113C0C8
:10136000CF01840F951F2817390768F0F901E41B96
:10137000F50B09C0E0915501F0915601E80FF91FF6
:101380000190F081E02DF0938900E0938800ED93C7
:10139000FC9380915E01681728F010928B001092E8
:1013A0008A003DC0862F90E0880F991FC09153019D
:1013B000D0915401C80FD91F48815981E0915B0138
:1013C000F0915C01E80FF91F0190F081E02DA091F0
:1013D0005701B09158013097C1F0A80FB91F2D9156
:1013E0003C914217530738F4E40FF51FE217F30757
:1013F00080F49F010EC0C9018E0F9F1F4817590727
:1014000040F09A012E1B3F0B04C0A80FB91F2D916D
:101410003C9130938B0020938A00398328839091EC
:101420005F0180915D01981788F483E0989FC00167
:101430001124E0916001F0916101E80FF91FA08192
:10144000B1819C918281809589238C9390915F01D9
:1014500080915E01981788F483E0989FC001112461
:10146000E0916201F0916301E80FF91FA081B18161
:101470009C918281809589238C93FF91EF91DF91DC
:10148000CF91BF91AF919F918F916F915F914F914C
:101490003F912F910F900FBE0F901F9018951F92A4
:1014A0000F920FB60F9211248F939F93AF93BF9318
:1014B000EF93FF9390915F0180915D01981780F405
:1014C00083E0989FC0011124E0916001F0916101D7
:1014D000E80FF91FA081B1818C91928189278C93AB
:1014E000FF91EF91BF91AF919F918F910F900FBEA0
:1014F0000F901F9018951F920F920FB60F92112404
:101500008F939F93AF93BF93EF93FF9390915F015E
:1015100080915E01981780F483E0989FC0011124A8
:10152000E0916201F0916301E80FF91FA081B181A0
:101530008C91928189278C93FF91EF91BF91AF910C
:101540009F918F910F900FBE0F901F901895982F1D
:1015500080915E01981748F580916F008F7D809390
:101560006F00892F90E087709070880F991FE0912D
:101570005701F0915801E80FF91F9B0189E0633989
:10158000780710F022E939E0C90143E0880F991F7C
:101590004A95E1F7220F331F820F931F91838083B7
:1015A00080916F00806280936F000895982F8091E2
:1015B0005E019817F8F480916F008F7D80936F0023
:1015C000892F90E087709070880F991FE0915B01E0
:1015D000F0915C01E80FF91FCB0121E6693A72072F
:1015E00010F088EA91E69183808380916F00806299
:1015F00080936F0008958091600190916101009740
:1016000029F032D410926101109260018091510151
:1016100090915201009729F027D410925201109214
:1016200051018091550190915601009729F01CD4E9
:1016300010925601109255018091590190915A01D2
:10164000009729F011D410925A01109259018091FB
:10165000620190916301009729F006D41092630112
:10166000109262018091530190915401009729F0EA
:10167000FBD3109254011092530180915701909125
:101680005801009729F0F0D3109258011092570199
:1016900080915B0190915C01009729F0E5D3109255
:1016A0005C0110925B01089510926F00109280000F
:1016B0001092810020E033E011C0239FC00111246B
:1016C000E0916001F0916101E80FF91FA081B18103
:1016D0009C918281809589238C932F5F80915D01FD
:1016E000281758F320E033E011C0239FC0011124D4
:1016F000E0916201F0916301E80FF91FA081B181CF
:101700009C918281809589238C932F5F80915E01CB
:10171000281758F370CFC8CF0895A0E0B0E0E2E9F1
:10172000FBE0C1C2082FE92EC42EB52E10926F0027
:101730001092320181E080931F01109234011092C7
:10174000330110928100F62E88E0861710F4F8E03D
:10175000FF2EF0925D0182E080938000D22EE8E0BF
:10176000E21710F4E8E0DE2ED0925E0144DF13E0D1
:10177000F19EC0011124CBD280936001909361014E
:1017800080915D0190E0880F991FC1D28093510133
:101790009093520180915D0190E0880F991FB7D21C
:1017A000809355019093560180915D0190E0880FE0
:1017B000991FADD29C0190935A0180935901809159
:1017C000600190916101892B09F459C08091510108
:1017D00090915201892B09F452C08091550190914A
:1017E0005601892B09F44BC0232B09F448C0DD2096
:1017F00051F4802F9E2D9C01B90130E040E050E073
:1018000001E010E08AC0D19EC001112480D28093F3
:1018100062019093630180915E0190E0880F991FAF
:1018200076D2809353019093540180915E0190E0B1
:10183000880F991F6CD28093570190935801809123
:101840005E0190E0880F991F62D29C0190935C0129
:1018500080935B018091620190916301892B79F003
:101860008091530190915401892B49F08091570147
:1018700090915801892B19F0232B09F0BACFBBDEC8
:1018800081E006C1C0916001D0916101C40FD51FF4
:10189000FB018081883060F4F80102C0EE0FFF1F69
:1018A0008A95E2F72E2FABE2B0E0EAE2F0E025C045
:1018B0008E3070F490E00897F80102C0EE0FFF1F21
:1018C0008A95E2F72E2FA5E2B0E0E4E2F0E015C041
:1018D000853130F0A0E0B0E0E0E0F0E020E00DC0C5
:1018E00090E00E97F80102C0EE0FFF1F8A95E2F715
:1018F0002E2FA8E2B0E0E7E2F0E08C91922F9095D5
:1019000098239C938081822B8083B983A8832A8328
:101910003F5F4D5F5F4F6F5F7F4F3F1508F4B2CF62
:1019200020E01DC0822F90E0880F991FE0915101A7
:10193000F0915201E80FF91F11821082E0915501D8
:10194000F0915601E80FF91F11821082E0915901C0
:10195000F0915A01E80FF91F118210822F5F8091D8
:101960005D012817F8F28C2D9B2D9C01890130E038
:1019700040E050E060E070E0A1E0EA2EF12C65C0AC
:10198000C0916201D0916301C60FD71FF801808119
:10199000883060F4F70102C0EE0FFF1F8A95E2F76E
:1019A0002E2FABE2B0E0EAE2F0E025C08E3070F41A
:1019B00090E00897F70102C0EE0FFF1F8A95E2F74B
:1019C0002E2FA5E2B0E0E4E2F0E015C0853130F062
:1019D000A0E0B0E0E0E0F0E020E00DC090E00E9785
:1019E000F70102C0EE0FFF1F8A95E2F72E2FA8E243
:1019F000B0E0E7E2F0E09C91822F809589238C9300
:101A00008081822B8083B983A8832A83E09153014C
:101A1000F0915401E40FF51F11821082E0915701FB
:101A2000F0915801E40FF51F11821082E0915B01E3
:101A3000F0915C01E40FF51F118210823F5F4E5F51
:101A40005F4F6D5F7F4F0F5F1F4F3D1508F498CFBD
:101A500010925F0181E18093810088EA91E6909382
:101A60008700809386008FEF86BB80916F00806235
:101A700080936F00DD2029F080916F008460809357
:101A80006F0080916F00826080936F00789480E097
:101A9000CDB7DEB7E9E023C140CE08952F928F93F2
:101AA0009F932FB680916501909166010196809376
:101AB00065019093660190E080916701891F809392
:101AC000670190916D019C5F90936D0180916C0115
:101AD00080519742C0F090936D0180936C0180918A
:101AE0006801909169010196809368019093690162
:101AF00090E080916A01891F80936A0180916B0157
:101B0000891F80936B012FBE9F918F912F90189505
:101B100028EE33E009C0F9016F9364E06A95F1F7AC
:101B20006F913197C9F701970097A9F70895A0E73A
:101B3000B0E08C918E7F8C93E0EBF0E0808183604D
:101B40008083E1EBF0E08081807F80838081826010
:101B50008083B89A8C9181608C9378940895809159
:101B60006E01882321F481E080936E01E0CF089517
:101B7000F6DFE0E7F0E080818E7F808320916801CE
:101B80003091690140916A0150916B0180818160BF
:101B90008083B901CA010895EBCF0895629FD001F7
:101BA000739FF001829FE00DF11D649FE00DF11D18
:101BB000929FF00D839FF00D749FF00D659FF00DC7
:101BC0009927729FB00DE11DF91F639FB00DE11DB4
:101BD000F91FBD01CF0111240895991B79E004C0BC
:101BE000991F961708F0961B881F7A95C9F780955C
:101BF0000895AA1BBB1B51E107C0AA1FBB1FA61754
:101C0000B70710F0A61BB70B881F991F5A95A9F7A5
:101C100080959095BC01CD010895A1E21A2EAA1BD2
:101C2000BB1BFD010DC0AA1FBB1FEE1FFF1FA2178C
:101C3000B307E407F50720F0A21BB30BE40BF50B89
:101C4000661F771F881F991F1A9469F76095709512
:101C5000809590959B01AC01BD01CF01089597FB44
:101C6000092E05260ED057FD04D0D7DF0AD0001C60
:101C700038F450954095309521953F4F4F4F5F4F29
:101C80000895F6F790958095709561957F4F8F4FE9
:101C90009F4F08952F923F924F925F926F927F9243
:101CA0008F929F92AF92BF92CF92DF92EF92FF926C
:101CB0000F931F93CF93DF93CDB7DEB7CA1BDB0B18
:101CC0000FB6F894DEBF0FBECDBF09942A883988BD
:101CD00048885F846E847D848C849B84AA84B984C4
:101CE000C884DF80EE80FD800C811B81AA81B981D0
:101CF000CE0FD11D0FB6F894DEBF0FBECDBFED01E4
:101D00000895EE0FFF1F0590F491E02D0994CF93F5
:101D1000DF93BC018230910510F462E070E0A09185
:101D20007101B0917201ED01E0E0F0E040E050E0BF
:101D300021C0888199818617970769F48A819B81E0
:101D4000309719F09383828304C09093720180933B
:101D50007101FE0134C06817790738F44115510547
:101D600019F08417950708F4AC01FE018A819B8164
:101D70009C01E9012097E9F641155105A9F1CA0135
:101D8000861B970B049708F4BA01E0E0F0E02AC044
:101D90008D919C91119784179507F9F46417750735
:101DA00081F412968D919C911397309719F093833B
:101DB000828304C09093720180937101FD01329679
:101DC0004FC0CA01861B970BFD01E80FF91F6193F5
:101DD000719302978D939C9343C0FD0182819381FF
:101DE0009C01D9011097A1F680916F01909170012B
:101DF000892B41F480912D0190912E0190937001D7
:101E000080936F0140912F01509130014115510590
:101E100041F44DB75EB780912B0190912C01481B86
:101E2000590B20916F013091700124173507B0F4E0
:101E3000CA01821B930B8617970780F0AB014E5F98
:101E40005F4F8417950750F0420F531F5093700156
:101E500040936F01F9016193719302C0E0E0F0E0FB
:101E6000CF01DF91CF910895CF93DF93009709F4CD
:101E700050C0EC0122971B821A82A0917101B0918F
:101E80007201109709F140E050E0AC17BD0708F16E
:101E9000BB83AA83FE0121913191E20FF31FAE179C
:101EA000BF0779F48D919C911197280F391F2E5FF0
:101EB0003F4F3983288312968D919C9113979B8372
:101EC0008A834115510571F4D0937201C093710159
:101ED00020C012968D919C911397AD01009711F03F
:101EE000DC01D3CFFA01D383C28321913191E20F78
:101EF000F31FCE17DF0769F488819981280F391FF6
:101F00002E5F3F4FFA01318320838A819B81938327
:101F10008283DF91CF9108950F931F93CF93DF9327
:101F20008C01EB01009731F46115710519F420E083
:101F300030E037C081E090E06EE070E01DD2FC013F
:101F40009C01009771F180E88383209771F0D3871B
:101F5000C28781E883838091730190917401892BFA
:101F600021F4F0937401E093730101151105C9F098
:101F700011870087838182608383809175019091AE
:101F80007601892B71F4F0937601E09375018091CD
:101F9000770190917801892B21F4F0937801E093F7
:101FA0007701C901DF91CF911F910F910895A0E0B2
:101FB000B0E0ECEDFFE07ECEFE01359661917191CF
:101FC0008091750190917601AF0108D02096E2E0F2
:101FD0008DCE609175017091760105C2ABE0B0E0E5
:101FE000E3EFFFE057CE3C012B015A01FC011782C1
:101FF0001682838181FD03C06FEF7FEFB9C19AE044
:10200000892E1E010894211C311CF3012381F20149
:1020100023FD859123FF81912F01882309F4A5C118
:10202000853239F423FD859123FF81912F0185327B
:1020300021F490E0B301D7D1E8CF982FFF24EE240C
:102040009924FFE1FF15D0F09B3269F09C3228F40F
:10205000903259F0933291F40EC09D3249F0903392
:1020600069F441E024C052E0F52A84E0F82A28C04F
:1020700098E0F92A25C0E0E1FE2A22C0F7FC29C039
:10208000892F80538A3070F4F6FE05C0989C902CFE
:102090001124980E15C0E89CE02C1124E80EF0E203
:1020A000FF2A0EC09E3229F4F6FC5FC140E4F42AF8
:1020B00007C09C3619F450E8F52A02C0983649F456
:1020C000F20123FD959123FF91912F01992309F0AE
:1020D000B8CF892F8554833018F08052833038F47C
:1020E00044E050E0A40EB51E5FE359830FC0933661
:1020F00031F0933779F0933509F052C01FC0F501E4
:102100008081898342E050E0A40EB51E610101E0A8
:1021100010E011C0F501C080D180F6FC03C06FEF64
:102120007FEF02C0692D70E042E050E0A40EB51EC2
:10213000C6014ED18C015FE7F52213C0F501C080C6
:10214000D180F6FC03C06FEF7FEF02C0692D70E015
:1021500042E050E0A40EB51EC60128D18C0150E823
:10216000F52AF3FE06C018C080E290E0B3013BD12F
:10217000EA948E2D90E008171907B0F30DC0F60110
:10218000F7FC8591F7FE81916F0190E0B3012BD1AF
:10219000E110EA94015010400115110581F7E2C0E9
:1021A000943611F0993661F5F7FE08C0F5012081EB
:1021B00031814281538184E090E00AC0F501808141
:1021C00091819C01442737FD4095542F82E090E097
:1021D000A80EB91E9FE6F92257FF09C050954095F9
:1021E000309521953F4F4F4F5F4FE0E8FE2ACA01DF
:1021F000B901A1012AE030E022D1D82ED2183FC087
:10220000953729F41F2D1F7E2AE030E01DC01F2DB9
:10221000197F9F3661F0903720F4983509F0A5C0FA
:102220000FC0903739F0983709F09FC004C028E0FC
:1022300030E00AC0106114FD146020E130E004C0F9
:1022400014FD166020E132E017FF08C0F50160813F
:1022500071818281938144E050E008C0F501808162
:102260009181BC0180E090E042E050E0A40EB51EF8
:10227000A101E5D0D82ED2188FE7F82EF122F6FE74
:102280000BC05EEFF522D91438F4F4FE07C0F2FC5F
:1022900005C08FEEF82202C01D2D01C0192DF4FEDD
:1022A0000DC0FE01ED0DF11D8081803319F499EE12
:1022B000F92208C01F5FF2FE05C003C08F2D86788B
:1022C00009F01F5F0F2DF3FC13C0F0FE0EC01E15AA
:1022D00010F09D2C0AC09D2C9E0C911A1E2D05C03D
:1022E00080E290E0B3017FD01F5F1E15C8F304C0E9
:1022F0001E1510F4E11A01C0EE2404FF0EC080E3A5
:1023000090E0B30170D002FF1BC001FD03C088E75D
:1023100090E00EC088E590E00BC0802F867881F0B9
:1023200001FF02C08BE201C080E2F7FC8DE290E089
:10233000B30159D005C080E390E0B30154D09A9422
:10234000D914C8F3DA94F101ED0DF11D808190E00C
:10235000B30149D0DD20B1F705C080E290E0B301C0
:1023600042D0EA94EE20C9F750CEF301668177811E
:10237000CB012B96E2E1AACC0F931F93CF93DF936F
:10238000689F8001699F100D789F100D1124C8016E
:10239000BEDCEC01009721F060E070E0A80111D0F4
:1023A000CE01DF91CF911F910F910895FC0105900F
:1023B000615070400110D8F7809590958E0F9F1F47
:1023C0000895DC0101C06D9341505040E0F708953D
:1023D000FC016150704001900110D8F780959095F4
:1023E0008E0F9F1F08950F931F93CF93DF938C0140
:1023F000EB018B8181FF1BC082FF0DC02E813F81CD
:102400008C819D812817390764F4E881F981019353
:10241000F983E88306C0E885F985802F0995892B23
:1024200031F48E819F8101969F838E8302C00FEFCE
:102430001FEFC801DF91CF911F910F910895FA010D
:10244000AA27283051F1203181F1E8946F936E7FF3
:102450006E5F7F4F8F4F9F4FAF4FB1E03ED0B4E0E4
:102460003CD0670F781F891F9A1FA11D680F791F25
:102470008A1F911DA11D6A0F711D811D911DA11D36
:1024800020D009F468943F912AE0269F1124301946
:10249000305D3193DEF6CF010895462F4770405DE1
:1024A0004193B3E00FD0C9F7F6CF462F4F70405D90
:1024B0004A3318F0495D31FD4052419302D0A9F7EB
:1024C000EACFB4E0A6959795879577956795BA95E5
:1024D000C9F700976105710508959B01AC010A2EAB
:1024E00006945795479537952795BA95C9F7620F82
:0E24F000731F841F951FA01D0895F894FFCF41
:1024FE00467567756500507265737320610A627563
:10250E0074746F6E00636465666761623E6300019A
:10251E00040400D007F4010F000208200079010026
:02252E000000AB
:00000001FF
