:1000000033C000004CC000004AC0000048C00000DF
:1000100046C0000044C0000042C0000040C00000D4
:100020003EC00000FEC000003AC0000038C0000022
:1000300036C0000034C0000032C0000030C00000F4
:100040002EC000002CC000002AC0000028C0000004
:1000500026C0000024C0000022C0000020C0000014
:100060001EC000001CC0000011241FBECFEFD8E04E
:10007000DEBFCDBF11E0A0E0B1E0E0EFF2E002C0F2
:1000800005900D92A830B107D9F711E0A8E0B1E0D2
:1000900001C01D92A331B107E1F714D027C1B0CF41
:1000A000FC01772767FD709580819181680F791F2A
:1000B000718360836850774024F080EB94E09183F3
:1000C00080830895A8E1B0E0E7E6F0E0F9C0509A37
:1000D000519A389A399A3A9A3B9A3C9A3D9ADE015B
:1000E0001196E0E0F1E088E001900D928150E1F797
:1000F000FE01399620EB34E0CE01499621933193ED
:10010000E817F907D9F740E050E07E010894E11CB8
:10011000F11C60ED862E67E0962E39E0A32EB12CFF
:10012000AC0EBD1E20EBC22E24E0D22E01E010E06A
:100130006EC0423051055CF42BB1C801042E02C0E0
:10014000880F991F0A94E2F7282B2BB90EC028B10B
:1001500042505040C801042E02C0880F991F0A94D3
:10016000E2F74E5F5F4F282B28B9FA01EE0FFF1F11
:10017000EE0DFF1D60857185CB016F9364E06A957C
:10018000F1F76F910197C9F74230510564F42BB133
:10019000C801042E02C0880F991F0A94E2F78095C7
:1001A00082238BB90FC028B142505040C801042EA1
:1001B00002C0880F991F0A94E2F74E5F5F4F809547
:1001C000822388B9C401861B970B6F9364E06A95FC
:1001D000F1F76F910197C9F7DA01AA0FBB1FAA0DBA
:1001E000BB1DF701E40FF51F8081992787FD9095CE
:1001F0002D913C911197820F931F11969C938E9392
:100200008850974014F0CD92DC924F5F5F4F48309A
:1002100051050CF48ECF84E090E03DD040E050E0FA
:10022000F6CF2F928F939F932FB6809109019091D3
:100230000A0101968093090190930A0190E0809150
:100240000B01891F80930B01909111019C5F90938A
:1002500011018091100180519742C0F090931101DB
:100260008093100180910C0190910D010196809373
:100270000C0190930D0190E080910E01891F8093F5
:100280000E0180910F01891F80930F012FBE9F9156
:100290008F912F90189528EE33E009C0F9016F93E4
:1002A00064E06A95F1F76F913197C9F7019700976C
:1002B000A9F708952F923F924F925F926F927F928B
:1002C0008F929F92AF92BF92CF92DF92EF92FF9266
:1002D0000F931F93CF93DF93CDB7DEB7CA1BDB0B12
:1002E0000FB6F894DEBF0FBECDBF0994F894FFCFD0
:0802F000090A0B0C0D0E0F10A2
:00000001FF
