:1000000043C000005CC000005AC0000058C000009F
:1000100056C0000054C0000052C0000050C0000094
:100020004EC00000BDC100004AC0000048C0000032
:1000300046C0000044C0000042C0000040C00000B4
:100040003EC000003CC000003AC0000038C00000C4
:1000500036C0000034C0000032C0000030C00000D4
:100060002EC000002CC000008100840087008C009E
:10007000910096009B009E00A100A400A700AC0088
:10008000B100B600BB00C00011241FBECFEFD8E006
:10009000DEBFCDBF11E0A0E0B1E0E2E4F4E002C0D9
:1000A00005900D92A230B107D9F711E0A2E0B1E0BE
:1000B00001C01D92AF30B107E1F78DD0C0C1A0CF14
:1000C00080E090E060E070E069C1909102012091D1
:1000D0000001813011F4920F01C0921B9093020134
:1000E0008091020190E0A0E0B0E08F709070A0706D
:1000F000B070FC018031910508F047C0EC5CFF4F07
:1001000098C184EB90E00FC082E690E007C080E0E9
:1001100090E06FEF70E033C08EE99FEF6CEE70E01F
:100120002EC08CE49FEF64EB70E029C084E19FEF68
:1001300062E670E024C081E09FEF1FC084E19FEF82
:1001400017C08CE49FEF0FC08EE99FEF07C080E0DF
:1001500090E061E07FEF13C082E690E064E17FEF22
:100160000EC084EB90E06CE47FEF09C08CEE90E071
:100170006EE97FEF04C08FEF90E060E070E00EC1A9
:100180008CEE90E062E670E009C10895EF92FF9274
:100190001F93CF93DF93EC017B0197FD02C011E029
:1001A0000FC0D095C195DF4F10E00AC0812F8DDFC1
:1001B000C7016F9364E06A95F1F76F910197C9F7F2
:1001C00021978FEFCF3FD80789F7DF91CF911F910C
:1001D000FF90EF900895FF920F931F9384E0F82E05
:1001E00002E080910001843019F40093000102C004
:1001F000F092000180E991E068E873E1C7DF84EFE5
:1002000091E008D110E08CE99FEF60ED77E0BEDF70
:1002100084E690E0FFD01F5F1430A9F7E2CF282FCB
:10022000883068F481E090E002C0880F991F2A9519
:10023000E2F7282FAAE2B0E0EBE2F0E029C08E302E
:1002400080F430E02850304081E090E002C0880F18
:10025000991F2A95E2F7282FA4E2B0E0E5E2F0E04A
:1002600017C0853130F020E0A0E0B0E0E0E0F0E041
:100270000FC030E02E50304081E090E002C0880F87
:10028000991F2A95E2F7282FA7E2B0E0E8E2F0E014
:100290006F3F19F48081822709C0662319F080819D
:1002A000822B04C09081822F8095892380838C913A
:1002B000822B8C930895E0EBF0E083EF80838081C4
:1002C00084BDE1EBF0E082E08083808185BDE4EBDA
:1002D000F0E010828081E3EBF0E08083808188BDD4
:1002E00088B587BD86E060E09ADF85E060E097DF53
:1002F0008BE060E094DF83E060E091CF80910301C8
:10030000882321F481E080930301D5CF0895CF9312
:10031000DF93EC01F3DFD7FD02C020E004C0D095ED
:10032000C195DF4F21E0CE01CF3FD10519F014F088
:100330008FEF90E0222319F018BC87BD02C088BD62
:1003400017BCDF91CF910895CF93DF93EC01D6DFF7
:10035000D7FD02C020E004C0D095C195DF4F21E059
:10036000CE01CF3FD10519F014F08FEF90E022239A
:1003700029F01092B4008093B30004C08093B400BD
:100380001092B300DF91CF9108950F931F938B01CB
:10039000BEDFC801D9DF1F910F910895F6CF0895F0
:1003A0002F928F939F932FB6809105019091060114
:1003B0000196809305019093060190E080910701DA
:1003C000891F8093070190910D019C5F90930D010F
:1003D00080910C0180519742C0F090930D01809361
:1003E0000C01809108019091090101968093080108
:1003F0009093090190E080910A01891F80930A017E
:1004000080910B01891F80930B012FBE9F918F91CB
:100410002F90189528EE33E009C0F9016F9364E03E
:100420006A95F1F76F913197C9F701970097A9F78E
:100430000895EE0FFF1F0590F491E02D0994F894B4
:02044000FFCFEC
:020442000400B4
:00000001FF
